{
  "contractName": "election",
  "abi": [
    {
      "inputs": [
        {
          "internalType": "string",
          "name": "",
          "type": "string"
        }
      ],
      "name": "candidateSearch",
      "outputs": [
        {
          "internalType": "uint256",
          "name": "",
          "type": "uint256"
        }
      ],
      "stateMutability": "view",
      "type": "function",
      "constant": true
    },
    {
      "inputs": [
        {
          "internalType": "string",
          "name": "",
          "type": "string"
        }
      ],
      "name": "voterSearch",
      "outputs": [
        {
          "internalType": "uint256",
          "name": "",
          "type": "uint256"
        }
      ],
      "stateMutability": "view",
      "type": "function",
      "constant": true
    },
    {
      "inputs": [
        {
          "internalType": "string",
          "name": "_epic",
          "type": "string"
        },
        {
          "internalType": "string",
          "name": "_voterName",
          "type": "string"
        },
        {
          "internalType": "string",
          "name": "_voterFatherName",
          "type": "string"
        },
        {
          "internalType": "string",
          "name": "_voterEmail",
          "type": "string"
        },
        {
          "internalType": "string",
          "name": "_voterMobile",
          "type": "string"
        },
        {
          "internalType": "string",
          "name": "_voterDOB",
          "type": "string"
        },
        {
          "internalType": "string",
          "name": "_voterAddress",
          "type": "string"
        },
        {
          "internalType": "string",
          "name": "_voterGender",
          "type": "string"
        }
      ],
      "name": "registerVoter",
      "outputs": [],
      "stateMutability": "nonpayable",
      "type": "function"
    },
    {
      "inputs": [
        {
          "internalType": "string",
          "name": "_epic",
          "type": "string"
        }
      ],
      "name": "showVoterInfo",
      "outputs": [
        {
          "components": [
            {
              "internalType": "string",
              "name": "epic",
              "type": "string"
            },
            {
              "internalType": "string",
              "name": "voterName",
              "type": "string"
            },
            {
              "internalType": "string",
              "name": "voterFatherName",
              "type": "string"
            },
            {
              "internalType": "string",
              "name": "voterEmail",
              "type": "string"
            },
            {
              "internalType": "string",
              "name": "voterMobile",
              "type": "string"
            },
            {
              "internalType": "string",
              "name": "voterDOB",
              "type": "string"
            },
            {
              "internalType": "string",
              "name": "voterAddress",
              "type": "string"
            },
            {
              "internalType": "string",
              "name": "voterGender",
              "type": "string"
            },
            {
              "internalType": "bool",
              "name": "isVoted",
              "type": "bool"
            }
          ],
          "internalType": "struct election.voterInfo",
          "name": "",
          "type": "tuple"
        }
      ],
      "stateMutability": "view",
      "type": "function",
      "constant": true
    },
    {
      "inputs": [],
      "name": "totalVoters",
      "outputs": [
        {
          "internalType": "uint256",
          "name": "",
          "type": "uint256"
        }
      ],
      "stateMutability": "view",
      "type": "function",
      "constant": true
    },
    {
      "inputs": [
        {
          "internalType": "string",
          "name": "_id",
          "type": "string"
        },
        {
          "internalType": "string",
          "name": "_candidateName",
          "type": "string"
        },
        {
          "internalType": "string",
          "name": "_party",
          "type": "string"
        },
        {
          "internalType": "string",
          "name": "__candidateEmail",
          "type": "string"
        },
        {
          "internalType": "string",
          "name": "_candidateFatherName",
          "type": "string"
        },
        {
          "internalType": "string",
          "name": "_candidateMobile",
          "type": "string"
        },
        {
          "internalType": "string",
          "name": "_candidateAddress",
          "type": "string"
        },
        {
          "internalType": "string",
          "name": "_candidateDOB",
          "type": "string"
        },
        {
          "internalType": "string",
          "name": "_candidateGender",
          "type": "string"
        }
      ],
      "name": "registerCandidate",
      "outputs": [],
      "stateMutability": "nonpayable",
      "type": "function"
    },
    {
      "inputs": [
        {
          "internalType": "string",
          "name": "_id",
          "type": "string"
        }
      ],
      "name": "showCandidateInfo",
      "outputs": [
        {
          "components": [
            {
              "internalType": "string",
              "name": "id",
              "type": "string"
            },
            {
              "internalType": "string",
              "name": "candidateName",
              "type": "string"
            },
            {
              "internalType": "string",
              "name": "partyName",
              "type": "string"
            },
            {
              "internalType": "string",
              "name": "candidateEmail",
              "type": "string"
            },
            {
              "internalType": "string",
              "name": "candidateFatherName",
              "type": "string"
            },
            {
              "internalType": "string",
              "name": "candidateMobile",
              "type": "string"
            },
            {
              "internalType": "string",
              "name": "candidateAddress",
              "type": "string"
            },
            {
              "internalType": "string",
              "name": "candidateDOB",
              "type": "string"
            },
            {
              "internalType": "string",
              "name": "candidateGender",
              "type": "string"
            }
          ],
          "internalType": "struct election.candidateInfo",
          "name": "",
          "type": "tuple"
        }
      ],
      "stateMutability": "view",
      "type": "function",
      "constant": true
    },
    {
      "inputs": [],
      "name": "totalCandidates",
      "outputs": [
        {
          "internalType": "uint256",
          "name": "",
          "type": "uint256"
        }
      ],
      "stateMutability": "view",
      "type": "function",
      "constant": true
    }
  ],
  "bytecode": "0x608060405234801561001057600080fd5b50611ae7806100206000396000f3fe608060405234801561001057600080fd5b50600436106100885760003560e01c8063529102411161005b578063529102411461013b5780635f5300ff1461016b578063cb9dfaa514610189578063e69906ac146101a557610088565b8063104303741461008d5780631f5fb391146100bd57806324d69dcd146100ed5780633866965c1461011d575b600080fd5b6100a760048036038101906100a291906112b9565b6101c1565b6040516100b49190611487565b60405180910390f35b6100d760048036038101906100d291906112b9565b61073e565b6040516100e491906114c2565b60405180910390f35b610107600480360381019061010291906112b9565b61076c565b60405161011491906115ee565b60405180910390f35b610125610c72565b60405161013291906114c2565b60405180910390f35b610155600480360381019061015091906112b9565b610c7f565b60405161016291906114c2565b60405180910390f35b610173610cad565b60405161018091906114c2565b60405180910390f35b6101a3600480360381019061019e9190611610565b610cb9565b005b6101bf60048036038101906101ba91906117a6565b610e70565b005b6101c9611022565b60026003836040516101db91906119a8565b908152602001604051809103902054815481106101fb576101fa6119bf565b5b90600052602060002090600902016040518061012001604052908160008201805461022590611a1d565b80601f016020809104026020016040519081016040528092919081815260200182805461025190611a1d565b801561029e5780601f106102735761010080835404028352916020019161029e565b820191906000526020600020905b81548152906001019060200180831161028157829003601f168201915b505050505081526020016001820180546102b790611a1d565b80601f01602080910402602001604051908101604052809291908181526020018280546102e390611a1d565b80156103305780601f1061030557610100808354040283529160200191610330565b820191906000526020600020905b81548152906001019060200180831161031357829003601f168201915b5050505050815260200160028201805461034990611a1d565b80601f016020809104026020016040519081016040528092919081815260200182805461037590611a1d565b80156103c25780601f10610397576101008083540402835291602001916103c2565b820191906000526020600020905b8154815290600101906020018083116103a557829003601f168201915b505050505081526020016003820180546103db90611a1d565b80601f016020809104026020016040519081016040528092919081815260200182805461040790611a1d565b80156104545780601f1061042957610100808354040283529160200191610454565b820191906000526020600020905b81548152906001019060200180831161043757829003601f168201915b5050505050815260200160048201805461046d90611a1d565b80601f016020809104026020016040519081016040528092919081815260200182805461049990611a1d565b80156104e65780601f106104bb576101008083540402835291602001916104e6565b820191906000526020600020905b8154815290600101906020018083116104c957829003601f168201915b505050505081526020016005820180546104ff90611a1d565b80601f016020809104026020016040519081016040528092919081815260200182805461052b90611a1d565b80156105785780601f1061054d57610100808354040283529160200191610578565b820191906000526020600020905b81548152906001019060200180831161055b57829003601f168201915b5050505050815260200160068201805461059190611a1d565b80601f01602080910402602001604051908101604052809291908181526020018280546105bd90611a1d565b801561060a5780601f106105df5761010080835404028352916020019161060a565b820191906000526020600020905b8154815290600101906020018083116105ed57829003601f168201915b5050505050815260200160078201805461062390611a1d565b80601f016020809104026020016040519081016040528092919081815260200182805461064f90611a1d565b801561069c5780601f106106715761010080835404028352916020019161069c565b820191906000526020600020905b81548152906001019060200180831161067f57829003601f168201915b505050505081526020016008820180546106b590611a1d565b80601f01602080910402602001604051908101604052809291908181526020018280546106e190611a1d565b801561072e5780601f106107035761010080835404028352916020019161072e565b820191906000526020600020905b81548152906001019060200180831161071157829003601f168201915b5050505050815250509050919050565b6001818051602081018201805184825260208301602085012081835280955050505050506000915090505481565b61077461106e565b600060018360405161078691906119a8565b908152602001604051809103902054815481106107a6576107a56119bf565b5b9060005260206000209060090201604051806101200160405290816000820180546107d090611a1d565b80601f01602080910402602001604051908101604052809291908181526020018280546107fc90611a1d565b80156108495780601f1061081e57610100808354040283529160200191610849565b820191906000526020600020905b81548152906001019060200180831161082c57829003601f168201915b5050505050815260200160018201805461086290611a1d565b80601f016020809104026020016040519081016040528092919081815260200182805461088e90611a1d565b80156108db5780601f106108b0576101008083540402835291602001916108db565b820191906000526020600020905b8154815290600101906020018083116108be57829003601f168201915b505050505081526020016002820180546108f490611a1d565b80601f016020809104026020016040519081016040528092919081815260200182805461092090611a1d565b801561096d5780601f106109425761010080835404028352916020019161096d565b820191906000526020600020905b81548152906001019060200180831161095057829003601f168201915b5050505050815260200160038201805461098690611a1d565b80601f01602080910402602001604051908101604052809291908181526020018280546109b290611a1d565b80156109ff5780601f106109d4576101008083540402835291602001916109ff565b820191906000526020600020905b8154815290600101906020018083116109e257829003601f168201915b50505050508152602001600482018054610a1890611a1d565b80601f0160208091040260200160405190810160405280929190818152602001828054610a4490611a1d565b8015610a915780601f10610a6657610100808354040283529160200191610a91565b820191906000526020600020905b815481529060010190602001808311610a7457829003601f168201915b50505050508152602001600582018054610aaa90611a1d565b80601f0160208091040260200160405190810160405280929190818152602001828054610ad690611a1d565b8015610b235780601f10610af857610100808354040283529160200191610b23565b820191906000526020600020905b815481529060010190602001808311610b0657829003601f168201915b50505050508152602001600682018054610b3c90611a1d565b80601f0160208091040260200160405190810160405280929190818152602001828054610b6890611a1d565b8015610bb55780601f10610b8a57610100808354040283529160200191610bb5565b820191906000526020600020905b815481529060010190602001808311610b9857829003601f168201915b50505050508152602001600782018054610bce90611a1d565b80601f0160208091040260200160405190810160405280929190818152602001828054610bfa90611a1d565b8015610c475780601f10610c1c57610100808354040283529160200191610c47565b820191906000526020600020905b815481529060010190602001808311610c2a57829003601f168201915b505050505081526020016008820160009054906101000a900460ff1615151515815250509050919050565b6000600280549050905090565b6003818051602081018201805184825260208301602085012081835280955050505050506000915090505481565b60008080549050905090565b60006040518061012001604052808a81526020018981526020018881526020018781526020018681526020018581526020018481526020018381526020016000151581525090806001815401808255809150506001900390600052602060002090600902016000909190919091506000820151816000019080519060200190610d439291906110bc565b506020820151816001019080519060200190610d609291906110bc565b506040820151816002019080519060200190610d7d9291906110bc565b506060820151816003019080519060200190610d9a9291906110bc565b506080820151816004019080519060200190610db79291906110bc565b5060a0820151816005019080519060200190610dd49291906110bc565b5060c0820151816006019080519060200190610df19291906110bc565b5060e0820151816007019080519060200190610e0e9291906110bc565b506101008201518160080160006101000a81548160ff02191690831515021790555050506001600080549050610e449190611a7d565b600189604051610e5491906119a8565b9081526020016040518091039020819055505050505050505050565b60026040518061012001604052808b81526020018a81526020018981526020018881526020018781526020018681526020018581526020018481526020018381525090806001815401808255809150506001900390600052602060002090600902016000909190919091506000820151816000019080519060200190610ef79291906110bc565b506020820151816001019080519060200190610f149291906110bc565b506040820151816002019080519060200190610f319291906110bc565b506060820151816003019080519060200190610f4e9291906110bc565b506080820151816004019080519060200190610f6b9291906110bc565b5060a0820151816005019080519060200190610f889291906110bc565b5060c0820151816006019080519060200190610fa59291906110bc565b5060e0820151816007019080519060200190610fc29291906110bc565b50610100820151816008019080519060200190610fe09291906110bc565b5050506001600280549050610ff59190611a7d565b60038a60405161100591906119a8565b908152602001604051809103902081905550505050505050505050565b6040518061012001604052806060815260200160608152602001606081526020016060815260200160608152602001606081526020016060815260200160608152602001606081525090565b60405180610120016040528060608152602001606081526020016060815260200160608152602001606081526020016060815260200160608152602001606081526020016000151581525090565b8280546110c890611a1d565b90600052602060002090601f0160209004810192826110ea5760008555611131565b82601f1061110357805160ff1916838001178555611131565b82800160010185558215611131579182015b82811115611130578251825591602001919060010190611115565b5b50905061113e9190611142565b5090565b5b8082111561115b576000816000905550600101611143565b5090565b6000604051905090565b600080fd5b600080fd5b600080fd5b600080fd5b6000601f19601f8301169050919050565b7f4e487b7100000000000000000000000000000000000000000000000000000000600052604160045260246000fd5b6111c68261117d565b810181811067ffffffffffffffff821117156111e5576111e461118e565b5b80604052505050565b60006111f861115f565b905061120482826111bd565b919050565b600067ffffffffffffffff8211156112245761122361118e565b5b61122d8261117d565b9050602081019050919050565b82818337600083830152505050565b600061125c61125784611209565b6111ee565b90508281526020810184848401111561127857611277611178565b5b61128384828561123a565b509392505050565b600082601f8301126112a05761129f611173565b5b81356112b0848260208601611249565b91505092915050565b6000602082840312156112cf576112ce611169565b5b600082013567ffffffffffffffff8111156112ed576112ec61116e565b5b6112f98482850161128b565b91505092915050565b600081519050919050565b600082825260208201905092915050565b60005b8381101561133c578082015181840152602081019050611321565b8381111561134b576000848401525b50505050565b600061135c82611302565b611366818561130d565b935061137681856020860161131e565b61137f8161117d565b840191505092915050565b60006101208301600083015184820360008601526113a88282611351565b915050602083015184820360208601526113c28282611351565b915050604083015184820360408601526113dc8282611351565b915050606083015184820360608601526113f68282611351565b915050608083015184820360808601526114108282611351565b91505060a083015184820360a086015261142a8282611351565b91505060c083015184820360c08601526114448282611351565b91505060e083015184820360e086015261145e8282611351565b91505061010083015184820361010086015261147a8282611351565b9150508091505092915050565b600060208201905081810360008301526114a1818461138a565b905092915050565b6000819050919050565b6114bc816114a9565b82525050565b60006020820190506114d760008301846114b3565b92915050565b60008115159050919050565b6114f2816114dd565b82525050565b60006101208301600083015184820360008601526115168282611351565b915050602083015184820360208601526115308282611351565b9150506040830151848203604086015261154a8282611351565b915050606083015184820360608601526115648282611351565b9150506080830151848203608086015261157e8282611351565b91505060a083015184820360a08601526115988282611351565b91505060c083015184820360c08601526115b28282611351565b91505060e083015184820360e08601526115cc8282611351565b9150506101008301516115e36101008601826114e9565b508091505092915050565b6000602082019050818103600083015261160881846114f8565b905092915050565b600080600080600080600080610100898b03121561163157611630611169565b5b600089013567ffffffffffffffff81111561164f5761164e61116e565b5b61165b8b828c0161128b565b985050602089013567ffffffffffffffff81111561167c5761167b61116e565b5b6116888b828c0161128b565b975050604089013567ffffffffffffffff8111156116a9576116a861116e565b5b6116b58b828c0161128b565b965050606089013567ffffffffffffffff8111156116d6576116d561116e565b5b6116e28b828c0161128b565b955050608089013567ffffffffffffffff8111156117035761170261116e565b5b61170f8b828c0161128b565b94505060a089013567ffffffffffffffff8111156117305761172f61116e565b5b61173c8b828c0161128b565b93505060c089013567ffffffffffffffff81111561175d5761175c61116e565b5b6117698b828c0161128b565b92505060e089013567ffffffffffffffff81111561178a5761178961116e565b5b6117968b828c0161128b565b9150509295985092959890939650565b60008060008060008060008060006101208a8c0312156117c9576117c8611169565b5b60008a013567ffffffffffffffff8111156117e7576117e661116e565b5b6117f38c828d0161128b565b99505060208a013567ffffffffffffffff8111156118145761181361116e565b5b6118208c828d0161128b565b98505060408a013567ffffffffffffffff8111156118415761184061116e565b5b61184d8c828d0161128b565b97505060608a013567ffffffffffffffff81111561186e5761186d61116e565b5b61187a8c828d0161128b565b96505060808a013567ffffffffffffffff81111561189b5761189a61116e565b5b6118a78c828d0161128b565b95505060a08a013567ffffffffffffffff8111156118c8576118c761116e565b5b6118d48c828d0161128b565b94505060c08a013567ffffffffffffffff8111156118f5576118f461116e565b5b6119018c828d0161128b565b93505060e08a013567ffffffffffffffff8111156119225761192161116e565b5b61192e8c828d0161128b565b9250506101008a013567ffffffffffffffff8111156119505761194f61116e565b5b61195c8c828d0161128b565b9150509295985092959850929598565b600081905092915050565b600061198282611302565b61198c818561196c565b935061199c81856020860161131e565b80840191505092915050565b60006119b48284611977565b915081905092915050565b7f4e487b7100000000000000000000000000000000000000000000000000000000600052603260045260246000fd5b7f4e487b7100000000000000000000000000000000000000000000000000000000600052602260045260246000fd5b60006002820490506001821680611a3557607f821691505b602082108103611a4857611a476119ee565b5b50919050565b7f4e487b7100000000000000000000000000000000000000000000000000000000600052601160045260246000fd5b6000611a88826114a9565b9150611a93836114a9565b925082821015611aa657611aa5611a4e565b5b82820390509291505056fea2646970667358221220692f83b061d4186fd71ea3b072ceab647450ff4cf76f696df1b2e0869910c26164736f6c634300080e0033",
  "immutableReferences": {},
  "source": "//SPDX-License-Identifier: MIT\npragma solidity ^0.8.0;\n\n\ncontract election\n{\n\n    // voter info structure\n    struct voterInfo\n    {\n        string epic;\n        string voterName;\n        string voterFatherName;\n        string voterEmail;\n        string voterMobile;\n        string voterDOB;\n        string voterAddress;\n        string voterGender;\n        bool isVoted;\n    }\n\n    voterInfo[] allVoters;\n    mapping(string => uint) public voterSearch ;      // epic => index\n\n    // stores voter info on blockchain\n    function registerVoter(string memory _epic,string memory _voterName,string memory _voterFatherName,string memory _voterEmail,string memory _voterMobile,string memory _voterDOB,string memory _voterAddress,string memory _voterGender) public \n    {\n        allVoters.push(voterInfo(_epic,_voterName,_voterFatherName,_voterEmail,_voterMobile,_voterDOB,_voterAddress,_voterGender,false));\n        voterSearch[_epic]=allVoters.length-1;\n    }\n    \n    // reterive voter info from blockchain\n    function showVoterInfo(string memory _epic) view public returns(voterInfo memory)\n    {\n        return allVoters[voterSearch[_epic]];\n    }\n\n    // count total voters\n    function totalVoters() view public  returns(uint)\n    {\n        return allVoters.length;\n    }\n\n\n    // candidate info structure\n    struct candidateInfo\n    {\n        string id;\n        string candidateName;\n        string partyName;\n        string candidateEmail;\n        string candidateFatherName;\n        string candidateMobile;\n        string candidateAddress;\n        string candidateDOB;\n        string candidateGender;\n        \n    }\n\n    candidateInfo[] allCandidates;\n    mapping(string => uint) public candidateSearch ;      // id => index\n\n    // stores candidate info on blockchain\n    function registerCandidate(string memory _id,string memory _candidateName,string memory _party,string memory __candidateEmail,string memory _candidateFatherName,string memory _candidateMobile,string memory _candidateAddress,string memory _candidateDOB,string memory _candidateGender) public \n    {\n        allCandidates.push( candidateInfo(_id,_candidateName,_party,__candidateEmail,_candidateFatherName,_candidateMobile,_candidateAddress,_candidateDOB,_candidateGender) );\n        candidateSearch[_id]=allCandidates.length-1;\n    \n    }\n    \n    // reterive candidate info from blockchain\n    function showCandidateInfo(string memory _id) view public returns(candidateInfo memory)\n    {\n        return allCandidates[candidateSearch[_id]];\n    }\n\n    // count total candidates\n    function totalCandidates() view public  returns(uint)\n    {\n        return allCandidates.length;\n    }\n\n\n\n}",
  "sourcePath": "/home/blackrose/Abhishek/Blockchain-Voting/truffle/contracts/election.sol",
  "compiler": {
    "name": "solc",
    "version": "0.8.14+commit.80d49f37.Emscripten.clang"
  },
  "schemaVersion": "3.4.7",
  "updatedAt": "2022-09-16T10:11:43.767Z",
  "networkType": "ethereum",
  "devdoc": {
    "kind": "dev",
    "methods": {},
    "version": 1
  },
  "userdoc": {
    "kind": "user",
    "methods": {},
    "version": 1
  }
}