{
  "contractName": "election",
  "abi": [
    {
      "inputs": [
        {
          "internalType": "string",
          "name": "",
          "type": "string"
        }
      ],
      "name": "candidateSearch",
      "outputs": [
        {
          "internalType": "uint256",
          "name": "",
          "type": "uint256"
        }
      ],
      "stateMutability": "view",
      "type": "function",
      "constant": true
    },
    {
      "inputs": [
        {
          "internalType": "string",
          "name": "",
          "type": "string"
        }
      ],
      "name": "voterSearch",
      "outputs": [
        {
          "internalType": "uint256",
          "name": "",
          "type": "uint256"
        }
      ],
      "stateMutability": "view",
      "type": "function",
      "constant": true
    },
    {
      "inputs": [
        {
          "internalType": "string",
          "name": "_epic",
          "type": "string"
        },
        {
          "internalType": "string",
          "name": "_voterName",
          "type": "string"
        },
        {
          "internalType": "string",
          "name": "_voterFatherName",
          "type": "string"
        },
        {
          "internalType": "string",
          "name": "_voterEmail",
          "type": "string"
        },
        {
          "internalType": "string",
          "name": "_voterMobile",
          "type": "string"
        },
        {
          "internalType": "string",
          "name": "_voterDOB",
          "type": "string"
        },
        {
          "internalType": "string",
          "name": "_voterAddress",
          "type": "string"
        },
        {
          "internalType": "string",
          "name": "_voterGender",
          "type": "string"
        }
      ],
      "name": "registerVoter",
      "outputs": [],
      "stateMutability": "nonpayable",
      "type": "function"
    },
    {
      "inputs": [
        {
          "internalType": "string",
          "name": "_epic",
          "type": "string"
        }
      ],
      "name": "showVoterInfo",
      "outputs": [
        {
          "components": [
            {
              "internalType": "string",
              "name": "epic",
              "type": "string"
            },
            {
              "internalType": "string",
              "name": "voterName",
              "type": "string"
            },
            {
              "internalType": "string",
              "name": "voterFatherName",
              "type": "string"
            },
            {
              "internalType": "string",
              "name": "voterEmail",
              "type": "string"
            },
            {
              "internalType": "string",
              "name": "voterMobile",
              "type": "string"
            },
            {
              "internalType": "string",
              "name": "voterDOB",
              "type": "string"
            },
            {
              "internalType": "string",
              "name": "voterAddress",
              "type": "string"
            },
            {
              "internalType": "string",
              "name": "voterGender",
              "type": "string"
            },
            {
              "internalType": "bool",
              "name": "isVoted",
              "type": "bool"
            }
          ],
          "internalType": "struct election.voterInfo",
          "name": "",
          "type": "tuple"
        }
      ],
      "stateMutability": "view",
      "type": "function",
      "constant": true
    },
    {
      "inputs": [],
      "name": "totalVoters",
      "outputs": [
        {
          "internalType": "uint256",
          "name": "",
          "type": "uint256"
        }
      ],
      "stateMutability": "view",
      "type": "function",
      "constant": true
    },
    {
      "inputs": [
        {
          "internalType": "string",
          "name": "_id",
          "type": "string"
        },
        {
          "internalType": "string",
          "name": "_candidateName",
          "type": "string"
        },
        {
          "internalType": "string",
          "name": "_party",
          "type": "string"
        },
        {
          "internalType": "string",
          "name": "__candidateEmail",
          "type": "string"
        },
        {
          "internalType": "string",
          "name": "_candidateFatherName",
          "type": "string"
        },
        {
          "internalType": "string",
          "name": "_candidateMobile",
          "type": "string"
        },
        {
          "internalType": "string",
          "name": "_candidateAddress",
          "type": "string"
        },
        {
          "internalType": "string",
          "name": "_candidateDOB",
          "type": "string"
        },
        {
          "internalType": "string",
          "name": "_candidateGender",
          "type": "string"
        }
      ],
      "name": "registerCandidate",
      "outputs": [],
      "stateMutability": "nonpayable",
      "type": "function"
    },
    {
      "inputs": [
        {
          "internalType": "string",
          "name": "_id",
          "type": "string"
        }
      ],
      "name": "showCandidateInfo",
      "outputs": [
        {
          "components": [
            {
              "internalType": "string",
              "name": "id",
              "type": "string"
            },
            {
              "internalType": "string",
              "name": "candidateName",
              "type": "string"
            },
            {
              "internalType": "string",
              "name": "partyName",
              "type": "string"
            },
            {
              "internalType": "string",
              "name": "candidateEmail",
              "type": "string"
            },
            {
              "internalType": "string",
              "name": "candidateFatherName",
              "type": "string"
            },
            {
              "internalType": "string",
              "name": "candidateMobile",
              "type": "string"
            },
            {
              "internalType": "string",
              "name": "candidateAddress",
              "type": "string"
            },
            {
              "internalType": "string",
              "name": "candidateDOB",
              "type": "string"
            },
            {
              "internalType": "string",
              "name": "candidateGender",
              "type": "string"
            }
          ],
          "internalType": "struct election.candidateInfo",
          "name": "",
          "type": "tuple"
        }
      ],
      "stateMutability": "view",
      "type": "function",
      "constant": true
    },
    {
      "inputs": [],
      "name": "totalCandidates",
      "outputs": [
        {
          "internalType": "uint256",
          "name": "",
          "type": "uint256"
        }
      ],
      "stateMutability": "view",
      "type": "function",
      "constant": true
    },
    {
      "inputs": [
        {
          "internalType": "uint256",
          "name": "_index",
          "type": "uint256"
        }
      ],
      "name": "fetchCandidateByIndex",
      "outputs": [
        {
          "components": [
            {
              "internalType": "string",
              "name": "id",
              "type": "string"
            },
            {
              "internalType": "string",
              "name": "candidateName",
              "type": "string"
            },
            {
              "internalType": "string",
              "name": "partyName",
              "type": "string"
            },
            {
              "internalType": "string",
              "name": "candidateEmail",
              "type": "string"
            },
            {
              "internalType": "string",
              "name": "candidateFatherName",
              "type": "string"
            },
            {
              "internalType": "string",
              "name": "candidateMobile",
              "type": "string"
            },
            {
              "internalType": "string",
              "name": "candidateAddress",
              "type": "string"
            },
            {
              "internalType": "string",
              "name": "candidateDOB",
              "type": "string"
            },
            {
              "internalType": "string",
              "name": "candidateGender",
              "type": "string"
            }
          ],
          "internalType": "struct election.candidateInfo",
          "name": "",
          "type": "tuple"
        }
      ],
      "stateMutability": "view",
      "type": "function",
      "constant": true
    }
  ],
  "bytecode": "0x608060405234801561001057600080fd5b506120da806100206000396000f3fe608060405234801561001057600080fd5b50600436106100935760003560e01c80635291024111610066578063529102411461014657806358ba9aad146101765780635f5300ff146101a6578063cb9dfaa5146101c4578063e69906ac146101e057610093565b806310430374146100985780631f5fb391146100c857806324d69dcd146100f85780633866965c14610128575b600080fd5b6100b260048036038101906100ad9190611853565b6101fc565b6040516100bf9190611a21565b60405180910390f35b6100e260048036038101906100dd9190611853565b610779565b6040516100ef9190611a5c565b60405180910390f35b610112600480360381019061010d9190611853565b6107a7565b60405161011f9190611b88565b60405180910390f35b610130610cad565b60405161013d9190611a5c565b60405180910390f35b610160600480360381019061015b9190611853565b610cba565b60405161016d9190611a5c565b60405180910390f35b610190600480360381019061018b9190611bd6565b610ce8565b60405161019d9190611a21565b60405180910390f35b6101ae611247565b6040516101bb9190611a5c565b60405180910390f35b6101de60048036038101906101d99190611c03565b611253565b005b6101fa60048036038101906101f59190611d99565b61140a565b005b6102046115bc565b60026003836040516102169190611f9b565b9081526020016040518091039020548154811061023657610235611fb2565b5b90600052602060002090600902016040518061012001604052908160008201805461026090612010565b80601f016020809104026020016040519081016040528092919081815260200182805461028c90612010565b80156102d95780601f106102ae576101008083540402835291602001916102d9565b820191906000526020600020905b8154815290600101906020018083116102bc57829003601f168201915b505050505081526020016001820180546102f290612010565b80601f016020809104026020016040519081016040528092919081815260200182805461031e90612010565b801561036b5780601f106103405761010080835404028352916020019161036b565b820191906000526020600020905b81548152906001019060200180831161034e57829003601f168201915b5050505050815260200160028201805461038490612010565b80601f01602080910402602001604051908101604052809291908181526020018280546103b090612010565b80156103fd5780601f106103d2576101008083540402835291602001916103fd565b820191906000526020600020905b8154815290600101906020018083116103e057829003601f168201915b5050505050815260200160038201805461041690612010565b80601f016020809104026020016040519081016040528092919081815260200182805461044290612010565b801561048f5780601f106104645761010080835404028352916020019161048f565b820191906000526020600020905b81548152906001019060200180831161047257829003601f168201915b505050505081526020016004820180546104a890612010565b80601f01602080910402602001604051908101604052809291908181526020018280546104d490612010565b80156105215780601f106104f657610100808354040283529160200191610521565b820191906000526020600020905b81548152906001019060200180831161050457829003601f168201915b5050505050815260200160058201805461053a90612010565b80601f016020809104026020016040519081016040528092919081815260200182805461056690612010565b80156105b35780601f10610588576101008083540402835291602001916105b3565b820191906000526020600020905b81548152906001019060200180831161059657829003601f168201915b505050505081526020016006820180546105cc90612010565b80601f01602080910402602001604051908101604052809291908181526020018280546105f890612010565b80156106455780601f1061061a57610100808354040283529160200191610645565b820191906000526020600020905b81548152906001019060200180831161062857829003601f168201915b5050505050815260200160078201805461065e90612010565b80601f016020809104026020016040519081016040528092919081815260200182805461068a90612010565b80156106d75780601f106106ac576101008083540402835291602001916106d7565b820191906000526020600020905b8154815290600101906020018083116106ba57829003601f168201915b505050505081526020016008820180546106f090612010565b80601f016020809104026020016040519081016040528092919081815260200182805461071c90612010565b80156107695780601f1061073e57610100808354040283529160200191610769565b820191906000526020600020905b81548152906001019060200180831161074c57829003601f168201915b5050505050815250509050919050565b6001818051602081018201805184825260208301602085012081835280955050505050506000915090505481565b6107af611608565b60006001836040516107c19190611f9b565b908152602001604051809103902054815481106107e1576107e0611fb2565b5b90600052602060002090600902016040518061012001604052908160008201805461080b90612010565b80601f016020809104026020016040519081016040528092919081815260200182805461083790612010565b80156108845780601f1061085957610100808354040283529160200191610884565b820191906000526020600020905b81548152906001019060200180831161086757829003601f168201915b5050505050815260200160018201805461089d90612010565b80601f01602080910402602001604051908101604052809291908181526020018280546108c990612010565b80156109165780601f106108eb57610100808354040283529160200191610916565b820191906000526020600020905b8154815290600101906020018083116108f957829003601f168201915b5050505050815260200160028201805461092f90612010565b80601f016020809104026020016040519081016040528092919081815260200182805461095b90612010565b80156109a85780601f1061097d576101008083540402835291602001916109a8565b820191906000526020600020905b81548152906001019060200180831161098b57829003601f168201915b505050505081526020016003820180546109c190612010565b80601f01602080910402602001604051908101604052809291908181526020018280546109ed90612010565b8015610a3a5780601f10610a0f57610100808354040283529160200191610a3a565b820191906000526020600020905b815481529060010190602001808311610a1d57829003601f168201915b50505050508152602001600482018054610a5390612010565b80601f0160208091040260200160405190810160405280929190818152602001828054610a7f90612010565b8015610acc5780601f10610aa157610100808354040283529160200191610acc565b820191906000526020600020905b815481529060010190602001808311610aaf57829003601f168201915b50505050508152602001600582018054610ae590612010565b80601f0160208091040260200160405190810160405280929190818152602001828054610b1190612010565b8015610b5e5780601f10610b3357610100808354040283529160200191610b5e565b820191906000526020600020905b815481529060010190602001808311610b4157829003601f168201915b50505050508152602001600682018054610b7790612010565b80601f0160208091040260200160405190810160405280929190818152602001828054610ba390612010565b8015610bf05780601f10610bc557610100808354040283529160200191610bf0565b820191906000526020600020905b815481529060010190602001808311610bd357829003601f168201915b50505050508152602001600782018054610c0990612010565b80601f0160208091040260200160405190810160405280929190818152602001828054610c3590612010565b8015610c825780601f10610c5757610100808354040283529160200191610c82565b820191906000526020600020905b815481529060010190602001808311610c6557829003601f168201915b505050505081526020016008820160009054906101000a900460ff1615151515815250509050919050565b6000600280549050905090565b6003818051602081018201805184825260208301602085012081835280955050505050506000915090505481565b610cf06115bc565b60028281548110610d0457610d03611fb2565b5b906000526020600020906009020160405180610120016040529081600082018054610d2e90612010565b80601f0160208091040260200160405190810160405280929190818152602001828054610d5a90612010565b8015610da75780601f10610d7c57610100808354040283529160200191610da7565b820191906000526020600020905b815481529060010190602001808311610d8a57829003601f168201915b50505050508152602001600182018054610dc090612010565b80601f0160208091040260200160405190810160405280929190818152602001828054610dec90612010565b8015610e395780601f10610e0e57610100808354040283529160200191610e39565b820191906000526020600020905b815481529060010190602001808311610e1c57829003601f168201915b50505050508152602001600282018054610e5290612010565b80601f0160208091040260200160405190810160405280929190818152602001828054610e7e90612010565b8015610ecb5780601f10610ea057610100808354040283529160200191610ecb565b820191906000526020600020905b815481529060010190602001808311610eae57829003601f168201915b50505050508152602001600382018054610ee490612010565b80601f0160208091040260200160405190810160405280929190818152602001828054610f1090612010565b8015610f5d5780601f10610f3257610100808354040283529160200191610f5d565b820191906000526020600020905b815481529060010190602001808311610f4057829003601f168201915b50505050508152602001600482018054610f7690612010565b80601f0160208091040260200160405190810160405280929190818152602001828054610fa290612010565b8015610fef5780601f10610fc457610100808354040283529160200191610fef565b820191906000526020600020905b815481529060010190602001808311610fd257829003601f168201915b5050505050815260200160058201805461100890612010565b80601f016020809104026020016040519081016040528092919081815260200182805461103490612010565b80156110815780601f1061105657610100808354040283529160200191611081565b820191906000526020600020905b81548152906001019060200180831161106457829003601f168201915b5050505050815260200160068201805461109a90612010565b80601f01602080910402602001604051908101604052809291908181526020018280546110c690612010565b80156111135780601f106110e857610100808354040283529160200191611113565b820191906000526020600020905b8154815290600101906020018083116110f657829003601f168201915b5050505050815260200160078201805461112c90612010565b80601f016020809104026020016040519081016040528092919081815260200182805461115890612010565b80156111a55780601f1061117a576101008083540402835291602001916111a5565b820191906000526020600020905b81548152906001019060200180831161118857829003601f168201915b505050505081526020016008820180546111be90612010565b80601f01602080910402602001604051908101604052809291908181526020018280546111ea90612010565b80156112375780601f1061120c57610100808354040283529160200191611237565b820191906000526020600020905b81548152906001019060200180831161121a57829003601f168201915b5050505050815250509050919050565b60008080549050905090565b60006040518061012001604052808a815260200189815260200188815260200187815260200186815260200185815260200184815260200183815260200160001515815250908060018154018082558091505060019003906000526020600020906009020160009091909190915060008201518160000190805190602001906112dd929190611656565b5060208201518160010190805190602001906112fa929190611656565b506040820151816002019080519060200190611317929190611656565b506060820151816003019080519060200190611334929190611656565b506080820151816004019080519060200190611351929190611656565b5060a082015181600501908051906020019061136e929190611656565b5060c082015181600601908051906020019061138b929190611656565b5060e08201518160070190805190602001906113a8929190611656565b506101008201518160080160006101000a81548160ff021916908315150217905550505060016000805490506113de9190612070565b6001896040516113ee9190611f9b565b9081526020016040518091039020819055505050505050505050565b60026040518061012001604052808b81526020018a81526020018981526020018881526020018781526020018681526020018581526020018481526020018381525090806001815401808255809150506001900390600052602060002090600902016000909190919091506000820151816000019080519060200190611491929190611656565b5060208201518160010190805190602001906114ae929190611656565b5060408201518160020190805190602001906114cb929190611656565b5060608201518160030190805190602001906114e8929190611656565b506080820151816004019080519060200190611505929190611656565b5060a0820151816005019080519060200190611522929190611656565b5060c082015181600601908051906020019061153f929190611656565b5060e082015181600701908051906020019061155c929190611656565b5061010082015181600801908051906020019061157a929190611656565b505050600160028054905061158f9190612070565b60038a60405161159f9190611f9b565b908152602001604051809103902081905550505050505050505050565b6040518061012001604052806060815260200160608152602001606081526020016060815260200160608152602001606081526020016060815260200160608152602001606081525090565b60405180610120016040528060608152602001606081526020016060815260200160608152602001606081526020016060815260200160608152602001606081526020016000151581525090565b82805461166290612010565b90600052602060002090601f01602090048101928261168457600085556116cb565b82601f1061169d57805160ff19168380011785556116cb565b828001600101855582156116cb579182015b828111156116ca5782518255916020019190600101906116af565b5b5090506116d891906116dc565b5090565b5b808211156116f55760008160009055506001016116dd565b5090565b6000604051905090565b600080fd5b600080fd5b600080fd5b600080fd5b6000601f19601f8301169050919050565b7f4e487b7100000000000000000000000000000000000000000000000000000000600052604160045260246000fd5b61176082611717565b810181811067ffffffffffffffff8211171561177f5761177e611728565b5b80604052505050565b60006117926116f9565b905061179e8282611757565b919050565b600067ffffffffffffffff8211156117be576117bd611728565b5b6117c782611717565b9050602081019050919050565b82818337600083830152505050565b60006117f66117f1846117a3565b611788565b90508281526020810184848401111561181257611811611712565b5b61181d8482856117d4565b509392505050565b600082601f83011261183a5761183961170d565b5b813561184a8482602086016117e3565b91505092915050565b60006020828403121561186957611868611703565b5b600082013567ffffffffffffffff81111561188757611886611708565b5b61189384828501611825565b91505092915050565b600081519050919050565b600082825260208201905092915050565b60005b838110156118d65780820151818401526020810190506118bb565b838111156118e5576000848401525b50505050565b60006118f68261189c565b61190081856118a7565b93506119108185602086016118b8565b61191981611717565b840191505092915050565b600061012083016000830151848203600086015261194282826118eb565b9150506020830151848203602086015261195c82826118eb565b9150506040830151848203604086015261197682826118eb565b9150506060830151848203606086015261199082826118eb565b915050608083015184820360808601526119aa82826118eb565b91505060a083015184820360a08601526119c482826118eb565b91505060c083015184820360c08601526119de82826118eb565b91505060e083015184820360e08601526119f882826118eb565b915050610100830151848203610100860152611a1482826118eb565b9150508091505092915050565b60006020820190508181036000830152611a3b8184611924565b905092915050565b6000819050919050565b611a5681611a43565b82525050565b6000602082019050611a716000830184611a4d565b92915050565b60008115159050919050565b611a8c81611a77565b82525050565b6000610120830160008301518482036000860152611ab082826118eb565b91505060208301518482036020860152611aca82826118eb565b91505060408301518482036040860152611ae482826118eb565b91505060608301518482036060860152611afe82826118eb565b91505060808301518482036080860152611b1882826118eb565b91505060a083015184820360a0860152611b3282826118eb565b91505060c083015184820360c0860152611b4c82826118eb565b91505060e083015184820360e0860152611b6682826118eb565b915050610100830151611b7d610100860182611a83565b508091505092915050565b60006020820190508181036000830152611ba28184611a92565b905092915050565b611bb381611a43565b8114611bbe57600080fd5b50565b600081359050611bd081611baa565b92915050565b600060208284031215611bec57611beb611703565b5b6000611bfa84828501611bc1565b91505092915050565b600080600080600080600080610100898b031215611c2457611c23611703565b5b600089013567ffffffffffffffff811115611c4257611c41611708565b5b611c4e8b828c01611825565b985050602089013567ffffffffffffffff811115611c6f57611c6e611708565b5b611c7b8b828c01611825565b975050604089013567ffffffffffffffff811115611c9c57611c9b611708565b5b611ca88b828c01611825565b965050606089013567ffffffffffffffff811115611cc957611cc8611708565b5b611cd58b828c01611825565b955050608089013567ffffffffffffffff811115611cf657611cf5611708565b5b611d028b828c01611825565b94505060a089013567ffffffffffffffff811115611d2357611d22611708565b5b611d2f8b828c01611825565b93505060c089013567ffffffffffffffff811115611d5057611d4f611708565b5b611d5c8b828c01611825565b92505060e089013567ffffffffffffffff811115611d7d57611d7c611708565b5b611d898b828c01611825565b9150509295985092959890939650565b60008060008060008060008060006101208a8c031215611dbc57611dbb611703565b5b60008a013567ffffffffffffffff811115611dda57611dd9611708565b5b611de68c828d01611825565b99505060208a013567ffffffffffffffff811115611e0757611e06611708565b5b611e138c828d01611825565b98505060408a013567ffffffffffffffff811115611e3457611e33611708565b5b611e408c828d01611825565b97505060608a013567ffffffffffffffff811115611e6157611e60611708565b5b611e6d8c828d01611825565b96505060808a013567ffffffffffffffff811115611e8e57611e8d611708565b5b611e9a8c828d01611825565b95505060a08a013567ffffffffffffffff811115611ebb57611eba611708565b5b611ec78c828d01611825565b94505060c08a013567ffffffffffffffff811115611ee857611ee7611708565b5b611ef48c828d01611825565b93505060e08a013567ffffffffffffffff811115611f1557611f14611708565b5b611f218c828d01611825565b9250506101008a013567ffffffffffffffff811115611f4357611f42611708565b5b611f4f8c828d01611825565b9150509295985092959850929598565b600081905092915050565b6000611f758261189c565b611f7f8185611f5f565b9350611f8f8185602086016118b8565b80840191505092915050565b6000611fa78284611f6a565b915081905092915050565b7f4e487b7100000000000000000000000000000000000000000000000000000000600052603260045260246000fd5b7f4e487b7100000000000000000000000000000000000000000000000000000000600052602260045260246000fd5b6000600282049050600182168061202857607f821691505b60208210810361203b5761203a611fe1565b5b50919050565b7f4e487b7100000000000000000000000000000000000000000000000000000000600052601160045260246000fd5b600061207b82611a43565b915061208683611a43565b92508282101561209957612098612041565b5b82820390509291505056fea26469706673582212201863378bd7776ef6281bb201b03161945d2ef916c4d004a4074b1636e53c309964736f6c634300080e0033",
  "immutableReferences": {},
  "source": "//SPDX-License-Identifier: MIT\npragma solidity ^0.8.0;\n\n\ncontract election\n{\n\n    // voter info structure\n    struct voterInfo\n    {\n        string epic;\n        string voterName;\n        string voterFatherName;\n        string voterEmail;\n        string voterMobile;\n        string voterDOB;\n        string voterAddress;\n        string voterGender;\n        bool isVoted;\n    }\n\n    voterInfo[] allVoters;\n    mapping(string => uint) public voterSearch ;      // epic => index\n\n    // stores voter info on blockchain\n    function registerVoter(string memory _epic,string memory _voterName,string memory _voterFatherName,string memory _voterEmail,string memory _voterMobile,string memory _voterDOB,string memory _voterAddress,string memory _voterGender) public \n    {\n        allVoters.push(voterInfo(_epic,_voterName,_voterFatherName,_voterEmail,_voterMobile,_voterDOB,_voterAddress,_voterGender,false));\n        voterSearch[_epic]=allVoters.length-1;\n    }\n    \n    // reterive voter info from blockchain\n    function showVoterInfo(string memory _epic) view public returns(voterInfo memory)\n    {\n        return allVoters[voterSearch[_epic]];\n    }\n\n    // count total voters\n    function totalVoters() view public  returns(uint)\n    {\n        return allVoters.length;\n    }\n\n\n    // candidate info structure\n    struct candidateInfo\n    {\n        string id;\n        string candidateName;\n        string partyName;\n        string candidateEmail;\n        string candidateFatherName;\n        string candidateMobile;\n        string candidateAddress;\n        string candidateDOB;\n        string candidateGender;\n        \n    }\n\n    candidateInfo[] allCandidates;\n    mapping(string => uint) public candidateSearch ;      // id => index\n\n    // stores candidate info on blockchain\n    function registerCandidate(string memory _id,string memory _candidateName,string memory _party,string memory __candidateEmail,string memory _candidateFatherName,string memory _candidateMobile,string memory _candidateAddress,string memory _candidateDOB,string memory _candidateGender) public \n    {\n        allCandidates.push( candidateInfo(_id,_candidateName,_party,__candidateEmail,_candidateFatherName,_candidateMobile,_candidateAddress,_candidateDOB,_candidateGender) );\n        candidateSearch[_id]=allCandidates.length-1;\n    \n    }\n    \n    // reterive candidate info from blockchain\n    function showCandidateInfo(string memory _id) view public returns(candidateInfo memory)\n    {\n        return allCandidates[candidateSearch[_id]];\n    }\n\n    // count total candidates\n    function totalCandidates() view public  returns(uint)\n    {\n        return allCandidates.length;\n    }\n\n    function fetchCandidateByIndex(uint _index) view public returns(candidateInfo memory)\n    {\n        return allCandidates[_index];\n    }\n\n}",
  "sourcePath": "/home/blackrose/Abhishek/blockchain-voting/truffle/contracts/election.sol",
  "compiler": {
    "name": "solc",
    "version": "0.8.14+commit.80d49f37.Emscripten.clang"
  },
  "schemaVersion": "3.4.10",
  "updatedAt": "2022-10-03T07:45:03.526Z",
  "networkType": "ethereum",
  "devdoc": {
    "kind": "dev",
    "methods": {},
    "version": 1
  },
  "userdoc": {
    "kind": "user",
    "methods": {},
    "version": 1
  }
}