{
  "contractName": "election",
  "abi": [
    {
      "inputs": [
        {
          "internalType": "string",
          "name": "",
          "type": "string"
        }
      ],
      "name": "candidateSearch",
      "outputs": [
        {
          "internalType": "uint256",
          "name": "",
          "type": "uint256"
        }
      ],
      "stateMutability": "view",
      "type": "function",
      "constant": true
    },
    {
      "inputs": [
        {
          "internalType": "string",
          "name": "",
          "type": "string"
        }
      ],
      "name": "voterSearch",
      "outputs": [
        {
          "internalType": "uint256",
          "name": "",
          "type": "uint256"
        }
      ],
      "stateMutability": "view",
      "type": "function",
      "constant": true
    },
    {
      "inputs": [
        {
          "internalType": "string",
          "name": "_epic",
          "type": "string"
        },
        {
          "internalType": "string",
          "name": "_voterName",
          "type": "string"
        },
        {
          "internalType": "string",
          "name": "_voterFatherName",
          "type": "string"
        },
        {
          "internalType": "string",
          "name": "_voterEmail",
          "type": "string"
        },
        {
          "internalType": "string",
          "name": "_voterMobile",
          "type": "string"
        },
        {
          "internalType": "string",
          "name": "_voterDOB",
          "type": "string"
        },
        {
          "internalType": "string",
          "name": "_voterAddress",
          "type": "string"
        },
        {
          "internalType": "string",
          "name": "_voterGender",
          "type": "string"
        }
      ],
      "name": "registerVoter",
      "outputs": [],
      "stateMutability": "nonpayable",
      "type": "function"
    },
    {
      "inputs": [
        {
          "internalType": "string",
          "name": "_epic",
          "type": "string"
        }
      ],
      "name": "showVoterInfo",
      "outputs": [
        {
          "components": [
            {
              "internalType": "string",
              "name": "epic",
              "type": "string"
            },
            {
              "internalType": "string",
              "name": "voterName",
              "type": "string"
            },
            {
              "internalType": "string",
              "name": "voterFatherName",
              "type": "string"
            },
            {
              "internalType": "string",
              "name": "voterEmail",
              "type": "string"
            },
            {
              "internalType": "string",
              "name": "voterMobile",
              "type": "string"
            },
            {
              "internalType": "string",
              "name": "voterDOB",
              "type": "string"
            },
            {
              "internalType": "string",
              "name": "voterAddress",
              "type": "string"
            },
            {
              "internalType": "string",
              "name": "voterGender",
              "type": "string"
            },
            {
              "internalType": "bool",
              "name": "isVoted",
              "type": "bool"
            }
          ],
          "internalType": "struct election.voterInfo",
          "name": "",
          "type": "tuple"
        }
      ],
      "stateMutability": "view",
      "type": "function",
      "constant": true
    },
    {
      "inputs": [],
      "name": "totalVoters",
      "outputs": [
        {
          "internalType": "uint256",
          "name": "",
          "type": "uint256"
        }
      ],
      "stateMutability": "view",
      "type": "function",
      "constant": true
    },
    {
      "inputs": [
        {
          "internalType": "string",
          "name": "_id",
          "type": "string"
        },
        {
          "internalType": "string",
          "name": "_candidateName",
          "type": "string"
        },
        {
          "internalType": "string",
          "name": "_party",
          "type": "string"
        },
        {
          "internalType": "string",
          "name": "__candidateEmail",
          "type": "string"
        },
        {
          "internalType": "string",
          "name": "_candidateFatherName",
          "type": "string"
        },
        {
          "internalType": "string",
          "name": "_candidateMobile",
          "type": "string"
        },
        {
          "internalType": "string",
          "name": "_candidateAddress",
          "type": "string"
        },
        {
          "internalType": "string",
          "name": "_candidateDOB",
          "type": "string"
        },
        {
          "internalType": "string",
          "name": "_candidateGender",
          "type": "string"
        }
      ],
      "name": "registerCandidate",
      "outputs": [],
      "stateMutability": "nonpayable",
      "type": "function"
    },
    {
      "inputs": [
        {
          "internalType": "string",
          "name": "_id",
          "type": "string"
        }
      ],
      "name": "showCandidateInfo",
      "outputs": [
        {
          "components": [
            {
              "internalType": "string",
              "name": "id",
              "type": "string"
            },
            {
              "internalType": "string",
              "name": "candidateName",
              "type": "string"
            },
            {
              "internalType": "string",
              "name": "partyName",
              "type": "string"
            },
            {
              "internalType": "string",
              "name": "candidateEmail",
              "type": "string"
            },
            {
              "internalType": "string",
              "name": "candidateFatherName",
              "type": "string"
            },
            {
              "internalType": "string",
              "name": "candidateMobile",
              "type": "string"
            },
            {
              "internalType": "string",
              "name": "candidateAddress",
              "type": "string"
            },
            {
              "internalType": "string",
              "name": "candidateDOB",
              "type": "string"
            },
            {
              "internalType": "string",
              "name": "candidateGender",
              "type": "string"
            },
            {
              "internalType": "uint256",
              "name": "totalVotes",
              "type": "uint256"
            }
          ],
          "internalType": "struct election.candidateInfo",
          "name": "",
          "type": "tuple"
        }
      ],
      "stateMutability": "view",
      "type": "function",
      "constant": true
    },
    {
      "inputs": [],
      "name": "totalCandidates",
      "outputs": [
        {
          "internalType": "uint256",
          "name": "",
          "type": "uint256"
        }
      ],
      "stateMutability": "view",
      "type": "function",
      "constant": true
    },
    {
      "inputs": [
        {
          "internalType": "uint256",
          "name": "_index",
          "type": "uint256"
        }
      ],
      "name": "fetchCandidateByIndex",
      "outputs": [
        {
          "components": [
            {
              "internalType": "string",
              "name": "id",
              "type": "string"
            },
            {
              "internalType": "string",
              "name": "candidateName",
              "type": "string"
            },
            {
              "internalType": "string",
              "name": "partyName",
              "type": "string"
            },
            {
              "internalType": "string",
              "name": "candidateEmail",
              "type": "string"
            },
            {
              "internalType": "string",
              "name": "candidateFatherName",
              "type": "string"
            },
            {
              "internalType": "string",
              "name": "candidateMobile",
              "type": "string"
            },
            {
              "internalType": "string",
              "name": "candidateAddress",
              "type": "string"
            },
            {
              "internalType": "string",
              "name": "candidateDOB",
              "type": "string"
            },
            {
              "internalType": "string",
              "name": "candidateGender",
              "type": "string"
            },
            {
              "internalType": "uint256",
              "name": "totalVotes",
              "type": "uint256"
            }
          ],
          "internalType": "struct election.candidateInfo",
          "name": "",
          "type": "tuple"
        }
      ],
      "stateMutability": "view",
      "type": "function",
      "constant": true
    },
    {
      "inputs": [
        {
          "internalType": "string",
          "name": "_id",
          "type": "string"
        }
      ],
      "name": "increaseVote",
      "outputs": [],
      "stateMutability": "nonpayable",
      "type": "function"
    }
  ],
  "bytecode": "0x608060405234801561001057600080fd5b50612206806100206000396000f3fe608060405234801561001057600080fd5b506004361061009e5760003560e01c806358ba9aad1161006657806358ba9aad146101815780635f5300ff146101b157806368aaf76a146101cf578063cb9dfaa5146101eb578063e69906ac146102075761009e565b806310430374146100a35780631f5fb391146100d357806324d69dcd146101035780633866965c146101335780635291024114610151575b600080fd5b6100bd60048036038101906100b89190611905565b610223565b6040516100ca9190611b01565b60405180910390f35b6100ed60048036038101906100e89190611905565b6107aa565b6040516100fa9190611b32565b60405180910390f35b61011d60048036038101906101189190611905565b6107d8565b60405161012a9190611c5e565b60405180910390f35b61013b610cde565b6040516101489190611b32565b60405180910390f35b61016b60048036038101906101669190611905565b610ceb565b6040516101789190611b32565b60405180910390f35b61019b60048036038101906101969190611cac565b610d19565b6040516101a89190611b01565b60405180910390f35b6101b9611282565b6040516101c69190611b32565b60405180910390f35b6101e960048036038101906101e49190611905565b61128e565b005b61020560048036038101906102009190611cd9565b6112ec565b005b610221600480360381019061021c9190611e6f565b6114a3565b005b61022b611667565b600260038360405161023d9190612071565b9081526020016040518091039020548154811061025d5761025c612088565b5b90600052602060002090600a020160405180610140016040529081600082018054610287906120e6565b80601f01602080910402602001604051908101604052809291908181526020018280546102b3906120e6565b80156103005780601f106102d557610100808354040283529160200191610300565b820191906000526020600020905b8154815290600101906020018083116102e357829003601f168201915b50505050508152602001600182018054610319906120e6565b80601f0160208091040260200160405190810160405280929190818152602001828054610345906120e6565b80156103925780601f1061036757610100808354040283529160200191610392565b820191906000526020600020905b81548152906001019060200180831161037557829003601f168201915b505050505081526020016002820180546103ab906120e6565b80601f01602080910402602001604051908101604052809291908181526020018280546103d7906120e6565b80156104245780601f106103f957610100808354040283529160200191610424565b820191906000526020600020905b81548152906001019060200180831161040757829003601f168201915b5050505050815260200160038201805461043d906120e6565b80601f0160208091040260200160405190810160405280929190818152602001828054610469906120e6565b80156104b65780601f1061048b576101008083540402835291602001916104b6565b820191906000526020600020905b81548152906001019060200180831161049957829003601f168201915b505050505081526020016004820180546104cf906120e6565b80601f01602080910402602001604051908101604052809291908181526020018280546104fb906120e6565b80156105485780601f1061051d57610100808354040283529160200191610548565b820191906000526020600020905b81548152906001019060200180831161052b57829003601f168201915b50505050508152602001600582018054610561906120e6565b80601f016020809104026020016040519081016040528092919081815260200182805461058d906120e6565b80156105da5780601f106105af576101008083540402835291602001916105da565b820191906000526020600020905b8154815290600101906020018083116105bd57829003601f168201915b505050505081526020016006820180546105f3906120e6565b80601f016020809104026020016040519081016040528092919081815260200182805461061f906120e6565b801561066c5780601f106106415761010080835404028352916020019161066c565b820191906000526020600020905b81548152906001019060200180831161064f57829003601f168201915b50505050508152602001600782018054610685906120e6565b80601f01602080910402602001604051908101604052809291908181526020018280546106b1906120e6565b80156106fe5780601f106106d3576101008083540402835291602001916106fe565b820191906000526020600020905b8154815290600101906020018083116106e157829003601f168201915b50505050508152602001600882018054610717906120e6565b80601f0160208091040260200160405190810160405280929190818152602001828054610743906120e6565b80156107905780601f1061076557610100808354040283529160200191610790565b820191906000526020600020905b81548152906001019060200180831161077357829003601f168201915b505050505081526020016009820154815250509050919050565b6001818051602081018201805184825260208301602085012081835280955050505050506000915090505481565b6107e06116ba565b60006001836040516107f29190612071565b9081526020016040518091039020548154811061081257610811612088565b5b90600052602060002090600902016040518061012001604052908160008201805461083c906120e6565b80601f0160208091040260200160405190810160405280929190818152602001828054610868906120e6565b80156108b55780601f1061088a576101008083540402835291602001916108b5565b820191906000526020600020905b81548152906001019060200180831161089857829003601f168201915b505050505081526020016001820180546108ce906120e6565b80601f01602080910402602001604051908101604052809291908181526020018280546108fa906120e6565b80156109475780601f1061091c57610100808354040283529160200191610947565b820191906000526020600020905b81548152906001019060200180831161092a57829003601f168201915b50505050508152602001600282018054610960906120e6565b80601f016020809104026020016040519081016040528092919081815260200182805461098c906120e6565b80156109d95780601f106109ae576101008083540402835291602001916109d9565b820191906000526020600020905b8154815290600101906020018083116109bc57829003601f168201915b505050505081526020016003820180546109f2906120e6565b80601f0160208091040260200160405190810160405280929190818152602001828054610a1e906120e6565b8015610a6b5780601f10610a4057610100808354040283529160200191610a6b565b820191906000526020600020905b815481529060010190602001808311610a4e57829003601f168201915b50505050508152602001600482018054610a84906120e6565b80601f0160208091040260200160405190810160405280929190818152602001828054610ab0906120e6565b8015610afd5780601f10610ad257610100808354040283529160200191610afd565b820191906000526020600020905b815481529060010190602001808311610ae057829003601f168201915b50505050508152602001600582018054610b16906120e6565b80601f0160208091040260200160405190810160405280929190818152602001828054610b42906120e6565b8015610b8f5780601f10610b6457610100808354040283529160200191610b8f565b820191906000526020600020905b815481529060010190602001808311610b7257829003601f168201915b50505050508152602001600682018054610ba8906120e6565b80601f0160208091040260200160405190810160405280929190818152602001828054610bd4906120e6565b8015610c215780601f10610bf657610100808354040283529160200191610c21565b820191906000526020600020905b815481529060010190602001808311610c0457829003601f168201915b50505050508152602001600782018054610c3a906120e6565b80601f0160208091040260200160405190810160405280929190818152602001828054610c66906120e6565b8015610cb35780601f10610c8857610100808354040283529160200191610cb3565b820191906000526020600020905b815481529060010190602001808311610c9657829003601f168201915b505050505081526020016008820160009054906101000a900460ff1615151515815250509050919050565b6000600280549050905090565b6003818051602081018201805184825260208301602085012081835280955050505050506000915090505481565b610d21611667565b60028281548110610d3557610d34612088565b5b90600052602060002090600a020160405180610140016040529081600082018054610d5f906120e6565b80601f0160208091040260200160405190810160405280929190818152602001828054610d8b906120e6565b8015610dd85780601f10610dad57610100808354040283529160200191610dd8565b820191906000526020600020905b815481529060010190602001808311610dbb57829003601f168201915b50505050508152602001600182018054610df1906120e6565b80601f0160208091040260200160405190810160405280929190818152602001828054610e1d906120e6565b8015610e6a5780601f10610e3f57610100808354040283529160200191610e6a565b820191906000526020600020905b815481529060010190602001808311610e4d57829003601f168201915b50505050508152602001600282018054610e83906120e6565b80601f0160208091040260200160405190810160405280929190818152602001828054610eaf906120e6565b8015610efc5780601f10610ed157610100808354040283529160200191610efc565b820191906000526020600020905b815481529060010190602001808311610edf57829003601f168201915b50505050508152602001600382018054610f15906120e6565b80601f0160208091040260200160405190810160405280929190818152602001828054610f41906120e6565b8015610f8e5780601f10610f6357610100808354040283529160200191610f8e565b820191906000526020600020905b815481529060010190602001808311610f7157829003601f168201915b50505050508152602001600482018054610fa7906120e6565b80601f0160208091040260200160405190810160405280929190818152602001828054610fd3906120e6565b80156110205780601f10610ff557610100808354040283529160200191611020565b820191906000526020600020905b81548152906001019060200180831161100357829003601f168201915b50505050508152602001600582018054611039906120e6565b80601f0160208091040260200160405190810160405280929190818152602001828054611065906120e6565b80156110b25780601f10611087576101008083540402835291602001916110b2565b820191906000526020600020905b81548152906001019060200180831161109557829003601f168201915b505050505081526020016006820180546110cb906120e6565b80601f01602080910402602001604051908101604052809291908181526020018280546110f7906120e6565b80156111445780601f1061111957610100808354040283529160200191611144565b820191906000526020600020905b81548152906001019060200180831161112757829003601f168201915b5050505050815260200160078201805461115d906120e6565b80601f0160208091040260200160405190810160405280929190818152602001828054611189906120e6565b80156111d65780601f106111ab576101008083540402835291602001916111d6565b820191906000526020600020905b8154815290600101906020018083116111b957829003601f168201915b505050505081526020016008820180546111ef906120e6565b80601f016020809104026020016040519081016040528092919081815260200182805461121b906120e6565b80156112685780601f1061123d57610100808354040283529160200191611268565b820191906000526020600020905b81548152906001019060200180831161124b57829003601f168201915b505050505081526020016009820154815250509050919050565b60008080549050905090565b600160026003836040516112a29190612071565b908152602001604051809103902054815481106112c2576112c1612088565b5b90600052602060002090600a020160090160008282546112e29190612146565b9250508190555050565b60006040518061012001604052808a81526020018981526020018881526020018781526020018681526020018581526020018481526020018381526020016000151581525090806001815401808255809150506001900390600052602060002090600902016000909190919091506000820151816000019080519060200190611376929190611708565b506020820151816001019080519060200190611393929190611708565b5060408201518160020190805190602001906113b0929190611708565b5060608201518160030190805190602001906113cd929190611708565b5060808201518160040190805190602001906113ea929190611708565b5060a0820151816005019080519060200190611407929190611708565b5060c0820151816006019080519060200190611424929190611708565b5060e0820151816007019080519060200190611441929190611708565b506101008201518160080160006101000a81548160ff02191690831515021790555050506001600080549050611477919061219c565b6001896040516114879190612071565b9081526020016040518091039020819055505050505050505050565b60026040518061014001604052808b81526020018a8152602001898152602001888152602001878152602001868152602001858152602001848152602001838152602001600081525090806001815401808255809150506001900390600052602060002090600a02016000909190919091506000820151816000019080519060200190611531929190611708565b50602082015181600101908051906020019061154e929190611708565b50604082015181600201908051906020019061156b929190611708565b506060820151816003019080519060200190611588929190611708565b5060808201518160040190805190602001906115a5929190611708565b5060a08201518160050190805190602001906115c2929190611708565b5060c08201518160060190805190602001906115df929190611708565b5060e08201518160070190805190602001906115fc929190611708565b5061010082015181600801908051906020019061161a929190611708565b5061012082015181600901555050600160028054905061163a919061219c565b60038a60405161164a9190612071565b908152602001604051809103902081905550505050505050505050565b604051806101400160405280606081526020016060815260200160608152602001606081526020016060815260200160608152602001606081526020016060815260200160608152602001600081525090565b60405180610120016040528060608152602001606081526020016060815260200160608152602001606081526020016060815260200160608152602001606081526020016000151581525090565b828054611714906120e6565b90600052602060002090601f016020900481019282611736576000855561177d565b82601f1061174f57805160ff191683800117855561177d565b8280016001018555821561177d579182015b8281111561177c578251825591602001919060010190611761565b5b50905061178a919061178e565b5090565b5b808211156117a757600081600090555060010161178f565b5090565b6000604051905090565b600080fd5b600080fd5b600080fd5b600080fd5b6000601f19601f8301169050919050565b7f4e487b7100000000000000000000000000000000000000000000000000000000600052604160045260246000fd5b611812826117c9565b810181811067ffffffffffffffff82111715611831576118306117da565b5b80604052505050565b60006118446117ab565b90506118508282611809565b919050565b600067ffffffffffffffff8211156118705761186f6117da565b5b611879826117c9565b9050602081019050919050565b82818337600083830152505050565b60006118a86118a384611855565b61183a565b9050828152602081018484840111156118c4576118c36117c4565b5b6118cf848285611886565b509392505050565b600082601f8301126118ec576118eb6117bf565b5b81356118fc848260208601611895565b91505092915050565b60006020828403121561191b5761191a6117b5565b5b600082013567ffffffffffffffff811115611939576119386117ba565b5b611945848285016118d7565b91505092915050565b600081519050919050565b600082825260208201905092915050565b60005b8381101561198857808201518184015260208101905061196d565b83811115611997576000848401525b50505050565b60006119a88261194e565b6119b28185611959565b93506119c281856020860161196a565b6119cb816117c9565b840191505092915050565b6000819050919050565b6119e9816119d6565b82525050565b6000610140830160008301518482036000860152611a0d828261199d565b91505060208301518482036020860152611a27828261199d565b91505060408301518482036040860152611a41828261199d565b91505060608301518482036060860152611a5b828261199d565b91505060808301518482036080860152611a75828261199d565b91505060a083015184820360a0860152611a8f828261199d565b91505060c083015184820360c0860152611aa9828261199d565b91505060e083015184820360e0860152611ac3828261199d565b915050610100830151848203610100860152611adf828261199d565b915050610120830151611af66101208601826119e0565b508091505092915050565b60006020820190508181036000830152611b1b81846119ef565b905092915050565b611b2c816119d6565b82525050565b6000602082019050611b476000830184611b23565b92915050565b60008115159050919050565b611b6281611b4d565b82525050565b6000610120830160008301518482036000860152611b86828261199d565b91505060208301518482036020860152611ba0828261199d565b91505060408301518482036040860152611bba828261199d565b91505060608301518482036060860152611bd4828261199d565b91505060808301518482036080860152611bee828261199d565b91505060a083015184820360a0860152611c08828261199d565b91505060c083015184820360c0860152611c22828261199d565b91505060e083015184820360e0860152611c3c828261199d565b915050610100830151611c53610100860182611b59565b508091505092915050565b60006020820190508181036000830152611c788184611b68565b905092915050565b611c89816119d6565b8114611c9457600080fd5b50565b600081359050611ca681611c80565b92915050565b600060208284031215611cc257611cc16117b5565b5b6000611cd084828501611c97565b91505092915050565b600080600080600080600080610100898b031215611cfa57611cf96117b5565b5b600089013567ffffffffffffffff811115611d1857611d176117ba565b5b611d248b828c016118d7565b985050602089013567ffffffffffffffff811115611d4557611d446117ba565b5b611d518b828c016118d7565b975050604089013567ffffffffffffffff811115611d7257611d716117ba565b5b611d7e8b828c016118d7565b965050606089013567ffffffffffffffff811115611d9f57611d9e6117ba565b5b611dab8b828c016118d7565b955050608089013567ffffffffffffffff811115611dcc57611dcb6117ba565b5b611dd88b828c016118d7565b94505060a089013567ffffffffffffffff811115611df957611df86117ba565b5b611e058b828c016118d7565b93505060c089013567ffffffffffffffff811115611e2657611e256117ba565b5b611e328b828c016118d7565b92505060e089013567ffffffffffffffff811115611e5357611e526117ba565b5b611e5f8b828c016118d7565b9150509295985092959890939650565b60008060008060008060008060006101208a8c031215611e9257611e916117b5565b5b60008a013567ffffffffffffffff811115611eb057611eaf6117ba565b5b611ebc8c828d016118d7565b99505060208a013567ffffffffffffffff811115611edd57611edc6117ba565b5b611ee98c828d016118d7565b98505060408a013567ffffffffffffffff811115611f0a57611f096117ba565b5b611f168c828d016118d7565b97505060608a013567ffffffffffffffff811115611f3757611f366117ba565b5b611f438c828d016118d7565b96505060808a013567ffffffffffffffff811115611f6457611f636117ba565b5b611f708c828d016118d7565b95505060a08a013567ffffffffffffffff811115611f9157611f906117ba565b5b611f9d8c828d016118d7565b94505060c08a013567ffffffffffffffff811115611fbe57611fbd6117ba565b5b611fca8c828d016118d7565b93505060e08a013567ffffffffffffffff811115611feb57611fea6117ba565b5b611ff78c828d016118d7565b9250506101008a013567ffffffffffffffff811115612019576120186117ba565b5b6120258c828d016118d7565b9150509295985092959850929598565b600081905092915050565b600061204b8261194e565b6120558185612035565b935061206581856020860161196a565b80840191505092915050565b600061207d8284612040565b915081905092915050565b7f4e487b7100000000000000000000000000000000000000000000000000000000600052603260045260246000fd5b7f4e487b7100000000000000000000000000000000000000000000000000000000600052602260045260246000fd5b600060028204905060018216806120fe57607f821691505b602082108103612111576121106120b7565b5b50919050565b7f4e487b7100000000000000000000000000000000000000000000000000000000600052601160045260246000fd5b6000612151826119d6565b915061215c836119d6565b9250827fffffffffffffffffffffffffffffffffffffffffffffffffffffffffffffffff0382111561219157612190612117565b5b828201905092915050565b60006121a7826119d6565b91506121b2836119d6565b9250828210156121c5576121c4612117565b5b82820390509291505056fea2646970667358221220b08b5e64ff2e8b3c8241099a0481b79e85cd4a31346e887e59bb3f1fac5e8e2464736f6c634300080e0033",
  "immutableReferences": {},
  "source": "//SPDX-License-Identifier: MIT\npragma solidity ^0.8.0;\n\n\ncontract election\n{\n\n    // voter info structure\n    struct voterInfo\n    {\n        string epic;\n        string voterName;\n        string voterFatherName;\n        string voterEmail;\n        string voterMobile;\n        string voterDOB;\n        string voterAddress;\n        string voterGender;\n        bool isVoted;\n    }\n\n    voterInfo[] allVoters;\n    mapping(string => uint) public voterSearch ;      // epic => index\n\n    // stores voter info on blockchain\n    function registerVoter(string memory _epic,string memory _voterName,string memory _voterFatherName,string memory _voterEmail,string memory _voterMobile,string memory _voterDOB,string memory _voterAddress,string memory _voterGender) public \n    {\n        allVoters.push(voterInfo(_epic,_voterName,_voterFatherName,_voterEmail,_voterMobile,_voterDOB,_voterAddress,_voterGender,false));\n        voterSearch[_epic]=allVoters.length-1;\n    }\n    \n    // reterive voter info from blockchain\n    function showVoterInfo(string memory _epic) view public returns(voterInfo memory)\n    {\n        return allVoters[voterSearch[_epic]];\n    }\n\n    // count total voters\n    function totalVoters() view public  returns(uint)\n    {\n        return allVoters.length;\n    }\n\n\n    // candidate info structure\n    struct candidateInfo\n    {\n        string id;\n        string candidateName;\n        string partyName;\n        string candidateEmail;\n        string candidateFatherName;\n        string candidateMobile;\n        string candidateAddress;\n        string candidateDOB;\n        string candidateGender;\n        uint totalVotes;\n        \n    }\n\n    candidateInfo[] allCandidates;\n    mapping(string => uint) public candidateSearch ;      // id => index\n\n    // stores candidate info on blockchain\n    function registerCandidate(string memory _id,string memory _candidateName,string memory _party,string memory __candidateEmail,string memory _candidateFatherName,string memory _candidateMobile,string memory _candidateAddress,string memory _candidateDOB,string memory _candidateGender) public \n    {\n        allCandidates.push( candidateInfo(_id,_candidateName,_party,__candidateEmail,_candidateFatherName,_candidateMobile,_candidateAddress,_candidateDOB,_candidateGender,0) );\n        candidateSearch[_id]=allCandidates.length-1;\n    \n    }\n    \n    // reterive candidate info from blockchain\n    function showCandidateInfo(string memory _id) view public returns(candidateInfo memory)\n    {\n        return allCandidates[candidateSearch[_id]];\n    }\n\n    // count total candidates\n    function totalCandidates() view public  returns(uint)\n    {\n        return allCandidates.length;\n    }\n\n    function fetchCandidateByIndex(uint _index) view public returns(candidateInfo memory)\n    {\n        return allCandidates[_index];\n    }\n\n    //function checkVoted(string memory _epic) view public returns(bool)\n    //{\n      //  retuallVoters[voterSearch[_epic]].isVoted\n    //}\n    function increaseVote(string memory _id) public\n    {\n        allCandidates[candidateSearch[_id]].totalVotes+=1;\n    }\n\n}",
  "sourcePath": "/home/abhi/blockchain-voting/truffle/contracts/election.sol",
  "compiler": {
    "name": "solc",
    "version": "0.8.14+commit.80d49f37.Emscripten.clang"
  },
  "schemaVersion": "3.4.10",
  "updatedAt": "2022-10-27T06:58:53.094Z",
  "networkType": "ethereum",
  "devdoc": {
    "kind": "dev",
    "methods": {},
    "version": 1
  },
  "userdoc": {
    "kind": "user",
    "methods": {},
    "version": 1
  }
}