{
  "contractName": "election",
  "abi": [
    {
      "inputs": [],
      "stateMutability": "nonpayable",
      "type": "constructor"
    },
    {
      "inputs": [
        {
          "internalType": "string",
          "name": "",
          "type": "string"
        }
      ],
      "name": "candidateSearch",
      "outputs": [
        {
          "internalType": "uint256",
          "name": "",
          "type": "uint256"
        }
      ],
      "stateMutability": "view",
      "type": "function",
      "constant": true
    },
    {
      "inputs": [],
      "name": "currentID",
      "outputs": [
        {
          "internalType": "uint256",
          "name": "",
          "type": "uint256"
        }
      ],
      "stateMutability": "view",
      "type": "function",
      "constant": true
    },
    {
      "inputs": [
        {
          "internalType": "uint256",
          "name": "",
          "type": "uint256"
        }
      ],
      "name": "electionSearch",
      "outputs": [
        {
          "internalType": "uint256",
          "name": "",
          "type": "uint256"
        }
      ],
      "stateMutability": "view",
      "type": "function",
      "constant": true
    },
    {
      "inputs": [
        {
          "internalType": "string",
          "name": "",
          "type": "string"
        }
      ],
      "name": "electionSearchDistrict",
      "outputs": [
        {
          "internalType": "uint256",
          "name": "",
          "type": "uint256"
        }
      ],
      "stateMutability": "view",
      "type": "function",
      "constant": true
    },
    {
      "inputs": [
        {
          "internalType": "string",
          "name": "",
          "type": "string"
        }
      ],
      "name": "voterSearch",
      "outputs": [
        {
          "internalType": "uint256",
          "name": "",
          "type": "uint256"
        }
      ],
      "stateMutability": "view",
      "type": "function",
      "constant": true
    },
    {
      "inputs": [
        {
          "internalType": "string",
          "name": "_epic",
          "type": "string"
        },
        {
          "internalType": "string",
          "name": "_voterName",
          "type": "string"
        },
        {
          "internalType": "string",
          "name": "_voterFatherName",
          "type": "string"
        },
        {
          "internalType": "string",
          "name": "_voterEmail",
          "type": "string"
        },
        {
          "internalType": "string",
          "name": "_voterMobile",
          "type": "string"
        },
        {
          "internalType": "string",
          "name": "_voterDOB",
          "type": "string"
        },
        {
          "internalType": "string",
          "name": "_voterDistrict",
          "type": "string"
        },
        {
          "internalType": "string",
          "name": "_voterGender",
          "type": "string"
        }
      ],
      "name": "registerVoter",
      "outputs": [],
      "stateMutability": "nonpayable",
      "type": "function"
    },
    {
      "inputs": [
        {
          "internalType": "string",
          "name": "_epic",
          "type": "string"
        }
      ],
      "name": "showVoterInfo",
      "outputs": [
        {
          "components": [
            {
              "internalType": "string",
              "name": "epic",
              "type": "string"
            },
            {
              "internalType": "string",
              "name": "voterName",
              "type": "string"
            },
            {
              "internalType": "string",
              "name": "voterFatherName",
              "type": "string"
            },
            {
              "internalType": "string",
              "name": "voterEmail",
              "type": "string"
            },
            {
              "internalType": "string",
              "name": "voterMobile",
              "type": "string"
            },
            {
              "internalType": "string",
              "name": "voterDOB",
              "type": "string"
            },
            {
              "internalType": "string",
              "name": "voterDistrict",
              "type": "string"
            },
            {
              "internalType": "string",
              "name": "voterGender",
              "type": "string"
            },
            {
              "internalType": "bool",
              "name": "isVoted",
              "type": "bool"
            }
          ],
          "internalType": "struct election.voterInfo",
          "name": "",
          "type": "tuple"
        }
      ],
      "stateMutability": "view",
      "type": "function",
      "constant": true
    },
    {
      "inputs": [],
      "name": "totalVoters",
      "outputs": [
        {
          "internalType": "uint256",
          "name": "",
          "type": "uint256"
        }
      ],
      "stateMutability": "view",
      "type": "function",
      "constant": true
    },
    {
      "inputs": [
        {
          "internalType": "string",
          "name": "_id",
          "type": "string"
        },
        {
          "internalType": "string",
          "name": "_candidateName",
          "type": "string"
        },
        {
          "internalType": "string",
          "name": "_party",
          "type": "string"
        },
        {
          "internalType": "string",
          "name": "__candidateEmail",
          "type": "string"
        },
        {
          "internalType": "string",
          "name": "_candidateFatherName",
          "type": "string"
        },
        {
          "internalType": "string",
          "name": "_candidateMobile",
          "type": "string"
        },
        {
          "internalType": "string",
          "name": "_candidateDistrict",
          "type": "string"
        },
        {
          "internalType": "string",
          "name": "_candidateDOB",
          "type": "string"
        },
        {
          "internalType": "string",
          "name": "_candidateGender",
          "type": "string"
        }
      ],
      "name": "registerCandidate",
      "outputs": [],
      "stateMutability": "nonpayable",
      "type": "function"
    },
    {
      "inputs": [
        {
          "internalType": "string",
          "name": "_id",
          "type": "string"
        }
      ],
      "name": "showCandidateInfo",
      "outputs": [
        {
          "components": [
            {
              "internalType": "string",
              "name": "id",
              "type": "string"
            },
            {
              "internalType": "string",
              "name": "candidateName",
              "type": "string"
            },
            {
              "internalType": "string",
              "name": "partyName",
              "type": "string"
            },
            {
              "internalType": "string",
              "name": "candidateEmail",
              "type": "string"
            },
            {
              "internalType": "string",
              "name": "candidateFatherName",
              "type": "string"
            },
            {
              "internalType": "string",
              "name": "candidateMobile",
              "type": "string"
            },
            {
              "internalType": "string",
              "name": "candidateDistrict",
              "type": "string"
            },
            {
              "internalType": "string",
              "name": "candidateDOB",
              "type": "string"
            },
            {
              "internalType": "string",
              "name": "candidateGender",
              "type": "string"
            },
            {
              "internalType": "uint256",
              "name": "totalVotes",
              "type": "uint256"
            }
          ],
          "internalType": "struct election.candidateInfo",
          "name": "",
          "type": "tuple"
        }
      ],
      "stateMutability": "view",
      "type": "function",
      "constant": true
    },
    {
      "inputs": [],
      "name": "totalCandidates",
      "outputs": [
        {
          "internalType": "uint256",
          "name": "",
          "type": "uint256"
        }
      ],
      "stateMutability": "view",
      "type": "function",
      "constant": true
    },
    {
      "inputs": [
        {
          "internalType": "uint256",
          "name": "_index",
          "type": "uint256"
        }
      ],
      "name": "fetchCandidateByIndex",
      "outputs": [
        {
          "components": [
            {
              "internalType": "string",
              "name": "id",
              "type": "string"
            },
            {
              "internalType": "string",
              "name": "candidateName",
              "type": "string"
            },
            {
              "internalType": "string",
              "name": "partyName",
              "type": "string"
            },
            {
              "internalType": "string",
              "name": "candidateEmail",
              "type": "string"
            },
            {
              "internalType": "string",
              "name": "candidateFatherName",
              "type": "string"
            },
            {
              "internalType": "string",
              "name": "candidateMobile",
              "type": "string"
            },
            {
              "internalType": "string",
              "name": "candidateDistrict",
              "type": "string"
            },
            {
              "internalType": "string",
              "name": "candidateDOB",
              "type": "string"
            },
            {
              "internalType": "string",
              "name": "candidateGender",
              "type": "string"
            },
            {
              "internalType": "uint256",
              "name": "totalVotes",
              "type": "uint256"
            }
          ],
          "internalType": "struct election.candidateInfo",
          "name": "",
          "type": "tuple"
        }
      ],
      "stateMutability": "view",
      "type": "function",
      "constant": true
    },
    {
      "inputs": [
        {
          "internalType": "string",
          "name": "_id",
          "type": "string"
        }
      ],
      "name": "increaseVote",
      "outputs": [],
      "stateMutability": "nonpayable",
      "type": "function"
    },
    {
      "inputs": [],
      "name": "incrementCurrentID",
      "outputs": [],
      "stateMutability": "nonpayable",
      "type": "function"
    },
    {
      "inputs": [
        {
          "internalType": "string",
          "name": "_electionName",
          "type": "string"
        },
        {
          "internalType": "string",
          "name": "_electionDistrict",
          "type": "string"
        },
        {
          "internalType": "string",
          "name": "_electionDate",
          "type": "string"
        },
        {
          "internalType": "string",
          "name": "_electionStartingTime",
          "type": "string"
        },
        {
          "internalType": "string",
          "name": "_electionEndingTime",
          "type": "string"
        }
      ],
      "name": "createElection",
      "outputs": [],
      "stateMutability": "nonpayable",
      "type": "function"
    },
    {
      "inputs": [
        {
          "internalType": "uint256",
          "name": "_id",
          "type": "uint256"
        }
      ],
      "name": "showElectionInfo",
      "outputs": [
        {
          "components": [
            {
              "internalType": "uint256",
              "name": "id",
              "type": "uint256"
            },
            {
              "internalType": "string",
              "name": "electionName",
              "type": "string"
            },
            {
              "internalType": "string",
              "name": "electionDistrict",
              "type": "string"
            },
            {
              "internalType": "string",
              "name": "electionDate",
              "type": "string"
            },
            {
              "internalType": "string",
              "name": "startingTime",
              "type": "string"
            },
            {
              "internalType": "string",
              "name": "endingTime",
              "type": "string"
            },
            {
              "internalType": "uint256",
              "name": "totalVotes",
              "type": "uint256"
            }
          ],
          "internalType": "struct election.electionInfo",
          "name": "",
          "type": "tuple"
        }
      ],
      "stateMutability": "view",
      "type": "function",
      "constant": true
    },
    {
      "inputs": [
        {
          "internalType": "string",
          "name": "_district",
          "type": "string"
        }
      ],
      "name": "showElectionInfoByDistrict",
      "outputs": [
        {
          "components": [
            {
              "internalType": "uint256",
              "name": "id",
              "type": "uint256"
            },
            {
              "internalType": "string",
              "name": "electionName",
              "type": "string"
            },
            {
              "internalType": "string",
              "name": "electionDistrict",
              "type": "string"
            },
            {
              "internalType": "string",
              "name": "electionDate",
              "type": "string"
            },
            {
              "internalType": "string",
              "name": "startingTime",
              "type": "string"
            },
            {
              "internalType": "string",
              "name": "endingTime",
              "type": "string"
            },
            {
              "internalType": "uint256",
              "name": "totalVotes",
              "type": "uint256"
            }
          ],
          "internalType": "struct election.electionInfo",
          "name": "",
          "type": "tuple"
        }
      ],
      "stateMutability": "view",
      "type": "function",
      "constant": true
    }
  ],
  "bytecode": "0x608060405260006004553480156200001657600080fd5b50620000a76040518060200160405280600081525060405180602001604052806000815250604051806020016040528060008152506040518060200160405280600081525060405180602001604052806000815250604051806020016040528060008152506040518060200160405280600081525060405180602001604052806000815250620001ad60201b60201c565b620001476040518060200160405280600081525060405180602001604052806000815250604051806020016040528060008152506040518060200160405280600081525060405180602001604052806000815250604051806020016040528060008152506040518060200160405280600081525060405180602001604052806000815250604051806020016040528060008152506200037860201b60201c565b620001a760405180602001604052806000815250604051806020016040528060008152506040518060200160405280600081525060405180602001604052806000815250604051806020016040528060008152506200055260201b60201c565b6200097a565b60006040518061012001604052808a8152602001898152602001888152602001878152602001868152602001858152602001848152602001838152602001600015158152509080600181540180825580915050600190039060005260206000209060090201600090919091909150600082015181600001908051906020019062000239929190620006f9565b50602082015181600101908051906020019062000258929190620006f9565b50604082015181600201908051906020019062000277929190620006f9565b50606082015181600301908051906020019062000296929190620006f9565b506080820151816004019080519060200190620002b5929190620006f9565b5060a0820151816005019080519060200190620002d4929190620006f9565b5060c0820151816006019080519060200190620002f3929190620006f9565b5060e082015181600701908051906020019062000312929190620006f9565b506101008201518160080160006101000a81548160ff021916908315150217905550505060016000805490506200034a9190620007e2565b6001896040516200035c9190620008a0565b9081526020016040518091039020819055505050505050505050565b60026040518061014001604052808b81526020018a8152602001898152602001888152602001878152602001868152602001858152602001848152602001838152602001600081525090806001815401808255809150506001900390600052602060002090600a0201600090919091909150600082015181600001908051906020019062000408929190620006f9565b50602082015181600101908051906020019062000427929190620006f9565b50604082015181600201908051906020019062000446929190620006f9565b50606082015181600301908051906020019062000465929190620006f9565b50608082015181600401908051906020019062000484929190620006f9565b5060a0820151816005019080519060200190620004a3929190620006f9565b5060c0820151816006019080519060200190620004c2929190620006f9565b5060e0820151816007019080519060200190620004e1929190620006f9565b5061010082015181600801908051906020019062000501929190620006f9565b50610120820151816009015550506001600280549050620005239190620007e2565b60038a604051620005359190620008a0565b908152602001604051809103902081905550505050505050505050565b60056040518060e00160405280600454815260200187815260200186815260200185815260200184815260200183815260200160008152509080600181540180825580915050600190039060005260206000209060070201600090919091909150600082015181600001556020820151816001019080519060200190620005db929190620006f9565b506040820151816002019080519060200190620005fa929190620006f9565b50606082015181600301908051906020019062000619929190620006f9565b50608082015181600401908051906020019062000638929190620006f9565b5060a082015181600501908051906020019062000657929190620006f9565b5060c0820151816006015550506001600580549050620006789190620007e2565b600660006004548152602001908152602001600020819055506001600580549050620006a59190620007e2565b600785604051620006b79190620008a0565b908152602001604051809103902081905550620006d9620006e060201b60201c565b5050505050565b6001600454620006f19190620008b9565b600481905550565b828054620007079062000945565b90600052602060002090601f0160209004810192826200072b576000855562000777565b82601f106200074657805160ff191683800117855562000777565b8280016001018555821562000777579182015b828111156200077657825182559160200191906001019062000759565b5b5090506200078691906200078a565b5090565b5b80821115620007a55760008160009055506001016200078b565b5090565b6000819050919050565b7f4e487b7100000000000000000000000000000000000000000000000000000000600052601160045260246000fd5b6000620007ef82620007a9565b9150620007fc83620007a9565b925082821015620008125762000811620007b3565b5b828203905092915050565b600081519050919050565b600081905092915050565b60005b838110156200085357808201518184015260208101905062000836565b8381111562000863576000848401525b50505050565b600062000876826200081d565b62000882818562000828565b93506200089481856020860162000833565b80840191505092915050565b6000620008ae828462000869565b915081905092915050565b6000620008c682620007a9565b9150620008d383620007a9565b9250827fffffffffffffffffffffffffffffffffffffffffffffffffffffffffffffffff038211156200090b576200090a620007b3565b5b828201905092915050565b7f4e487b7100000000000000000000000000000000000000000000000000000000600052602260045260246000fd5b600060028204905060018216806200095e57607f821691505b60208210810362000974576200097362000916565b5b50919050565b612df3806200098a6000396000f3fe608060405234801561001057600080fd5b506004361061010b5760003560e01c806358ba9aad116100a257806363900bd21161007157806363900bd2146102e057806368aaf76a1461031057806370d7e8111461032c578063cb9dfaa51461035c578063e69906ac146103785761010b565b806358ba9aad146102585780635a7bc869146102885780635ba961fb146102b85780635f5300ff146102c25761010b565b806324d69dcd116100de57806324d69dcd146101be5780633866965c146101ee57806350efbc751461020c57806352910241146102285761010b565b806310430374146101105780631c75cfb4146101405780631ccba2dd1461015e5780631f5fb3911461018e575b600080fd5b61012a60048036038101906101259190612311565b610394565b604051610137919061250d565b60405180910390f35b61014861091b565b604051610155919061253e565b60405180910390f35b61017860048036038101906101739190612585565b610921565b604051610185919061266a565b60405180910390f35b6101a860048036038101906101a39190612311565b610c5e565b6040516101b5919061253e565b60405180910390f35b6101d860048036038101906101d39190612311565b610c8c565b6040516101e5919061279d565b60405180910390f35b6101f6611192565b604051610203919061253e565b60405180910390f35b610226600480360381019061022191906127bf565b61119f565b005b610242600480360381019061023d9190612311565b611315565b60405161024f919061253e565b60405180910390f35b610272600480360381019061026d9190612585565b611343565b60405161027f919061250d565b60405180910390f35b6102a2600480360381019061029d9190612311565b6118ac565b6040516102af919061266a565b60405180910390f35b6102c0611bf4565b005b6102ca611c0b565b6040516102d7919061253e565b60405180910390f35b6102fa60048036038101906102f59190612311565b611c17565b604051610307919061253e565b60405180910390f35b61032a60048036038101906103259190612311565b611c45565b005b61034660048036038101906103419190612585565b611ca3565b604051610353919061253e565b60405180910390f35b610376600480360381019061037191906128c6565b611cbb565b005b610392600480360381019061038d9190612a5c565b611e72565b005b61039c612036565b60026003836040516103ae9190612c5e565b908152602001604051809103902054815481106103ce576103cd612c75565b5b90600052602060002090600a0201604051806101400160405290816000820180546103f890612cd3565b80601f016020809104026020016040519081016040528092919081815260200182805461042490612cd3565b80156104715780601f1061044657610100808354040283529160200191610471565b820191906000526020600020905b81548152906001019060200180831161045457829003601f168201915b5050505050815260200160018201805461048a90612cd3565b80601f01602080910402602001604051908101604052809291908181526020018280546104b690612cd3565b80156105035780601f106104d857610100808354040283529160200191610503565b820191906000526020600020905b8154815290600101906020018083116104e657829003601f168201915b5050505050815260200160028201805461051c90612cd3565b80601f016020809104026020016040519081016040528092919081815260200182805461054890612cd3565b80156105955780601f1061056a57610100808354040283529160200191610595565b820191906000526020600020905b81548152906001019060200180831161057857829003601f168201915b505050505081526020016003820180546105ae90612cd3565b80601f01602080910402602001604051908101604052809291908181526020018280546105da90612cd3565b80156106275780601f106105fc57610100808354040283529160200191610627565b820191906000526020600020905b81548152906001019060200180831161060a57829003601f168201915b5050505050815260200160048201805461064090612cd3565b80601f016020809104026020016040519081016040528092919081815260200182805461066c90612cd3565b80156106b95780601f1061068e576101008083540402835291602001916106b9565b820191906000526020600020905b81548152906001019060200180831161069c57829003601f168201915b505050505081526020016005820180546106d290612cd3565b80601f01602080910402602001604051908101604052809291908181526020018280546106fe90612cd3565b801561074b5780601f106107205761010080835404028352916020019161074b565b820191906000526020600020905b81548152906001019060200180831161072e57829003601f168201915b5050505050815260200160068201805461076490612cd3565b80601f016020809104026020016040519081016040528092919081815260200182805461079090612cd3565b80156107dd5780601f106107b2576101008083540402835291602001916107dd565b820191906000526020600020905b8154815290600101906020018083116107c057829003601f168201915b505050505081526020016007820180546107f690612cd3565b80601f016020809104026020016040519081016040528092919081815260200182805461082290612cd3565b801561086f5780601f106108445761010080835404028352916020019161086f565b820191906000526020600020905b81548152906001019060200180831161085257829003601f168201915b5050505050815260200160088201805461088890612cd3565b80601f01602080910402602001604051908101604052809291908181526020018280546108b490612cd3565b80156109015780601f106108d657610100808354040283529160200191610901565b820191906000526020600020905b8154815290600101906020018083116108e457829003601f168201915b505050505081526020016009820154815250509050919050565b60045481565b610929612089565b60056006600084815260200190815260200160002054815481106109505761094f612c75565b5b90600052602060002090600702016040518060e00160405290816000820154815260200160018201805461098390612cd3565b80601f01602080910402602001604051908101604052809291908181526020018280546109af90612cd3565b80156109fc5780601f106109d1576101008083540402835291602001916109fc565b820191906000526020600020905b8154815290600101906020018083116109df57829003601f168201915b50505050508152602001600282018054610a1590612cd3565b80601f0160208091040260200160405190810160405280929190818152602001828054610a4190612cd3565b8015610a8e5780601f10610a6357610100808354040283529160200191610a8e565b820191906000526020600020905b815481529060010190602001808311610a7157829003601f168201915b50505050508152602001600382018054610aa790612cd3565b80601f0160208091040260200160405190810160405280929190818152602001828054610ad390612cd3565b8015610b205780601f10610af557610100808354040283529160200191610b20565b820191906000526020600020905b815481529060010190602001808311610b0357829003601f168201915b50505050508152602001600482018054610b3990612cd3565b80601f0160208091040260200160405190810160405280929190818152602001828054610b6590612cd3565b8015610bb25780601f10610b8757610100808354040283529160200191610bb2565b820191906000526020600020905b815481529060010190602001808311610b9557829003601f168201915b50505050508152602001600582018054610bcb90612cd3565b80601f0160208091040260200160405190810160405280929190818152602001828054610bf790612cd3565b8015610c445780601f10610c1957610100808354040283529160200191610c44565b820191906000526020600020905b815481529060010190602001808311610c2757829003601f168201915b505050505081526020016006820154815250509050919050565b6001818051602081018201805184825260208301602085012081835280955050505050506000915090505481565b610c946120c6565b6000600183604051610ca69190612c5e565b90815260200160405180910390205481548110610cc657610cc5612c75565b5b906000526020600020906009020160405180610120016040529081600082018054610cf090612cd3565b80601f0160208091040260200160405190810160405280929190818152602001828054610d1c90612cd3565b8015610d695780601f10610d3e57610100808354040283529160200191610d69565b820191906000526020600020905b815481529060010190602001808311610d4c57829003601f168201915b50505050508152602001600182018054610d8290612cd3565b80601f0160208091040260200160405190810160405280929190818152602001828054610dae90612cd3565b8015610dfb5780601f10610dd057610100808354040283529160200191610dfb565b820191906000526020600020905b815481529060010190602001808311610dde57829003601f168201915b50505050508152602001600282018054610e1490612cd3565b80601f0160208091040260200160405190810160405280929190818152602001828054610e4090612cd3565b8015610e8d5780601f10610e6257610100808354040283529160200191610e8d565b820191906000526020600020905b815481529060010190602001808311610e7057829003601f168201915b50505050508152602001600382018054610ea690612cd3565b80601f0160208091040260200160405190810160405280929190818152602001828054610ed290612cd3565b8015610f1f5780601f10610ef457610100808354040283529160200191610f1f565b820191906000526020600020905b815481529060010190602001808311610f0257829003601f168201915b50505050508152602001600482018054610f3890612cd3565b80601f0160208091040260200160405190810160405280929190818152602001828054610f6490612cd3565b8015610fb15780601f10610f8657610100808354040283529160200191610fb1565b820191906000526020600020905b815481529060010190602001808311610f9457829003601f168201915b50505050508152602001600582018054610fca90612cd3565b80601f0160208091040260200160405190810160405280929190818152602001828054610ff690612cd3565b80156110435780601f1061101857610100808354040283529160200191611043565b820191906000526020600020905b81548152906001019060200180831161102657829003601f168201915b5050505050815260200160068201805461105c90612cd3565b80601f016020809104026020016040519081016040528092919081815260200182805461108890612cd3565b80156110d55780601f106110aa576101008083540402835291602001916110d5565b820191906000526020600020905b8154815290600101906020018083116110b857829003601f168201915b505050505081526020016007820180546110ee90612cd3565b80601f016020809104026020016040519081016040528092919081815260200182805461111a90612cd3565b80156111675780601f1061113c57610100808354040283529160200191611167565b820191906000526020600020905b81548152906001019060200180831161114a57829003601f168201915b505050505081526020016008820160009054906101000a900460ff1615151515815250509050919050565b6000600280549050905090565b60056040518060e00160405280600454815260200187815260200186815260200185815260200184815260200183815260200160008152509080600181540180825580915050600190039060005260206000209060070201600090919091909150600082015181600001556020820151816001019080519060200190611226929190612114565b506040820151816002019080519060200190611243929190612114565b506060820151816003019080519060200190611260929190612114565b50608082015181600401908051906020019061127d929190612114565b5060a082015181600501908051906020019061129a929190612114565b5060c08201518160060155505060016005805490506112b99190612d33565b6006600060045481526020019081526020016000208190555060016005805490506112e49190612d33565b6007856040516112f49190612c5e565b90815260200160405180910390208190555061130e611bf4565b5050505050565b6003818051602081018201805184825260208301602085012081835280955050505050506000915090505481565b61134b612036565b6002828154811061135f5761135e612c75565b5b90600052602060002090600a02016040518061014001604052908160008201805461138990612cd3565b80601f01602080910402602001604051908101604052809291908181526020018280546113b590612cd3565b80156114025780601f106113d757610100808354040283529160200191611402565b820191906000526020600020905b8154815290600101906020018083116113e557829003601f168201915b5050505050815260200160018201805461141b90612cd3565b80601f016020809104026020016040519081016040528092919081815260200182805461144790612cd3565b80156114945780601f1061146957610100808354040283529160200191611494565b820191906000526020600020905b81548152906001019060200180831161147757829003601f168201915b505050505081526020016002820180546114ad90612cd3565b80601f01602080910402602001604051908101604052809291908181526020018280546114d990612cd3565b80156115265780601f106114fb57610100808354040283529160200191611526565b820191906000526020600020905b81548152906001019060200180831161150957829003601f168201915b5050505050815260200160038201805461153f90612cd3565b80601f016020809104026020016040519081016040528092919081815260200182805461156b90612cd3565b80156115b85780601f1061158d576101008083540402835291602001916115b8565b820191906000526020600020905b81548152906001019060200180831161159b57829003601f168201915b505050505081526020016004820180546115d190612cd3565b80601f01602080910402602001604051908101604052809291908181526020018280546115fd90612cd3565b801561164a5780601f1061161f5761010080835404028352916020019161164a565b820191906000526020600020905b81548152906001019060200180831161162d57829003601f168201915b5050505050815260200160058201805461166390612cd3565b80601f016020809104026020016040519081016040528092919081815260200182805461168f90612cd3565b80156116dc5780601f106116b1576101008083540402835291602001916116dc565b820191906000526020600020905b8154815290600101906020018083116116bf57829003601f168201915b505050505081526020016006820180546116f590612cd3565b80601f016020809104026020016040519081016040528092919081815260200182805461172190612cd3565b801561176e5780601f106117435761010080835404028352916020019161176e565b820191906000526020600020905b81548152906001019060200180831161175157829003601f168201915b5050505050815260200160078201805461178790612cd3565b80601f01602080910402602001604051908101604052809291908181526020018280546117b390612cd3565b80156118005780601f106117d557610100808354040283529160200191611800565b820191906000526020600020905b8154815290600101906020018083116117e357829003601f168201915b5050505050815260200160088201805461181990612cd3565b80601f016020809104026020016040519081016040528092919081815260200182805461184590612cd3565b80156118925780601f1061186757610100808354040283529160200191611892565b820191906000526020600020905b81548152906001019060200180831161187557829003601f168201915b505050505081526020016009820154815250509050919050565b6118b4612089565b60056007836040516118c69190612c5e565b908152602001604051809103902054815481106118e6576118e5612c75565b5b90600052602060002090600702016040518060e00160405290816000820154815260200160018201805461191990612cd3565b80601f016020809104026020016040519081016040528092919081815260200182805461194590612cd3565b80156119925780601f1061196757610100808354040283529160200191611992565b820191906000526020600020905b81548152906001019060200180831161197557829003601f168201915b505050505081526020016002820180546119ab90612cd3565b80601f01602080910402602001604051908101604052809291908181526020018280546119d790612cd3565b8015611a245780601f106119f957610100808354040283529160200191611a24565b820191906000526020600020905b815481529060010190602001808311611a0757829003601f168201915b50505050508152602001600382018054611a3d90612cd3565b80601f0160208091040260200160405190810160405280929190818152602001828054611a6990612cd3565b8015611ab65780601f10611a8b57610100808354040283529160200191611ab6565b820191906000526020600020905b815481529060010190602001808311611a9957829003601f168201915b50505050508152602001600482018054611acf90612cd3565b80601f0160208091040260200160405190810160405280929190818152602001828054611afb90612cd3565b8015611b485780601f10611b1d57610100808354040283529160200191611b48565b820191906000526020600020905b815481529060010190602001808311611b2b57829003601f168201915b50505050508152602001600582018054611b6190612cd3565b80601f0160208091040260200160405190810160405280929190818152602001828054611b8d90612cd3565b8015611bda5780601f10611baf57610100808354040283529160200191611bda565b820191906000526020600020905b815481529060010190602001808311611bbd57829003601f168201915b505050505081526020016006820154815250509050919050565b6001600454611c039190612d67565b600481905550565b60008080549050905090565b6007818051602081018201805184825260208301602085012081835280955050505050506000915090505481565b60016002600383604051611c599190612c5e565b90815260200160405180910390205481548110611c7957611c78612c75565b5b90600052602060002090600a02016009016000828254611c999190612d67565b9250508190555050565b60066020528060005260406000206000915090505481565b60006040518061012001604052808a81526020018981526020018881526020018781526020018681526020018581526020018481526020018381526020016000151581525090806001815401808255809150506001900390600052602060002090600902016000909190919091506000820151816000019080519060200190611d45929190612114565b506020820151816001019080519060200190611d62929190612114565b506040820151816002019080519060200190611d7f929190612114565b506060820151816003019080519060200190611d9c929190612114565b506080820151816004019080519060200190611db9929190612114565b5060a0820151816005019080519060200190611dd6929190612114565b5060c0820151816006019080519060200190611df3929190612114565b5060e0820151816007019080519060200190611e10929190612114565b506101008201518160080160006101000a81548160ff02191690831515021790555050506001600080549050611e469190612d33565b600189604051611e569190612c5e565b9081526020016040518091039020819055505050505050505050565b60026040518061014001604052808b81526020018a8152602001898152602001888152602001878152602001868152602001858152602001848152602001838152602001600081525090806001815401808255809150506001900390600052602060002090600a02016000909190919091506000820151816000019080519060200190611f00929190612114565b506020820151816001019080519060200190611f1d929190612114565b506040820151816002019080519060200190611f3a929190612114565b506060820151816003019080519060200190611f57929190612114565b506080820151816004019080519060200190611f74929190612114565b5060a0820151816005019080519060200190611f91929190612114565b5060c0820151816006019080519060200190611fae929190612114565b5060e0820151816007019080519060200190611fcb929190612114565b50610100820151816008019080519060200190611fe9929190612114565b506101208201518160090155505060016002805490506120099190612d33565b60038a6040516120199190612c5e565b908152602001604051809103902081905550505050505050505050565b604051806101400160405280606081526020016060815260200160608152602001606081526020016060815260200160608152602001606081526020016060815260200160608152602001600081525090565b6040518060e00160405280600081526020016060815260200160608152602001606081526020016060815260200160608152602001600081525090565b60405180610120016040528060608152602001606081526020016060815260200160608152602001606081526020016060815260200160608152602001606081526020016000151581525090565b82805461212090612cd3565b90600052602060002090601f0160209004810192826121425760008555612189565b82601f1061215b57805160ff1916838001178555612189565b82800160010185558215612189579182015b8281111561218857825182559160200191906001019061216d565b5b509050612196919061219a565b5090565b5b808211156121b357600081600090555060010161219b565b5090565b6000604051905090565b600080fd5b600080fd5b600080fd5b600080fd5b6000601f19601f8301169050919050565b7f4e487b7100000000000000000000000000000000000000000000000000000000600052604160045260246000fd5b61221e826121d5565b810181811067ffffffffffffffff8211171561223d5761223c6121e6565b5b80604052505050565b60006122506121b7565b905061225c8282612215565b919050565b600067ffffffffffffffff82111561227c5761227b6121e6565b5b612285826121d5565b9050602081019050919050565b82818337600083830152505050565b60006122b46122af84612261565b612246565b9050828152602081018484840111156122d0576122cf6121d0565b5b6122db848285612292565b509392505050565b600082601f8301126122f8576122f76121cb565b5b81356123088482602086016122a1565b91505092915050565b600060208284031215612327576123266121c1565b5b600082013567ffffffffffffffff811115612345576123446121c6565b5b612351848285016122e3565b91505092915050565b600081519050919050565b600082825260208201905092915050565b60005b83811015612394578082015181840152602081019050612379565b838111156123a3576000848401525b50505050565b60006123b48261235a565b6123be8185612365565b93506123ce818560208601612376565b6123d7816121d5565b840191505092915050565b6000819050919050565b6123f5816123e2565b82525050565b600061014083016000830151848203600086015261241982826123a9565b9150506020830151848203602086015261243382826123a9565b9150506040830151848203604086015261244d82826123a9565b9150506060830151848203606086015261246782826123a9565b9150506080830151848203608086015261248182826123a9565b91505060a083015184820360a086015261249b82826123a9565b91505060c083015184820360c08601526124b582826123a9565b91505060e083015184820360e08601526124cf82826123a9565b9150506101008301518482036101008601526124eb82826123a9565b9150506101208301516125026101208601826123ec565b508091505092915050565b6000602082019050818103600083015261252781846123fb565b905092915050565b612538816123e2565b82525050565b6000602082019050612553600083018461252f565b92915050565b612562816123e2565b811461256d57600080fd5b50565b60008135905061257f81612559565b92915050565b60006020828403121561259b5761259a6121c1565b5b60006125a984828501612570565b91505092915050565b600060e0830160008301516125ca60008601826123ec565b50602083015184820360208601526125e282826123a9565b915050604083015184820360408601526125fc82826123a9565b9150506060830151848203606086015261261682826123a9565b9150506080830151848203608086015261263082826123a9565b91505060a083015184820360a086015261264a82826123a9565b91505060c083015161265f60c08601826123ec565b508091505092915050565b6000602082019050818103600083015261268481846125b2565b905092915050565b60008115159050919050565b6126a18161268c565b82525050565b60006101208301600083015184820360008601526126c582826123a9565b915050602083015184820360208601526126df82826123a9565b915050604083015184820360408601526126f982826123a9565b9150506060830151848203606086015261271382826123a9565b9150506080830151848203608086015261272d82826123a9565b91505060a083015184820360a086015261274782826123a9565b91505060c083015184820360c086015261276182826123a9565b91505060e083015184820360e086015261277b82826123a9565b915050610100830151612792610100860182612698565b508091505092915050565b600060208201905081810360008301526127b781846126a7565b905092915050565b600080600080600060a086880312156127db576127da6121c1565b5b600086013567ffffffffffffffff8111156127f9576127f86121c6565b5b612805888289016122e3565b955050602086013567ffffffffffffffff811115612826576128256121c6565b5b612832888289016122e3565b945050604086013567ffffffffffffffff811115612853576128526121c6565b5b61285f888289016122e3565b935050606086013567ffffffffffffffff8111156128805761287f6121c6565b5b61288c888289016122e3565b925050608086013567ffffffffffffffff8111156128ad576128ac6121c6565b5b6128b9888289016122e3565b9150509295509295909350565b600080600080600080600080610100898b0312156128e7576128e66121c1565b5b600089013567ffffffffffffffff811115612905576129046121c6565b5b6129118b828c016122e3565b985050602089013567ffffffffffffffff811115612932576129316121c6565b5b61293e8b828c016122e3565b975050604089013567ffffffffffffffff81111561295f5761295e6121c6565b5b61296b8b828c016122e3565b965050606089013567ffffffffffffffff81111561298c5761298b6121c6565b5b6129988b828c016122e3565b955050608089013567ffffffffffffffff8111156129b9576129b86121c6565b5b6129c58b828c016122e3565b94505060a089013567ffffffffffffffff8111156129e6576129e56121c6565b5b6129f28b828c016122e3565b93505060c089013567ffffffffffffffff811115612a1357612a126121c6565b5b612a1f8b828c016122e3565b92505060e089013567ffffffffffffffff811115612a4057612a3f6121c6565b5b612a4c8b828c016122e3565b9150509295985092959890939650565b60008060008060008060008060006101208a8c031215612a7f57612a7e6121c1565b5b60008a013567ffffffffffffffff811115612a9d57612a9c6121c6565b5b612aa98c828d016122e3565b99505060208a013567ffffffffffffffff811115612aca57612ac96121c6565b5b612ad68c828d016122e3565b98505060408a013567ffffffffffffffff811115612af757612af66121c6565b5b612b038c828d016122e3565b97505060608a013567ffffffffffffffff811115612b2457612b236121c6565b5b612b308c828d016122e3565b96505060808a013567ffffffffffffffff811115612b5157612b506121c6565b5b612b5d8c828d016122e3565b95505060a08a013567ffffffffffffffff811115612b7e57612b7d6121c6565b5b612b8a8c828d016122e3565b94505060c08a013567ffffffffffffffff811115612bab57612baa6121c6565b5b612bb78c828d016122e3565b93505060e08a013567ffffffffffffffff811115612bd857612bd76121c6565b5b612be48c828d016122e3565b9250506101008a013567ffffffffffffffff811115612c0657612c056121c6565b5b612c128c828d016122e3565b9150509295985092959850929598565b600081905092915050565b6000612c388261235a565b612c428185612c22565b9350612c52818560208601612376565b80840191505092915050565b6000612c6a8284612c2d565b915081905092915050565b7f4e487b7100000000000000000000000000000000000000000000000000000000600052603260045260246000fd5b7f4e487b7100000000000000000000000000000000000000000000000000000000600052602260045260246000fd5b60006002820490506001821680612ceb57607f821691505b602082108103612cfe57612cfd612ca4565b5b50919050565b7f4e487b7100000000000000000000000000000000000000000000000000000000600052601160045260246000fd5b6000612d3e826123e2565b9150612d49836123e2565b925082821015612d5c57612d5b612d04565b5b828203905092915050565b6000612d72826123e2565b9150612d7d836123e2565b9250827fffffffffffffffffffffffffffffffffffffffffffffffffffffffffffffffff03821115612db257612db1612d04565b5b82820190509291505056fea26469706673582212201249e24ed139176079a7a04b724b01c857c122b3f6f5c08a0967554de44179ef64736f6c634300080e0033",
  "immutableReferences": {},
  "source": "//SPDX-License-Identifier: MIT\npragma solidity ^0.8.0;\n\ncontract election {\n    // voter info structure\n    struct voterInfo {\n        string epic;\n        string voterName;\n        string voterFatherName;\n        string voterEmail;\n        string voterMobile;\n        string voterDOB;\n        string voterDistrict;\n        string voterGender;\n        bool isVoted;\n    }\n\n    voterInfo[] allVoters;\n    mapping(string => uint256) public voterSearch; // epic => index\n\n    // stores voter info on blockchain\n    function registerVoter(\n        string memory _epic,\n        string memory _voterName,\n        string memory _voterFatherName,\n        string memory _voterEmail,\n        string memory _voterMobile,\n        string memory _voterDOB,\n        string memory _voterDistrict,\n        string memory _voterGender\n    ) public {\n        allVoters.push(\n            voterInfo(\n                _epic,\n                _voterName,\n                _voterFatherName,\n                _voterEmail,\n                _voterMobile,\n                _voterDOB,\n                _voterDistrict,\n                _voterGender,\n                false\n            )\n        );\n        voterSearch[_epic] = allVoters.length - 1;\n    }\n\n    // reterive voter info from blockchain\n    function showVoterInfo(string memory _epic)\n        public\n        view\n        returns (voterInfo memory)\n    {\n        return allVoters[voterSearch[_epic]];\n    }\n\n    // count total voters\n    function totalVoters() public view returns (uint256) {\n        return allVoters.length;\n    }\n\n    // candidate info structure\n    struct candidateInfo {\n        string id;\n        string candidateName;\n        string partyName;\n        string candidateEmail;\n        string candidateFatherName;\n        string candidateMobile;\n        string candidateDistrict;\n        string candidateDOB;\n        string candidateGender;\n        uint256 totalVotes;\n    }\n\n    candidateInfo[] allCandidates;\n    mapping(string => uint256) public candidateSearch; // id => index\n\n    // stores candidate info on blockchain\n    function registerCandidate(\n        string memory _id,\n        string memory _candidateName,\n        string memory _party,\n        string memory __candidateEmail,\n        string memory _candidateFatherName,\n        string memory _candidateMobile,\n        string memory _candidateDistrict,\n        string memory _candidateDOB,\n        string memory _candidateGender\n    ) public {\n        allCandidates.push(\n            candidateInfo(\n                _id,\n                _candidateName,\n                _party,\n                __candidateEmail,\n                _candidateFatherName,\n                _candidateMobile,\n                _candidateDistrict,\n                _candidateDOB,\n                _candidateGender,\n                0\n            )\n        );\n        candidateSearch[_id] = allCandidates.length - 1;\n    }\n\n    // reterive candidate info from blockchain\n    function showCandidateInfo(string memory _id)\n        public\n        view\n        returns (candidateInfo memory)\n    {\n        return allCandidates[candidateSearch[_id]];\n    }\n\n    // count total candidates\n    function totalCandidates() public view returns (uint256) {\n        return allCandidates.length;\n    }\n\n    function fetchCandidateByIndex(uint256 _index)\n        public\n        view\n        returns (candidateInfo memory)\n    {\n        return allCandidates[_index];\n    }\n\n    //function checkVoted(string memory _epic) view public returns(bool)\n    //{\n    //  retuallVoters[voterSearch[_epic]].isVoted\n    //}\n    function increaseVote(string memory _id) public {\n        allCandidates[candidateSearch[_id]].totalVotes += 1;\n    }\n\n    // election info structure\n    struct electionInfo {\n        uint256 id;\n        string electionName;\n        string electionDistrict;\n        string electionDate;\n        string startingTime;\n        string endingTime;\n        uint256 totalVotes;\n    }\n    uint256 public currentID = 0;\n\n    function incrementCurrentID() public {\n        currentID = currentID + 1;\n    }\n\n    electionInfo[] allElections;\n    mapping(uint256 => uint256) public electionSearch; // id => index\n    mapping(string => uint256) public electionSearchDistrict; // district => index\n\n    function createElection(\n        string memory _electionName,\n        string memory _electionDistrict,\n        string memory _electionDate,\n        string memory _electionStartingTime,\n        string memory _electionEndingTime\n    ) public {\n        allElections.push(\n            electionInfo(\n                currentID,\n                _electionName,\n                _electionDistrict,\n                _electionDate,\n                _electionStartingTime,\n                _electionEndingTime,\n                0\n            )\n        );\n        electionSearch[currentID] = allElections.length - 1;\n        electionSearchDistrict[_electionDistrict] = allElections.length - 1;\n        incrementCurrentID();\n    }\n\n    function showElectionInfo(uint256 _id)\n        public\n        view\n        returns (electionInfo memory)\n    {\n        return allElections[electionSearch[_id]];\n    }\n\n    function showElectionInfoByDistrict(string memory _district)\n        public\n        view\n        returns (electionInfo memory)\n    {\n        return allElections[electionSearchDistrict[_district]];\n    }\n\n    constructor() {\n        registerVoter(\"\", \"\", \"\", \"\", \"\", \"\", \"\", \"\");\n        registerCandidate(\"\", \"\", \"\", \"\", \"\", \"\", \"\", \"\", \"\");\n        createElection(\"\", \"\", \"\", \"\", \"\");\n    }\n}\n",
  "sourcePath": "/home/abhi/blockchain-voting/truffle/contracts/election.sol",
  "compiler": {
    "name": "solc",
    "version": "0.8.14+commit.80d49f37.Emscripten.clang"
  },
  "schemaVersion": "3.4.10",
  "updatedAt": "2022-11-14T11:15:06.150Z",
  "networkType": "ethereum",
  "devdoc": {
    "kind": "dev",
    "methods": {},
    "version": 1
  },
  "userdoc": {
    "kind": "user",
    "methods": {},
    "version": 1
  }
}