{
  "contractName": "election",
  "abi": [
    {
      "inputs": [
        {
          "internalType": "string",
          "name": "",
          "type": "string"
        }
      ],
      "name": "candidateSearch",
      "outputs": [
        {
          "internalType": "uint256",
          "name": "",
          "type": "uint256"
        }
      ],
      "stateMutability": "view",
      "type": "function",
      "constant": true
    },
    {
      "inputs": [
        {
          "internalType": "string",
          "name": "",
          "type": "string"
        }
      ],
      "name": "voterSearch",
      "outputs": [
        {
          "internalType": "uint256",
          "name": "",
          "type": "uint256"
        }
      ],
      "stateMutability": "view",
      "type": "function",
      "constant": true
    },
    {
      "inputs": [
        {
          "internalType": "string",
          "name": "_epic",
          "type": "string"
        },
        {
          "internalType": "string",
          "name": "_voterName",
          "type": "string"
        },
        {
          "internalType": "string",
          "name": "_voterFatherName",
          "type": "string"
        },
        {
          "internalType": "string",
          "name": "_voterEmail",
          "type": "string"
        },
        {
          "internalType": "string",
          "name": "_voterMobile",
          "type": "string"
        },
        {
          "internalType": "string",
          "name": "_voterDOB",
          "type": "string"
        },
        {
          "internalType": "string",
          "name": "_voterAddress",
          "type": "string"
        },
        {
          "internalType": "string",
          "name": "_voterGender",
          "type": "string"
        }
      ],
      "name": "registerVoter",
      "outputs": [],
      "stateMutability": "nonpayable",
      "type": "function"
    },
    {
      "inputs": [
        {
          "internalType": "string",
          "name": "_epic",
          "type": "string"
        }
      ],
      "name": "showVoterInfo",
      "outputs": [
        {
          "components": [
            {
              "internalType": "string",
              "name": "epic",
              "type": "string"
            },
            {
              "internalType": "string",
              "name": "voterName",
              "type": "string"
            },
            {
              "internalType": "string",
              "name": "voterFatherName",
              "type": "string"
            },
            {
              "internalType": "string",
              "name": "voterEmail",
              "type": "string"
            },
            {
              "internalType": "string",
              "name": "voterMobile",
              "type": "string"
            },
            {
              "internalType": "string",
              "name": "voterDOB",
              "type": "string"
            },
            {
              "internalType": "string",
              "name": "voterAddress",
              "type": "string"
            },
            {
              "internalType": "string",
              "name": "voterGender",
              "type": "string"
            },
            {
              "internalType": "bool",
              "name": "isVoted",
              "type": "bool"
            }
          ],
          "internalType": "struct election.voterInfo",
          "name": "",
          "type": "tuple"
        }
      ],
      "stateMutability": "view",
      "type": "function",
      "constant": true
    },
    {
      "inputs": [],
      "name": "totalVoters",
      "outputs": [
        {
          "internalType": "uint256",
          "name": "",
          "type": "uint256"
        }
      ],
      "stateMutability": "view",
      "type": "function",
      "constant": true
    },
    {
      "inputs": [
        {
          "internalType": "string",
          "name": "_id",
          "type": "string"
        },
        {
          "internalType": "string",
          "name": "_candidateName",
          "type": "string"
        },
        {
          "internalType": "string",
          "name": "party",
          "type": "string"
        },
        {
          "internalType": "string",
          "name": "_candidateAddress",
          "type": "string"
        },
        {
          "internalType": "string",
          "name": "_candidateDOB",
          "type": "string"
        },
        {
          "internalType": "string",
          "name": "_candidateGender",
          "type": "string"
        }
      ],
      "name": "registerCandidate",
      "outputs": [],
      "stateMutability": "nonpayable",
      "type": "function"
    },
    {
      "inputs": [
        {
          "internalType": "string",
          "name": "_id",
          "type": "string"
        }
      ],
      "name": "showCandidateInfo",
      "outputs": [
        {
          "components": [
            {
              "internalType": "string",
              "name": "id",
              "type": "string"
            },
            {
              "internalType": "string",
              "name": "candidateName",
              "type": "string"
            },
            {
              "internalType": "string",
              "name": "party",
              "type": "string"
            },
            {
              "internalType": "string",
              "name": "candidateAddress",
              "type": "string"
            },
            {
              "internalType": "string",
              "name": "candidateDOB",
              "type": "string"
            },
            {
              "internalType": "string",
              "name": "candidateGender",
              "type": "string"
            }
          ],
          "internalType": "struct election.candidateInfo",
          "name": "",
          "type": "tuple"
        }
      ],
      "stateMutability": "view",
      "type": "function",
      "constant": true
    },
    {
      "inputs": [],
      "name": "totalCandidates",
      "outputs": [
        {
          "internalType": "uint256",
          "name": "",
          "type": "uint256"
        }
      ],
      "stateMutability": "view",
      "type": "function",
      "constant": true
    }
  ],
  "bytecode": "0x608060405234801561001057600080fd5b506117ca806100206000396000f3fe608060405234801561001057600080fd5b50600436106100885760003560e01c8063529102411161005b578063529102411461013b5780635f5300ff1461016b578063cb9dfaa514610189578063f1a68302146101a557610088565b8063104303741461008d5780631f5fb391146100bd57806324d69dcd146100ed5780633866965c1461011d575b600080fd5b6100a760048036038101906100a2919061107e565b6101c1565b6040516100b491906111fb565b60405180910390f35b6100d760048036038101906100d2919061107e565b610587565b6040516100e49190611236565b60405180910390f35b6101076004803603810190610102919061107e565b6105b5565b6040516101149190611362565b60405180910390f35b610125610abb565b6040516101329190611236565b60405180910390f35b6101556004803603810190610150919061107e565b610ac8565b6040516101629190611236565b60405180910390f35b610173610af6565b6040516101809190611236565b60405180910390f35b6101a3600480360381019061019e9190611384565b610b02565b005b6101bf60048036038101906101ba919061151a565b610cb9565b005b6101c9610dfd565b60026003836040516101db919061168b565b908152602001604051809103902054815481106101fb576101fa6116a2565b5b90600052602060002090600602016040518060c001604052908160008201805461022490611700565b80601f016020809104026020016040519081016040528092919081815260200182805461025090611700565b801561029d5780601f106102725761010080835404028352916020019161029d565b820191906000526020600020905b81548152906001019060200180831161028057829003601f168201915b505050505081526020016001820180546102b690611700565b80601f01602080910402602001604051908101604052809291908181526020018280546102e290611700565b801561032f5780601f106103045761010080835404028352916020019161032f565b820191906000526020600020905b81548152906001019060200180831161031257829003601f168201915b5050505050815260200160028201805461034890611700565b80601f016020809104026020016040519081016040528092919081815260200182805461037490611700565b80156103c15780601f10610396576101008083540402835291602001916103c1565b820191906000526020600020905b8154815290600101906020018083116103a457829003601f168201915b505050505081526020016003820180546103da90611700565b80601f016020809104026020016040519081016040528092919081815260200182805461040690611700565b80156104535780601f1061042857610100808354040283529160200191610453565b820191906000526020600020905b81548152906001019060200180831161043657829003601f168201915b5050505050815260200160048201805461046c90611700565b80601f016020809104026020016040519081016040528092919081815260200182805461049890611700565b80156104e55780601f106104ba576101008083540402835291602001916104e5565b820191906000526020600020905b8154815290600101906020018083116104c857829003601f168201915b505050505081526020016005820180546104fe90611700565b80601f016020809104026020016040519081016040528092919081815260200182805461052a90611700565b80156105775780601f1061054c57610100808354040283529160200191610577565b820191906000526020600020905b81548152906001019060200180831161055a57829003601f168201915b5050505050815250509050919050565b6001818051602081018201805184825260208301602085012081835280955050505050506000915090505481565b6105bd610e33565b60006001836040516105cf919061168b565b908152602001604051809103902054815481106105ef576105ee6116a2565b5b90600052602060002090600902016040518061012001604052908160008201805461061990611700565b80601f016020809104026020016040519081016040528092919081815260200182805461064590611700565b80156106925780601f1061066757610100808354040283529160200191610692565b820191906000526020600020905b81548152906001019060200180831161067557829003601f168201915b505050505081526020016001820180546106ab90611700565b80601f01602080910402602001604051908101604052809291908181526020018280546106d790611700565b80156107245780601f106106f957610100808354040283529160200191610724565b820191906000526020600020905b81548152906001019060200180831161070757829003601f168201915b5050505050815260200160028201805461073d90611700565b80601f016020809104026020016040519081016040528092919081815260200182805461076990611700565b80156107b65780601f1061078b576101008083540402835291602001916107b6565b820191906000526020600020905b81548152906001019060200180831161079957829003601f168201915b505050505081526020016003820180546107cf90611700565b80601f01602080910402602001604051908101604052809291908181526020018280546107fb90611700565b80156108485780601f1061081d57610100808354040283529160200191610848565b820191906000526020600020905b81548152906001019060200180831161082b57829003601f168201915b5050505050815260200160048201805461086190611700565b80601f016020809104026020016040519081016040528092919081815260200182805461088d90611700565b80156108da5780601f106108af576101008083540402835291602001916108da565b820191906000526020600020905b8154815290600101906020018083116108bd57829003601f168201915b505050505081526020016005820180546108f390611700565b80601f016020809104026020016040519081016040528092919081815260200182805461091f90611700565b801561096c5780601f106109415761010080835404028352916020019161096c565b820191906000526020600020905b81548152906001019060200180831161094f57829003601f168201915b5050505050815260200160068201805461098590611700565b80601f01602080910402602001604051908101604052809291908181526020018280546109b190611700565b80156109fe5780601f106109d3576101008083540402835291602001916109fe565b820191906000526020600020905b8154815290600101906020018083116109e157829003601f168201915b50505050508152602001600782018054610a1790611700565b80601f0160208091040260200160405190810160405280929190818152602001828054610a4390611700565b8015610a905780601f10610a6557610100808354040283529160200191610a90565b820191906000526020600020905b815481529060010190602001808311610a7357829003601f168201915b505050505081526020016008820160009054906101000a900460ff1615151515815250509050919050565b6000600280549050905090565b6003818051602081018201805184825260208301602085012081835280955050505050506000915090505481565b60008080549050905090565b60006040518061012001604052808a81526020018981526020018881526020018781526020018681526020018581526020018481526020018381526020016000151581525090806001815401808255809150506001900390600052602060002090600902016000909190919091506000820151816000019080519060200190610b8c929190610e81565b506020820151816001019080519060200190610ba9929190610e81565b506040820151816002019080519060200190610bc6929190610e81565b506060820151816003019080519060200190610be3929190610e81565b506080820151816004019080519060200190610c00929190610e81565b5060a0820151816005019080519060200190610c1d929190610e81565b5060c0820151816006019080519060200190610c3a929190610e81565b5060e0820151816007019080519060200190610c57929190610e81565b506101008201518160080160006101000a81548160ff02191690831515021790555050506001600080549050610c8d9190611760565b600189604051610c9d919061168b565b9081526020016040518091039020819055505050505050505050565b60026040518060c001604052808881526020018781526020018681526020018581526020018481526020018381525090806001815401808255809150506001900390600052602060002090600602016000909190919091506000820151816000019080519060200190610d2d929190610e81565b506020820151816001019080519060200190610d4a929190610e81565b506040820151816002019080519060200190610d67929190610e81565b506060820151816003019080519060200190610d84929190610e81565b506080820151816004019080519060200190610da1929190610e81565b5060a0820151816005019080519060200190610dbe929190610e81565b5050506001600280549050610dd39190611760565b600387604051610de3919061168b565b908152602001604051809103902081905550505050505050565b6040518060c001604052806060815260200160608152602001606081526020016060815260200160608152602001606081525090565b60405180610120016040528060608152602001606081526020016060815260200160608152602001606081526020016060815260200160608152602001606081526020016000151581525090565b828054610e8d90611700565b90600052602060002090601f016020900481019282610eaf5760008555610ef6565b82601f10610ec857805160ff1916838001178555610ef6565b82800160010185558215610ef6579182015b82811115610ef5578251825591602001919060010190610eda565b5b509050610f039190610f07565b5090565b5b80821115610f20576000816000905550600101610f08565b5090565b6000604051905090565b600080fd5b600080fd5b600080fd5b600080fd5b6000601f19601f8301169050919050565b7f4e487b7100000000000000000000000000000000000000000000000000000000600052604160045260246000fd5b610f8b82610f42565b810181811067ffffffffffffffff82111715610faa57610fa9610f53565b5b80604052505050565b6000610fbd610f24565b9050610fc98282610f82565b919050565b600067ffffffffffffffff821115610fe957610fe8610f53565b5b610ff282610f42565b9050602081019050919050565b82818337600083830152505050565b600061102161101c84610fce565b610fb3565b90508281526020810184848401111561103d5761103c610f3d565b5b611048848285610fff565b509392505050565b600082601f83011261106557611064610f38565b5b813561107584826020860161100e565b91505092915050565b60006020828403121561109457611093610f2e565b5b600082013567ffffffffffffffff8111156110b2576110b1610f33565b5b6110be84828501611050565b91505092915050565b600081519050919050565b600082825260208201905092915050565b60005b838110156111015780820151818401526020810190506110e6565b83811115611110576000848401525b50505050565b6000611121826110c7565b61112b81856110d2565b935061113b8185602086016110e3565b61114481610f42565b840191505092915050565b600060c083016000830151848203600086015261116c8282611116565b915050602083015184820360208601526111868282611116565b915050604083015184820360408601526111a08282611116565b915050606083015184820360608601526111ba8282611116565b915050608083015184820360808601526111d48282611116565b91505060a083015184820360a08601526111ee8282611116565b9150508091505092915050565b60006020820190508181036000830152611215818461114f565b905092915050565b6000819050919050565b6112308161121d565b82525050565b600060208201905061124b6000830184611227565b92915050565b60008115159050919050565b61126681611251565b82525050565b600061012083016000830151848203600086015261128a8282611116565b915050602083015184820360208601526112a48282611116565b915050604083015184820360408601526112be8282611116565b915050606083015184820360608601526112d88282611116565b915050608083015184820360808601526112f28282611116565b91505060a083015184820360a086015261130c8282611116565b91505060c083015184820360c08601526113268282611116565b91505060e083015184820360e08601526113408282611116565b91505061010083015161135761010086018261125d565b508091505092915050565b6000602082019050818103600083015261137c818461126c565b905092915050565b600080600080600080600080610100898b0312156113a5576113a4610f2e565b5b600089013567ffffffffffffffff8111156113c3576113c2610f33565b5b6113cf8b828c01611050565b985050602089013567ffffffffffffffff8111156113f0576113ef610f33565b5b6113fc8b828c01611050565b975050604089013567ffffffffffffffff81111561141d5761141c610f33565b5b6114298b828c01611050565b965050606089013567ffffffffffffffff81111561144a57611449610f33565b5b6114568b828c01611050565b955050608089013567ffffffffffffffff81111561147757611476610f33565b5b6114838b828c01611050565b94505060a089013567ffffffffffffffff8111156114a4576114a3610f33565b5b6114b08b828c01611050565b93505060c089013567ffffffffffffffff8111156114d1576114d0610f33565b5b6114dd8b828c01611050565b92505060e089013567ffffffffffffffff8111156114fe576114fd610f33565b5b61150a8b828c01611050565b9150509295985092959890939650565b60008060008060008060c0878903121561153757611536610f2e565b5b600087013567ffffffffffffffff81111561155557611554610f33565b5b61156189828a01611050565b965050602087013567ffffffffffffffff81111561158257611581610f33565b5b61158e89828a01611050565b955050604087013567ffffffffffffffff8111156115af576115ae610f33565b5b6115bb89828a01611050565b945050606087013567ffffffffffffffff8111156115dc576115db610f33565b5b6115e889828a01611050565b935050608087013567ffffffffffffffff81111561160957611608610f33565b5b61161589828a01611050565b92505060a087013567ffffffffffffffff81111561163657611635610f33565b5b61164289828a01611050565b9150509295509295509295565b600081905092915050565b6000611665826110c7565b61166f818561164f565b935061167f8185602086016110e3565b80840191505092915050565b6000611697828461165a565b915081905092915050565b7f4e487b7100000000000000000000000000000000000000000000000000000000600052603260045260246000fd5b7f4e487b7100000000000000000000000000000000000000000000000000000000600052602260045260246000fd5b6000600282049050600182168061171857607f821691505b60208210810361172b5761172a6116d1565b5b50919050565b7f4e487b7100000000000000000000000000000000000000000000000000000000600052601160045260246000fd5b600061176b8261121d565b91506117768361121d565b92508282101561178957611788611731565b5b82820390509291505056fea26469706673582212206bc4e120756966451199ddc1f0249a77b1108e0b7dec1e9f0468d28edf96bab564736f6c634300080e0033",
  "immutableReferences": {},
  "source": "//SPDX-License-Identifier: MIT\npragma solidity ^0.8.0;\n\n\ncontract election\n{\n\n    // voter info structure\n    struct voterInfo\n    {\n        string epic;\n        string voterName;\n        string voterFatherName;\n        string voterEmail;\n        string voterMobile;\n        string voterDOB;\n        string voterAddress;\n        string voterGender;\n        bool isVoted;\n    }\n\n    voterInfo[] allVoters;\n    mapping(string => uint) public voterSearch ;      // epic => index\n\n    // stores voter info on blockchain\n    function registerVoter(string memory _epic,string memory _voterName,string memory _voterFatherName,string memory _voterEmail,string memory _voterMobile,string memory _voterDOB,string memory _voterAddress,string memory _voterGender) public \n    {\n        allVoters.push(voterInfo(_epic,_voterName,_voterFatherName,_voterEmail,_voterMobile,_voterDOB,_voterAddress,_voterGender,false));\n        voterSearch[_epic]=allVoters.length-1;\n    }\n    \n    // reterive voter info from blockchain\n    function showVoterInfo(string memory _epic) view public returns(voterInfo memory)\n    {\n        return allVoters[voterSearch[_epic]];\n    }\n\n    // count total voters\n    function totalVoters() view public  returns(uint)\n    {\n        return allVoters.length;\n    }\n\n\n    // candidate info structure\n    struct candidateInfo\n    {\n        string id;\n        string candidateName;\n        string party;\n        string candidateAddress;\n        string candidateDOB;\n        string candidateGender;\n        \n    }\n\n    candidateInfo[] allCandidates;\n    mapping(string => uint) public candidateSearch ;      // id => index\n\n    // stores candidate info on blockchain\n    function registerCandidate(string memory _id,string memory _candidateName,string memory party,string memory _candidateAddress,string memory _candidateDOB,string memory _candidateGender) public \n    {\n        allCandidates.push( candidateInfo(_id,_candidateName,party,_candidateAddress,_candidateDOB,_candidateGender) );\n        candidateSearch[_id]=allCandidates.length-1;\n    \n    }\n    \n    // reterive candidate info from blockchain\n    function showCandidateInfo(string memory _id) view public returns(candidateInfo memory)\n    {\n        return allCandidates[candidateSearch[_id]];\n    }\n\n    // count total candidates\n    function totalCandidates() view public  returns(uint)\n    {\n        return allCandidates.length;\n    }\n\n\n\n}",
  "sourcePath": "/home/blackrose/Desktop/Blockchain-Voting/truffle/contracts/election.sol",
  "compiler": {
    "name": "solc",
    "version": "0.8.14+commit.80d49f37.Emscripten.clang"
  },
  "schemaVersion": "3.4.7",
  "updatedAt": "2022-06-25T21:10:26.331Z",
  "networkType": "ethereum",
  "devdoc": {
    "kind": "dev",
    "methods": {},
    "version": 1
  },
  "userdoc": {
    "kind": "user",
    "methods": {},
    "version": 1
  }
}