{
  "contractName": "Election",
  "abi": [
    {
      "inputs": [],
      "stateMutability": "nonpayable",
      "type": "constructor"
    },
    {
      "inputs": [
        {
          "internalType": "string",
          "name": "",
          "type": "string"
        }
      ],
      "name": "candidateSearch",
      "outputs": [
        {
          "internalType": "uint256",
          "name": "",
          "type": "uint256"
        }
      ],
      "stateMutability": "view",
      "type": "function"
    },
    {
      "inputs": [],
      "name": "currentID",
      "outputs": [
        {
          "internalType": "uint256",
          "name": "",
          "type": "uint256"
        }
      ],
      "stateMutability": "view",
      "type": "function"
    },
    {
      "inputs": [
        {
          "internalType": "uint256",
          "name": "",
          "type": "uint256"
        }
      ],
      "name": "electionSearch",
      "outputs": [
        {
          "internalType": "uint256",
          "name": "",
          "type": "uint256"
        }
      ],
      "stateMutability": "view",
      "type": "function"
    },
    {
      "inputs": [
        {
          "internalType": "string",
          "name": "",
          "type": "string"
        }
      ],
      "name": "voterSearch",
      "outputs": [
        {
          "internalType": "uint256",
          "name": "",
          "type": "uint256"
        }
      ],
      "stateMutability": "view",
      "type": "function"
    },
    {
      "inputs": [
        {
          "internalType": "string",
          "name": "_epic",
          "type": "string"
        },
        {
          "internalType": "string",
          "name": "_voterName",
          "type": "string"
        },
        {
          "internalType": "string",
          "name": "_voterFatherName",
          "type": "string"
        },
        {
          "internalType": "string",
          "name": "_voterEmail",
          "type": "string"
        },
        {
          "internalType": "string",
          "name": "_voterMobile",
          "type": "string"
        },
        {
          "internalType": "string",
          "name": "_voterDOB",
          "type": "string"
        },
        {
          "internalType": "string",
          "name": "_voterAddress",
          "type": "string"
        },
        {
          "internalType": "string",
          "name": "_voterGender",
          "type": "string"
        }
      ],
      "name": "registerVoter",
      "outputs": [],
      "stateMutability": "nonpayable",
      "type": "function"
    },
    {
      "inputs": [
        {
          "internalType": "string",
          "name": "_epic",
          "type": "string"
        }
      ],
      "name": "showVoterInfo",
      "outputs": [
        {
          "components": [
            {
              "internalType": "string",
              "name": "epic",
              "type": "string"
            },
            {
              "internalType": "string",
              "name": "voterName",
              "type": "string"
            },
            {
              "internalType": "string",
              "name": "voterFatherName",
              "type": "string"
            },
            {
              "internalType": "string",
              "name": "voterEmail",
              "type": "string"
            },
            {
              "internalType": "string",
              "name": "voterMobile",
              "type": "string"
            },
            {
              "internalType": "string",
              "name": "voterDOB",
              "type": "string"
            },
            {
              "internalType": "string",
              "name": "voterAddress",
              "type": "string"
            },
            {
              "internalType": "string",
              "name": "voterGender",
              "type": "string"
            },
            {
              "internalType": "bool",
              "name": "isVoted",
              "type": "bool"
            }
          ],
          "internalType": "struct Election.voterInfo",
          "name": "",
          "type": "tuple"
        }
      ],
      "stateMutability": "view",
      "type": "function"
    },
    {
      "inputs": [],
      "name": "totalVoters",
      "outputs": [
        {
          "internalType": "uint256",
          "name": "",
          "type": "uint256"
        }
      ],
      "stateMutability": "view",
      "type": "function"
    },
    {
      "inputs": [
        {
          "internalType": "string",
          "name": "_id",
          "type": "string"
        },
        {
          "internalType": "string",
          "name": "_candidateName",
          "type": "string"
        },
        {
          "internalType": "string",
          "name": "_party",
          "type": "string"
        },
        {
          "internalType": "string",
          "name": "__candidateEmail",
          "type": "string"
        },
        {
          "internalType": "string",
          "name": "_candidateFatherName",
          "type": "string"
        },
        {
          "internalType": "string",
          "name": "_candidateMobile",
          "type": "string"
        },
        {
          "internalType": "string",
          "name": "_candidateAddress",
          "type": "string"
        },
        {
          "internalType": "string",
          "name": "_candidateDOB",
          "type": "string"
        },
        {
          "internalType": "string",
          "name": "_candidateGender",
          "type": "string"
        }
      ],
      "name": "registerCandidate",
      "outputs": [],
      "stateMutability": "nonpayable",
      "type": "function"
    },
    {
      "inputs": [
        {
          "internalType": "string",
          "name": "_id",
          "type": "string"
        }
      ],
      "name": "showCandidateInfo",
      "outputs": [
        {
          "components": [
            {
              "internalType": "string",
              "name": "id",
              "type": "string"
            },
            {
              "internalType": "string",
              "name": "candidateName",
              "type": "string"
            },
            {
              "internalType": "string",
              "name": "partyName",
              "type": "string"
            },
            {
              "internalType": "string",
              "name": "candidateEmail",
              "type": "string"
            },
            {
              "internalType": "string",
              "name": "candidateFatherName",
              "type": "string"
            },
            {
              "internalType": "string",
              "name": "candidateMobile",
              "type": "string"
            },
            {
              "internalType": "string",
              "name": "candidateAddress",
              "type": "string"
            },
            {
              "internalType": "string",
              "name": "candidateDOB",
              "type": "string"
            },
            {
              "internalType": "string",
              "name": "candidateGender",
              "type": "string"
            },
            {
              "internalType": "uint256",
              "name": "totalVotes",
              "type": "uint256"
            }
          ],
          "internalType": "struct Election.candidateInfo",
          "name": "",
          "type": "tuple"
        }
      ],
      "stateMutability": "view",
      "type": "function"
    },
    {
      "inputs": [],
      "name": "totalCandidates",
      "outputs": [
        {
          "internalType": "uint256",
          "name": "",
          "type": "uint256"
        }
      ],
      "stateMutability": "view",
      "type": "function"
    },
    {
      "inputs": [
        {
          "internalType": "uint256",
          "name": "_index",
          "type": "uint256"
        }
      ],
      "name": "fetchCandidateByIndex",
      "outputs": [
        {
          "components": [
            {
              "internalType": "string",
              "name": "id",
              "type": "string"
            },
            {
              "internalType": "string",
              "name": "candidateName",
              "type": "string"
            },
            {
              "internalType": "string",
              "name": "partyName",
              "type": "string"
            },
            {
              "internalType": "string",
              "name": "candidateEmail",
              "type": "string"
            },
            {
              "internalType": "string",
              "name": "candidateFatherName",
              "type": "string"
            },
            {
              "internalType": "string",
              "name": "candidateMobile",
              "type": "string"
            },
            {
              "internalType": "string",
              "name": "candidateAddress",
              "type": "string"
            },
            {
              "internalType": "string",
              "name": "candidateDOB",
              "type": "string"
            },
            {
              "internalType": "string",
              "name": "candidateGender",
              "type": "string"
            },
            {
              "internalType": "uint256",
              "name": "totalVotes",
              "type": "uint256"
            }
          ],
          "internalType": "struct Election.candidateInfo",
          "name": "",
          "type": "tuple"
        }
      ],
      "stateMutability": "view",
      "type": "function"
    },
    {
      "inputs": [
        {
          "internalType": "string",
          "name": "_id",
          "type": "string"
        }
      ],
      "name": "increaseVote",
      "outputs": [],
      "stateMutability": "nonpayable",
      "type": "function"
    },
    {
      "inputs": [],
      "name": "incrementCurrentID",
      "outputs": [],
      "stateMutability": "nonpayable",
      "type": "function"
    },
    {
      "inputs": [
        {
          "internalType": "string",
          "name": "_electionName",
          "type": "string"
        },
        {
          "internalType": "string",
          "name": "_electionDistrict",
          "type": "string"
        },
        {
          "internalType": "string",
          "name": "_electionDate",
          "type": "string"
        },
        {
          "internalType": "string",
          "name": "_electionStartingTime",
          "type": "string"
        },
        {
          "internalType": "string",
          "name": "_electionEndingTime",
          "type": "string"
        }
      ],
      "name": "createElection",
      "outputs": [],
      "stateMutability": "nonpayable",
      "type": "function"
    },
    {
      "inputs": [
        {
          "internalType": "uint256",
          "name": "_id",
          "type": "uint256"
        }
      ],
      "name": "showElectionInfo",
      "outputs": [
        {
          "components": [
            {
              "internalType": "uint256",
              "name": "id",
              "type": "uint256"
            },
            {
              "internalType": "string",
              "name": "electionName",
              "type": "string"
            },
            {
              "internalType": "string",
              "name": "electionDistrict",
              "type": "string"
            },
            {
              "internalType": "string",
              "name": "electionDate",
              "type": "string"
            },
            {
              "internalType": "string",
              "name": "startingTime",
              "type": "string"
            },
            {
              "internalType": "string",
              "name": "endingTime",
              "type": "string"
            },
            {
              "internalType": "uint256",
              "name": "totalVotes",
              "type": "uint256"
            }
          ],
          "internalType": "struct Election.electionInfo",
          "name": "",
          "type": "tuple"
        }
      ],
      "stateMutability": "view",
      "type": "function"
    }
  ],
  "bytecode": "0x608060405260006004553480156200001657600080fd5b50620000a76040518060200160405280600081525060405180602001604052806000815250604051806020016040528060008152506040518060200160405280600081525060405180602001604052806000815250604051806020016040528060008152506040518060200160405280600081525060405180602001604052806000815250620001ad60201b60201c565b620001476040518060200160405280600081525060405180602001604052806000815250604051806020016040528060008152506040518060200160405280600081525060405180602001604052806000815250604051806020016040528060008152506040518060200160405280600081525060405180602001604052806000815250604051806020016040528060008152506200037860201b60201c565b620001a760405180602001604052806000815250604051806020016040528060008152506040518060200160405280600081525060405180602001604052806000815250604051806020016040528060008152506200055260201b60201c565b62000942565b60006040518061012001604052808a8152602001898152602001888152602001878152602001868152602001858152602001848152602001838152602001600015158152509080600181540180825580915050600190039060005260206000209060090201600090919091909150600082015181600001908051906020019062000239929190620006c1565b50602082015181600101908051906020019062000258929190620006c1565b50604082015181600201908051906020019062000277929190620006c1565b50606082015181600301908051906020019062000296929190620006c1565b506080820151816004019080519060200190620002b5929190620006c1565b5060a0820151816005019080519060200190620002d4929190620006c1565b5060c0820151816006019080519060200190620002f3929190620006c1565b5060e082015181600701908051906020019062000312929190620006c1565b506101008201518160080160006101000a81548160ff021916908315150217905550505060016000805490506200034a9190620007aa565b6001896040516200035c919062000868565b9081526020016040518091039020819055505050505050505050565b60026040518061014001604052808b81526020018a8152602001898152602001888152602001878152602001868152602001858152602001848152602001838152602001600081525090806001815401808255809150506001900390600052602060002090600a0201600090919091909150600082015181600001908051906020019062000408929190620006c1565b50602082015181600101908051906020019062000427929190620006c1565b50604082015181600201908051906020019062000446929190620006c1565b50606082015181600301908051906020019062000465929190620006c1565b50608082015181600401908051906020019062000484929190620006c1565b5060a0820151816005019080519060200190620004a3929190620006c1565b5060c0820151816006019080519060200190620004c2929190620006c1565b5060e0820151816007019080519060200190620004e1929190620006c1565b5061010082015181600801908051906020019062000501929190620006c1565b50610120820151816009015550506001600280549050620005239190620007aa565b60038a60405162000535919062000868565b908152602001604051809103902081905550505050505050505050565b60056040518060e00160405280600454815260200187815260200186815260200185815260200184815260200183815260200160008152509080600181540180825580915050600190039060005260206000209060070201600090919091909150600082015181600001556020820151816001019080519060200190620005db929190620006c1565b506040820151816002019080519060200190620005fa929190620006c1565b50606082015181600301908051906020019062000619929190620006c1565b50608082015181600401908051906020019062000638929190620006c1565b5060a082015181600501908051906020019062000657929190620006c1565b5060c0820151816006015550506001600580549050620006789190620007aa565b60066000600454815260200190815260200160002081905550620006a1620006a860201b60201c565b5050505050565b6001600454620006b9919062000881565b600481905550565b828054620006cf906200090d565b90600052602060002090601f016020900481019282620006f357600085556200073f565b82601f106200070e57805160ff19168380011785556200073f565b828001600101855582156200073f579182015b828111156200073e57825182559160200191906001019062000721565b5b5090506200074e919062000752565b5090565b5b808211156200076d57600081600090555060010162000753565b5090565b6000819050919050565b7f4e487b7100000000000000000000000000000000000000000000000000000000600052601160045260246000fd5b6000620007b78262000771565b9150620007c48362000771565b925082821015620007da57620007d96200077b565b5b828203905092915050565b600081519050919050565b600081905092915050565b60005b838110156200081b578082015181840152602081019050620007fe565b838111156200082b576000848401525b50505050565b60006200083e82620007e5565b6200084a8185620007f0565b93506200085c818560208601620007fb565b80840191505092915050565b600062000876828462000831565b915081905092915050565b60006200088e8262000771565b91506200089b8362000771565b9250827fffffffffffffffffffffffffffffffffffffffffffffffffffffffffffffffff03821115620008d357620008d26200077b565b5b828201905092915050565b7f4e487b7100000000000000000000000000000000000000000000000000000000600052602260045260246000fd5b600060028204905060018216806200092657607f821691505b6020821081036200093c576200093b620008de565b5b50919050565b6129d380620009526000396000f3fe608060405234801561001057600080fd5b50600436106100f55760003560e01c8063529102411161009757806368aaf76a1161006657806368aaf76a1461029a57806370d7e811146102b6578063cb9dfaa5146102e6578063e69906ac14610302576100f5565b8063529102411461021257806358ba9aad146102425780635ba961fb146102725780635f5300ff1461027c576100f5565b80631f5fb391116100d35780631f5fb3911461017857806324d69dcd146101a85780633866965c146101d857806350efbc75146101f6576100f5565b806310430374146100fa5780631c75cfb41461012a5780631ccba2dd14610148575b600080fd5b610114600480360381019061010f9190611ef1565b61031e565b60405161012191906120ed565b60405180910390f35b6101326108a5565b60405161013f919061211e565b60405180910390f35b610162600480360381019061015d9190612165565b6108ab565b60405161016f919061224a565b60405180910390f35b610192600480360381019061018d9190611ef1565b610be8565b60405161019f919061211e565b60405180910390f35b6101c260048036038101906101bd9190611ef1565b610c16565b6040516101cf919061237d565b60405180910390f35b6101e061111c565b6040516101ed919061211e565b60405180910390f35b610210600480360381019061020b919061239f565b611129565b005b61022c60048036038101906102279190611ef1565b61126b565b604051610239919061211e565b60405180910390f35b61025c60048036038101906102579190612165565b611299565b60405161026991906120ed565b60405180910390f35b61027a611802565b005b610284611819565b604051610291919061211e565b60405180910390f35b6102b460048036038101906102af9190611ef1565b611825565b005b6102d060048036038101906102cb9190612165565b611883565b6040516102dd919061211e565b60405180910390f35b61030060048036038101906102fb91906124a6565b61189b565b005b61031c6004803603810190610317919061263c565b611a52565b005b610326611c16565b6002600383604051610338919061283e565b9081526020016040518091039020548154811061035857610357612855565b5b90600052602060002090600a020160405180610140016040529081600082018054610382906128b3565b80601f01602080910402602001604051908101604052809291908181526020018280546103ae906128b3565b80156103fb5780601f106103d0576101008083540402835291602001916103fb565b820191906000526020600020905b8154815290600101906020018083116103de57829003601f168201915b50505050508152602001600182018054610414906128b3565b80601f0160208091040260200160405190810160405280929190818152602001828054610440906128b3565b801561048d5780601f106104625761010080835404028352916020019161048d565b820191906000526020600020905b81548152906001019060200180831161047057829003601f168201915b505050505081526020016002820180546104a6906128b3565b80601f01602080910402602001604051908101604052809291908181526020018280546104d2906128b3565b801561051f5780601f106104f45761010080835404028352916020019161051f565b820191906000526020600020905b81548152906001019060200180831161050257829003601f168201915b50505050508152602001600382018054610538906128b3565b80601f0160208091040260200160405190810160405280929190818152602001828054610564906128b3565b80156105b15780601f10610586576101008083540402835291602001916105b1565b820191906000526020600020905b81548152906001019060200180831161059457829003601f168201915b505050505081526020016004820180546105ca906128b3565b80601f01602080910402602001604051908101604052809291908181526020018280546105f6906128b3565b80156106435780601f1061061857610100808354040283529160200191610643565b820191906000526020600020905b81548152906001019060200180831161062657829003601f168201915b5050505050815260200160058201805461065c906128b3565b80601f0160208091040260200160405190810160405280929190818152602001828054610688906128b3565b80156106d55780601f106106aa576101008083540402835291602001916106d5565b820191906000526020600020905b8154815290600101906020018083116106b857829003601f168201915b505050505081526020016006820180546106ee906128b3565b80601f016020809104026020016040519081016040528092919081815260200182805461071a906128b3565b80156107675780601f1061073c57610100808354040283529160200191610767565b820191906000526020600020905b81548152906001019060200180831161074a57829003601f168201915b50505050508152602001600782018054610780906128b3565b80601f01602080910402602001604051908101604052809291908181526020018280546107ac906128b3565b80156107f95780601f106107ce576101008083540402835291602001916107f9565b820191906000526020600020905b8154815290600101906020018083116107dc57829003601f168201915b50505050508152602001600882018054610812906128b3565b80601f016020809104026020016040519081016040528092919081815260200182805461083e906128b3565b801561088b5780601f106108605761010080835404028352916020019161088b565b820191906000526020600020905b81548152906001019060200180831161086e57829003601f168201915b505050505081526020016009820154815250509050919050565b60045481565b6108b3611c69565b60056006600084815260200190815260200160002054815481106108da576108d9612855565b5b90600052602060002090600702016040518060e00160405290816000820154815260200160018201805461090d906128b3565b80601f0160208091040260200160405190810160405280929190818152602001828054610939906128b3565b80156109865780601f1061095b57610100808354040283529160200191610986565b820191906000526020600020905b81548152906001019060200180831161096957829003601f168201915b5050505050815260200160028201805461099f906128b3565b80601f01602080910402602001604051908101604052809291908181526020018280546109cb906128b3565b8015610a185780601f106109ed57610100808354040283529160200191610a18565b820191906000526020600020905b8154815290600101906020018083116109fb57829003601f168201915b50505050508152602001600382018054610a31906128b3565b80601f0160208091040260200160405190810160405280929190818152602001828054610a5d906128b3565b8015610aaa5780601f10610a7f57610100808354040283529160200191610aaa565b820191906000526020600020905b815481529060010190602001808311610a8d57829003601f168201915b50505050508152602001600482018054610ac3906128b3565b80601f0160208091040260200160405190810160405280929190818152602001828054610aef906128b3565b8015610b3c5780601f10610b1157610100808354040283529160200191610b3c565b820191906000526020600020905b815481529060010190602001808311610b1f57829003601f168201915b50505050508152602001600582018054610b55906128b3565b80601f0160208091040260200160405190810160405280929190818152602001828054610b81906128b3565b8015610bce5780601f10610ba357610100808354040283529160200191610bce565b820191906000526020600020905b815481529060010190602001808311610bb157829003601f168201915b505050505081526020016006820154815250509050919050565b6001818051602081018201805184825260208301602085012081835280955050505050506000915090505481565b610c1e611ca6565b6000600183604051610c30919061283e565b90815260200160405180910390205481548110610c5057610c4f612855565b5b906000526020600020906009020160405180610120016040529081600082018054610c7a906128b3565b80601f0160208091040260200160405190810160405280929190818152602001828054610ca6906128b3565b8015610cf35780601f10610cc857610100808354040283529160200191610cf3565b820191906000526020600020905b815481529060010190602001808311610cd657829003601f168201915b50505050508152602001600182018054610d0c906128b3565b80601f0160208091040260200160405190810160405280929190818152602001828054610d38906128b3565b8015610d855780601f10610d5a57610100808354040283529160200191610d85565b820191906000526020600020905b815481529060010190602001808311610d6857829003601f168201915b50505050508152602001600282018054610d9e906128b3565b80601f0160208091040260200160405190810160405280929190818152602001828054610dca906128b3565b8015610e175780601f10610dec57610100808354040283529160200191610e17565b820191906000526020600020905b815481529060010190602001808311610dfa57829003601f168201915b50505050508152602001600382018054610e30906128b3565b80601f0160208091040260200160405190810160405280929190818152602001828054610e5c906128b3565b8015610ea95780601f10610e7e57610100808354040283529160200191610ea9565b820191906000526020600020905b815481529060010190602001808311610e8c57829003601f168201915b50505050508152602001600482018054610ec2906128b3565b80601f0160208091040260200160405190810160405280929190818152602001828054610eee906128b3565b8015610f3b5780601f10610f1057610100808354040283529160200191610f3b565b820191906000526020600020905b815481529060010190602001808311610f1e57829003601f168201915b50505050508152602001600582018054610f54906128b3565b80601f0160208091040260200160405190810160405280929190818152602001828054610f80906128b3565b8015610fcd5780601f10610fa257610100808354040283529160200191610fcd565b820191906000526020600020905b815481529060010190602001808311610fb057829003601f168201915b50505050508152602001600682018054610fe6906128b3565b80601f0160208091040260200160405190810160405280929190818152602001828054611012906128b3565b801561105f5780601f106110345761010080835404028352916020019161105f565b820191906000526020600020905b81548152906001019060200180831161104257829003601f168201915b50505050508152602001600782018054611078906128b3565b80601f01602080910402602001604051908101604052809291908181526020018280546110a4906128b3565b80156110f15780601f106110c6576101008083540402835291602001916110f1565b820191906000526020600020905b8154815290600101906020018083116110d457829003601f168201915b505050505081526020016008820160009054906101000a900460ff1615151515815250509050919050565b6000600280549050905090565b60056040518060e001604052806004548152602001878152602001868152602001858152602001848152602001838152602001600081525090806001815401808255809150506001900390600052602060002090600702016000909190919091506000820151816000015560208201518160010190805190602001906111b0929190611cf4565b5060408201518160020190805190602001906111cd929190611cf4565b5060608201518160030190805190602001906111ea929190611cf4565b506080820151816004019080519060200190611207929190611cf4565b5060a0820151816005019080519060200190611224929190611cf4565b5060c08201518160060155505060016005805490506112439190612913565b60066000600454815260200190815260200160002081905550611264611802565b5050505050565b6003818051602081018201805184825260208301602085012081835280955050505050506000915090505481565b6112a1611c16565b600282815481106112b5576112b4612855565b5b90600052602060002090600a0201604051806101400160405290816000820180546112df906128b3565b80601f016020809104026020016040519081016040528092919081815260200182805461130b906128b3565b80156113585780601f1061132d57610100808354040283529160200191611358565b820191906000526020600020905b81548152906001019060200180831161133b57829003601f168201915b50505050508152602001600182018054611371906128b3565b80601f016020809104026020016040519081016040528092919081815260200182805461139d906128b3565b80156113ea5780601f106113bf576101008083540402835291602001916113ea565b820191906000526020600020905b8154815290600101906020018083116113cd57829003601f168201915b50505050508152602001600282018054611403906128b3565b80601f016020809104026020016040519081016040528092919081815260200182805461142f906128b3565b801561147c5780601f106114515761010080835404028352916020019161147c565b820191906000526020600020905b81548152906001019060200180831161145f57829003601f168201915b50505050508152602001600382018054611495906128b3565b80601f01602080910402602001604051908101604052809291908181526020018280546114c1906128b3565b801561150e5780601f106114e35761010080835404028352916020019161150e565b820191906000526020600020905b8154815290600101906020018083116114f157829003601f168201915b50505050508152602001600482018054611527906128b3565b80601f0160208091040260200160405190810160405280929190818152602001828054611553906128b3565b80156115a05780601f10611575576101008083540402835291602001916115a0565b820191906000526020600020905b81548152906001019060200180831161158357829003601f168201915b505050505081526020016005820180546115b9906128b3565b80601f01602080910402602001604051908101604052809291908181526020018280546115e5906128b3565b80156116325780601f1061160757610100808354040283529160200191611632565b820191906000526020600020905b81548152906001019060200180831161161557829003601f168201915b5050505050815260200160068201805461164b906128b3565b80601f0160208091040260200160405190810160405280929190818152602001828054611677906128b3565b80156116c45780601f10611699576101008083540402835291602001916116c4565b820191906000526020600020905b8154815290600101906020018083116116a757829003601f168201915b505050505081526020016007820180546116dd906128b3565b80601f0160208091040260200160405190810160405280929190818152602001828054611709906128b3565b80156117565780601f1061172b57610100808354040283529160200191611756565b820191906000526020600020905b81548152906001019060200180831161173957829003601f168201915b5050505050815260200160088201805461176f906128b3565b80601f016020809104026020016040519081016040528092919081815260200182805461179b906128b3565b80156117e85780601f106117bd576101008083540402835291602001916117e8565b820191906000526020600020905b8154815290600101906020018083116117cb57829003601f168201915b505050505081526020016009820154815250509050919050565b60016004546118119190612947565b600481905550565b60008080549050905090565b60016002600383604051611839919061283e565b9081526020016040518091039020548154811061185957611858612855565b5b90600052602060002090600a020160090160008282546118799190612947565b9250508190555050565b60066020528060005260406000206000915090505481565b60006040518061012001604052808a81526020018981526020018881526020018781526020018681526020018581526020018481526020018381526020016000151581525090806001815401808255809150506001900390600052602060002090600902016000909190919091506000820151816000019080519060200190611925929190611cf4565b506020820151816001019080519060200190611942929190611cf4565b50604082015181600201908051906020019061195f929190611cf4565b50606082015181600301908051906020019061197c929190611cf4565b506080820151816004019080519060200190611999929190611cf4565b5060a08201518160050190805190602001906119b6929190611cf4565b5060c08201518160060190805190602001906119d3929190611cf4565b5060e08201518160070190805190602001906119f0929190611cf4565b506101008201518160080160006101000a81548160ff02191690831515021790555050506001600080549050611a269190612913565b600189604051611a36919061283e565b9081526020016040518091039020819055505050505050505050565b60026040518061014001604052808b81526020018a8152602001898152602001888152602001878152602001868152602001858152602001848152602001838152602001600081525090806001815401808255809150506001900390600052602060002090600a02016000909190919091506000820151816000019080519060200190611ae0929190611cf4565b506020820151816001019080519060200190611afd929190611cf4565b506040820151816002019080519060200190611b1a929190611cf4565b506060820151816003019080519060200190611b37929190611cf4565b506080820151816004019080519060200190611b54929190611cf4565b5060a0820151816005019080519060200190611b71929190611cf4565b5060c0820151816006019080519060200190611b8e929190611cf4565b5060e0820151816007019080519060200190611bab929190611cf4565b50610100820151816008019080519060200190611bc9929190611cf4565b50610120820151816009015550506001600280549050611be99190612913565b60038a604051611bf9919061283e565b908152602001604051809103902081905550505050505050505050565b604051806101400160405280606081526020016060815260200160608152602001606081526020016060815260200160608152602001606081526020016060815260200160608152602001600081525090565b6040518060e00160405280600081526020016060815260200160608152602001606081526020016060815260200160608152602001600081525090565b60405180610120016040528060608152602001606081526020016060815260200160608152602001606081526020016060815260200160608152602001606081526020016000151581525090565b828054611d00906128b3565b90600052602060002090601f016020900481019282611d225760008555611d69565b82601f10611d3b57805160ff1916838001178555611d69565b82800160010185558215611d69579182015b82811115611d68578251825591602001919060010190611d4d565b5b509050611d769190611d7a565b5090565b5b80821115611d93576000816000905550600101611d7b565b5090565b6000604051905090565b600080fd5b600080fd5b600080fd5b600080fd5b6000601f19601f8301169050919050565b7f4e487b7100000000000000000000000000000000000000000000000000000000600052604160045260246000fd5b611dfe82611db5565b810181811067ffffffffffffffff82111715611e1d57611e1c611dc6565b5b80604052505050565b6000611e30611d97565b9050611e3c8282611df5565b919050565b600067ffffffffffffffff821115611e5c57611e5b611dc6565b5b611e6582611db5565b9050602081019050919050565b82818337600083830152505050565b6000611e94611e8f84611e41565b611e26565b905082815260208101848484011115611eb057611eaf611db0565b5b611ebb848285611e72565b509392505050565b600082601f830112611ed857611ed7611dab565b5b8135611ee8848260208601611e81565b91505092915050565b600060208284031215611f0757611f06611da1565b5b600082013567ffffffffffffffff811115611f2557611f24611da6565b5b611f3184828501611ec3565b91505092915050565b600081519050919050565b600082825260208201905092915050565b60005b83811015611f74578082015181840152602081019050611f59565b83811115611f83576000848401525b50505050565b6000611f9482611f3a565b611f9e8185611f45565b9350611fae818560208601611f56565b611fb781611db5565b840191505092915050565b6000819050919050565b611fd581611fc2565b82525050565b6000610140830160008301518482036000860152611ff98282611f89565b915050602083015184820360208601526120138282611f89565b9150506040830151848203604086015261202d8282611f89565b915050606083015184820360608601526120478282611f89565b915050608083015184820360808601526120618282611f89565b91505060a083015184820360a086015261207b8282611f89565b91505060c083015184820360c08601526120958282611f89565b91505060e083015184820360e08601526120af8282611f89565b9150506101008301518482036101008601526120cb8282611f89565b9150506101208301516120e2610120860182611fcc565b508091505092915050565b600060208201905081810360008301526121078184611fdb565b905092915050565b61211881611fc2565b82525050565b6000602082019050612133600083018461210f565b92915050565b61214281611fc2565b811461214d57600080fd5b50565b60008135905061215f81612139565b92915050565b60006020828403121561217b5761217a611da1565b5b600061218984828501612150565b91505092915050565b600060e0830160008301516121aa6000860182611fcc565b50602083015184820360208601526121c28282611f89565b915050604083015184820360408601526121dc8282611f89565b915050606083015184820360608601526121f68282611f89565b915050608083015184820360808601526122108282611f89565b91505060a083015184820360a086015261222a8282611f89565b91505060c083015161223f60c0860182611fcc565b508091505092915050565b600060208201905081810360008301526122648184612192565b905092915050565b60008115159050919050565b6122818161226c565b82525050565b60006101208301600083015184820360008601526122a58282611f89565b915050602083015184820360208601526122bf8282611f89565b915050604083015184820360408601526122d98282611f89565b915050606083015184820360608601526122f38282611f89565b9150506080830151848203608086015261230d8282611f89565b91505060a083015184820360a08601526123278282611f89565b91505060c083015184820360c08601526123418282611f89565b91505060e083015184820360e086015261235b8282611f89565b915050610100830151612372610100860182612278565b508091505092915050565b600060208201905081810360008301526123978184612287565b905092915050565b600080600080600060a086880312156123bb576123ba611da1565b5b600086013567ffffffffffffffff8111156123d9576123d8611da6565b5b6123e588828901611ec3565b955050602086013567ffffffffffffffff81111561240657612405611da6565b5b61241288828901611ec3565b945050604086013567ffffffffffffffff81111561243357612432611da6565b5b61243f88828901611ec3565b935050606086013567ffffffffffffffff8111156124605761245f611da6565b5b61246c88828901611ec3565b925050608086013567ffffffffffffffff81111561248d5761248c611da6565b5b61249988828901611ec3565b9150509295509295909350565b600080600080600080600080610100898b0312156124c7576124c6611da1565b5b600089013567ffffffffffffffff8111156124e5576124e4611da6565b5b6124f18b828c01611ec3565b985050602089013567ffffffffffffffff81111561251257612511611da6565b5b61251e8b828c01611ec3565b975050604089013567ffffffffffffffff81111561253f5761253e611da6565b5b61254b8b828c01611ec3565b965050606089013567ffffffffffffffff81111561256c5761256b611da6565b5b6125788b828c01611ec3565b955050608089013567ffffffffffffffff81111561259957612598611da6565b5b6125a58b828c01611ec3565b94505060a089013567ffffffffffffffff8111156125c6576125c5611da6565b5b6125d28b828c01611ec3565b93505060c089013567ffffffffffffffff8111156125f3576125f2611da6565b5b6125ff8b828c01611ec3565b92505060e089013567ffffffffffffffff8111156126205761261f611da6565b5b61262c8b828c01611ec3565b9150509295985092959890939650565b60008060008060008060008060006101208a8c03121561265f5761265e611da1565b5b60008a013567ffffffffffffffff81111561267d5761267c611da6565b5b6126898c828d01611ec3565b99505060208a013567ffffffffffffffff8111156126aa576126a9611da6565b5b6126b68c828d01611ec3565b98505060408a013567ffffffffffffffff8111156126d7576126d6611da6565b5b6126e38c828d01611ec3565b97505060608a013567ffffffffffffffff81111561270457612703611da6565b5b6127108c828d01611ec3565b96505060808a013567ffffffffffffffff81111561273157612730611da6565b5b61273d8c828d01611ec3565b95505060a08a013567ffffffffffffffff81111561275e5761275d611da6565b5b61276a8c828d01611ec3565b94505060c08a013567ffffffffffffffff81111561278b5761278a611da6565b5b6127978c828d01611ec3565b93505060e08a013567ffffffffffffffff8111156127b8576127b7611da6565b5b6127c48c828d01611ec3565b9250506101008a013567ffffffffffffffff8111156127e6576127e5611da6565b5b6127f28c828d01611ec3565b9150509295985092959850929598565b600081905092915050565b600061281882611f3a565b6128228185612802565b9350612832818560208601611f56565b80840191505092915050565b600061284a828461280d565b915081905092915050565b7f4e487b7100000000000000000000000000000000000000000000000000000000600052603260045260246000fd5b7f4e487b7100000000000000000000000000000000000000000000000000000000600052602260045260246000fd5b600060028204905060018216806128cb57607f821691505b6020821081036128de576128dd612884565b5b50919050565b7f4e487b7100000000000000000000000000000000000000000000000000000000600052601160045260246000fd5b600061291e82611fc2565b915061292983611fc2565b92508282101561293c5761293b6128e4565b5b828203905092915050565b600061295282611fc2565b915061295d83611fc2565b9250827fffffffffffffffffffffffffffffffffffffffffffffffffffffffffffffffff03821115612992576129916128e4565b5b82820190509291505056fea26469706673582212209437944f65ddcde217b2cf1ed4a4b18b1882382f76737d63daadb52516c163d164736f6c634300080e0033",
  "immutableReferences": {},
  "source": "//SPDX-License-Identifier: MIT\npragma solidity ^0.8.0;\n\n\ncontract Election\n{\n\n    // voter info structure\n    struct voterInfo\n    {\n        string epic;\n        string voterName;\n        string voterFatherName;\n        string voterEmail;\n        string voterMobile;\n        string voterDOB;\n        string voterAddress;\n        string voterGender;\n        bool isVoted;\n    }\n\n    voterInfo[] allVoters;\n    mapping(string => uint) public voterSearch ;      // epic => index\n\n    // stores voter info on blockchain\n    function registerVoter(string memory _epic,string memory _voterName,string memory _voterFatherName,string memory _voterEmail,string memory _voterMobile,string memory _voterDOB,string memory _voterAddress,string memory _voterGender) public \n    {\n        allVoters.push(voterInfo(_epic,_voterName,_voterFatherName,_voterEmail,_voterMobile,_voterDOB,_voterAddress,_voterGender,false));\n        voterSearch[_epic]=allVoters.length-1;\n    }\n    \n    // reterive voter info from blockchain\n    function showVoterInfo(string memory _epic) view public returns(voterInfo memory)\n    {\n        return allVoters[voterSearch[_epic]];\n    }\n\n    // count total voters\n    function totalVoters() view public  returns(uint)\n    {\n        return allVoters.length;\n    }\n\n\n    // candidate info structure\n    struct candidateInfo\n    {\n        string id;\n        string candidateName;\n        string partyName;\n        string candidateEmail;\n        string candidateFatherName;\n        string candidateMobile;\n        string candidateAddress;\n        string candidateDOB;\n        string candidateGender;\n        uint totalVotes;\n        \n    }\n\n    candidateInfo[] allCandidates;\n    mapping(string => uint) public candidateSearch ;      // id => index\n\n    // stores candidate info on blockchain\n    function registerCandidate(string memory _id,string memory _candidateName,string memory _party,string memory __candidateEmail,string memory _candidateFatherName,string memory _candidateMobile,string memory _candidateAddress,string memory _candidateDOB,string memory _candidateGender) public \n    {\n        allCandidates.push( candidateInfo(_id,_candidateName,_party,__candidateEmail,_candidateFatherName,_candidateMobile,_candidateAddress,_candidateDOB,_candidateGender,0) );\n        candidateSearch[_id]=allCandidates.length-1;\n    \n    }\n    \n    // reterive candidate info from blockchain\n    function showCandidateInfo(string memory _id) view public returns(candidateInfo memory)\n    {\n        return allCandidates[candidateSearch[_id]];\n    }\n\n    // count total candidates\n    function totalCandidates() view public  returns(uint)\n    {\n        return allCandidates.length;\n    }\n\n    function fetchCandidateByIndex(uint _index) view public returns(candidateInfo memory)\n    {\n        return allCandidates[_index];\n    }\n\n    //function checkVoted(string memory _epic) view public returns(bool)\n    //{\n      //  retuallVoters[voterSearch[_epic]].isVoted\n    //}\n    function increaseVote(string memory _id) public\n    {\n        allCandidates[candidateSearch[_id]].totalVotes+=1;\n    }\n\n    // election info structure\n    struct electionInfo\n    {\n        uint id;\n        string electionName;\n        string electionDistrict;\n        string electionDate;\n        string startingTime;\n        string endingTime;\n        uint totalVotes;\n\n    }\n    uint public currentID=0;\n    function incrementCurrentID() public\n    {\n        currentID=currentID+1;\n    }\n\n    electionInfo[] allElections;\n    mapping(uint => uint) public electionSearch ;      // id => index\n\n    function createElection(string memory _electionName,string memory _electionDistrict,string memory _electionDate,string memory _electionStartingTime,string memory _electionEndingTime) public\n    {\n        allElections.push(electionInfo(currentID,_electionName,_electionDistrict,_electionDate,_electionStartingTime,_electionEndingTime,0));\n        electionSearch[currentID]=allElections.length-1;\n        incrementCurrentID();\n    }\n\n    function showElectionInfo(uint _id) view public returns(electionInfo memory)\n    {\n        return allElections[electionSearch[_id]];\n    }\n\n\n\n\n\n    // constructor for first Empty Records\n    constructor() \n    {\n        registerVoter(\"\",\"\",\"\",\"\",\"\",\"\",\"\",\"\");\n        registerCandidate(\"\",\"\",\"\",\"\",\"\",\"\",\"\",\"\",\"\");\n        createElection(\"\",\"\",\"\",\"\",\"\");\n    }\n\n}",
  "sourcePath": "/home/abhi/blockchain-voting/truffle/contracts/election.sol",
  "compiler": {
    "name": "solc",
    "version": "0.8.14+commit.80d49f37.Emscripten.clang"
  },
  "schemaVersion": "3.4.10",
  "updatedAt": "2022-10-28T09:17:30.532Z",
  "devdoc": {
    "kind": "dev",
    "methods": {},
    "version": 1
  },
  "userdoc": {
    "kind": "user",
    "methods": {},
    "version": 1
  }
}