{
  "contractName": "election",
  "abi": [
    {
      "inputs": [],
      "stateMutability": "nonpayable",
      "type": "constructor"
    },
    {
      "inputs": [
        {
          "internalType": "string",
          "name": "",
          "type": "string"
        }
      ],
      "name": "candidateSearch",
      "outputs": [
        {
          "internalType": "uint256",
          "name": "",
          "type": "uint256"
        }
      ],
      "stateMutability": "view",
      "type": "function",
      "constant": true
    },
    {
      "inputs": [],
      "name": "currentID",
      "outputs": [
        {
          "internalType": "uint256",
          "name": "",
          "type": "uint256"
        }
      ],
      "stateMutability": "view",
      "type": "function",
      "constant": true
    },
    {
      "inputs": [
        {
          "internalType": "uint256",
          "name": "",
          "type": "uint256"
        }
      ],
      "name": "electionSearch",
      "outputs": [
        {
          "internalType": "uint256",
          "name": "",
          "type": "uint256"
        }
      ],
      "stateMutability": "view",
      "type": "function",
      "constant": true
    },
    {
      "inputs": [
        {
          "internalType": "string",
          "name": "",
          "type": "string"
        }
      ],
      "name": "electionSearchDistrict",
      "outputs": [
        {
          "internalType": "uint256",
          "name": "",
          "type": "uint256"
        }
      ],
      "stateMutability": "view",
      "type": "function",
      "constant": true
    },
    {
      "inputs": [
        {
          "internalType": "string",
          "name": "",
          "type": "string"
        }
      ],
      "name": "voterSearch",
      "outputs": [
        {
          "internalType": "uint256",
          "name": "",
          "type": "uint256"
        }
      ],
      "stateMutability": "view",
      "type": "function",
      "constant": true
    },
    {
      "inputs": [
        {
          "internalType": "string",
          "name": "_epic",
          "type": "string"
        },
        {
          "internalType": "string",
          "name": "_voterName",
          "type": "string"
        },
        {
          "internalType": "string",
          "name": "_voterFatherName",
          "type": "string"
        },
        {
          "internalType": "string",
          "name": "_voterEmail",
          "type": "string"
        },
        {
          "internalType": "string",
          "name": "_voterMobile",
          "type": "string"
        },
        {
          "internalType": "string",
          "name": "_voterDOB",
          "type": "string"
        },
        {
          "internalType": "string",
          "name": "_voterDistrict",
          "type": "string"
        },
        {
          "internalType": "string",
          "name": "_voterGender",
          "type": "string"
        }
      ],
      "name": "registerVoter",
      "outputs": [],
      "stateMutability": "nonpayable",
      "type": "function"
    },
    {
      "inputs": [
        {
          "internalType": "string",
          "name": "_epic",
          "type": "string"
        }
      ],
      "name": "showVoterInfo",
      "outputs": [
        {
          "components": [
            {
              "internalType": "string",
              "name": "epic",
              "type": "string"
            },
            {
              "internalType": "string",
              "name": "voterName",
              "type": "string"
            },
            {
              "internalType": "string",
              "name": "voterFatherName",
              "type": "string"
            },
            {
              "internalType": "string",
              "name": "voterEmail",
              "type": "string"
            },
            {
              "internalType": "string",
              "name": "voterMobile",
              "type": "string"
            },
            {
              "internalType": "string",
              "name": "voterDOB",
              "type": "string"
            },
            {
              "internalType": "string",
              "name": "voterDistrict",
              "type": "string"
            },
            {
              "internalType": "string",
              "name": "voterGender",
              "type": "string"
            },
            {
              "internalType": "bool",
              "name": "isVoted",
              "type": "bool"
            }
          ],
          "internalType": "struct election.voterInfo",
          "name": "",
          "type": "tuple"
        }
      ],
      "stateMutability": "view",
      "type": "function",
      "constant": true
    },
    {
      "inputs": [],
      "name": "totalVoters",
      "outputs": [
        {
          "internalType": "uint256",
          "name": "",
          "type": "uint256"
        }
      ],
      "stateMutability": "view",
      "type": "function",
      "constant": true
    },
    {
      "inputs": [
        {
          "internalType": "uint256",
          "name": "_index",
          "type": "uint256"
        }
      ],
      "name": "fetchVoterByIndex",
      "outputs": [
        {
          "components": [
            {
              "internalType": "string",
              "name": "epic",
              "type": "string"
            },
            {
              "internalType": "string",
              "name": "voterName",
              "type": "string"
            },
            {
              "internalType": "string",
              "name": "voterFatherName",
              "type": "string"
            },
            {
              "internalType": "string",
              "name": "voterEmail",
              "type": "string"
            },
            {
              "internalType": "string",
              "name": "voterMobile",
              "type": "string"
            },
            {
              "internalType": "string",
              "name": "voterDOB",
              "type": "string"
            },
            {
              "internalType": "string",
              "name": "voterDistrict",
              "type": "string"
            },
            {
              "internalType": "string",
              "name": "voterGender",
              "type": "string"
            },
            {
              "internalType": "bool",
              "name": "isVoted",
              "type": "bool"
            }
          ],
          "internalType": "struct election.voterInfo",
          "name": "",
          "type": "tuple"
        }
      ],
      "stateMutability": "view",
      "type": "function",
      "constant": true
    },
    {
      "inputs": [
        {
          "internalType": "string",
          "name": "_id",
          "type": "string"
        },
        {
          "internalType": "string",
          "name": "_candidateName",
          "type": "string"
        },
        {
          "internalType": "string",
          "name": "_party",
          "type": "string"
        },
        {
          "internalType": "string",
          "name": "__candidateEmail",
          "type": "string"
        },
        {
          "internalType": "string",
          "name": "_candidateFatherName",
          "type": "string"
        },
        {
          "internalType": "string",
          "name": "_candidateMobile",
          "type": "string"
        },
        {
          "internalType": "string",
          "name": "_candidateDistrict",
          "type": "string"
        },
        {
          "internalType": "string",
          "name": "_candidateDOB",
          "type": "string"
        },
        {
          "internalType": "string",
          "name": "_candidateGender",
          "type": "string"
        }
      ],
      "name": "registerCandidate",
      "outputs": [],
      "stateMutability": "nonpayable",
      "type": "function"
    },
    {
      "inputs": [
        {
          "internalType": "string",
          "name": "_id",
          "type": "string"
        }
      ],
      "name": "showCandidateInfo",
      "outputs": [
        {
          "components": [
            {
              "internalType": "string",
              "name": "id",
              "type": "string"
            },
            {
              "internalType": "string",
              "name": "candidateName",
              "type": "string"
            },
            {
              "internalType": "string",
              "name": "partyName",
              "type": "string"
            },
            {
              "internalType": "string",
              "name": "candidateEmail",
              "type": "string"
            },
            {
              "internalType": "string",
              "name": "candidateFatherName",
              "type": "string"
            },
            {
              "internalType": "string",
              "name": "candidateMobile",
              "type": "string"
            },
            {
              "internalType": "string",
              "name": "candidateDistrict",
              "type": "string"
            },
            {
              "internalType": "string",
              "name": "candidateDOB",
              "type": "string"
            },
            {
              "internalType": "string",
              "name": "candidateGender",
              "type": "string"
            },
            {
              "internalType": "uint256",
              "name": "totalVotes",
              "type": "uint256"
            }
          ],
          "internalType": "struct election.candidateInfo",
          "name": "",
          "type": "tuple"
        }
      ],
      "stateMutability": "view",
      "type": "function",
      "constant": true
    },
    {
      "inputs": [],
      "name": "totalCandidates",
      "outputs": [
        {
          "internalType": "uint256",
          "name": "",
          "type": "uint256"
        }
      ],
      "stateMutability": "view",
      "type": "function",
      "constant": true
    },
    {
      "inputs": [
        {
          "internalType": "uint256",
          "name": "_index",
          "type": "uint256"
        }
      ],
      "name": "fetchCandidateByIndex",
      "outputs": [
        {
          "components": [
            {
              "internalType": "string",
              "name": "id",
              "type": "string"
            },
            {
              "internalType": "string",
              "name": "candidateName",
              "type": "string"
            },
            {
              "internalType": "string",
              "name": "partyName",
              "type": "string"
            },
            {
              "internalType": "string",
              "name": "candidateEmail",
              "type": "string"
            },
            {
              "internalType": "string",
              "name": "candidateFatherName",
              "type": "string"
            },
            {
              "internalType": "string",
              "name": "candidateMobile",
              "type": "string"
            },
            {
              "internalType": "string",
              "name": "candidateDistrict",
              "type": "string"
            },
            {
              "internalType": "string",
              "name": "candidateDOB",
              "type": "string"
            },
            {
              "internalType": "string",
              "name": "candidateGender",
              "type": "string"
            },
            {
              "internalType": "uint256",
              "name": "totalVotes",
              "type": "uint256"
            }
          ],
          "internalType": "struct election.candidateInfo",
          "name": "",
          "type": "tuple"
        }
      ],
      "stateMutability": "view",
      "type": "function",
      "constant": true
    },
    {
      "inputs": [
        {
          "internalType": "string",
          "name": "_epic",
          "type": "string"
        }
      ],
      "name": "voterVoted",
      "outputs": [],
      "stateMutability": "nonpayable",
      "type": "function"
    },
    {
      "inputs": [
        {
          "internalType": "string",
          "name": "_id",
          "type": "string"
        }
      ],
      "name": "increaseVote",
      "outputs": [],
      "stateMutability": "nonpayable",
      "type": "function"
    },
    {
      "inputs": [],
      "name": "incrementCurrentID",
      "outputs": [],
      "stateMutability": "nonpayable",
      "type": "function"
    },
    {
      "inputs": [
        {
          "internalType": "string",
          "name": "_electionName",
          "type": "string"
        },
        {
          "internalType": "string",
          "name": "_electionDistrict",
          "type": "string"
        },
        {
          "internalType": "string",
          "name": "_electionDate",
          "type": "string"
        },
        {
          "internalType": "string",
          "name": "_electionStartingTime",
          "type": "string"
        },
        {
          "internalType": "string",
          "name": "_electionEndingTime",
          "type": "string"
        }
      ],
      "name": "createElection",
      "outputs": [],
      "stateMutability": "nonpayable",
      "type": "function"
    },
    {
      "inputs": [
        {
          "internalType": "uint256",
          "name": "_id",
          "type": "uint256"
        }
      ],
      "name": "showElectionInfo",
      "outputs": [
        {
          "components": [
            {
              "internalType": "uint256",
              "name": "id",
              "type": "uint256"
            },
            {
              "internalType": "string",
              "name": "electionName",
              "type": "string"
            },
            {
              "internalType": "string",
              "name": "electionDistrict",
              "type": "string"
            },
            {
              "internalType": "string",
              "name": "electionDate",
              "type": "string"
            },
            {
              "internalType": "string",
              "name": "startingTime",
              "type": "string"
            },
            {
              "internalType": "string",
              "name": "endingTime",
              "type": "string"
            },
            {
              "internalType": "uint256",
              "name": "totalVotes",
              "type": "uint256"
            }
          ],
          "internalType": "struct election.electionInfo",
          "name": "",
          "type": "tuple"
        }
      ],
      "stateMutability": "view",
      "type": "function",
      "constant": true
    },
    {
      "inputs": [],
      "name": "totalElections",
      "outputs": [
        {
          "internalType": "uint256",
          "name": "",
          "type": "uint256"
        }
      ],
      "stateMutability": "view",
      "type": "function",
      "constant": true
    },
    {
      "inputs": [
        {
          "internalType": "string",
          "name": "_district",
          "type": "string"
        }
      ],
      "name": "showElectionInfoByDistrict",
      "outputs": [
        {
          "components": [
            {
              "internalType": "uint256",
              "name": "id",
              "type": "uint256"
            },
            {
              "internalType": "string",
              "name": "electionName",
              "type": "string"
            },
            {
              "internalType": "string",
              "name": "electionDistrict",
              "type": "string"
            },
            {
              "internalType": "string",
              "name": "electionDate",
              "type": "string"
            },
            {
              "internalType": "string",
              "name": "startingTime",
              "type": "string"
            },
            {
              "internalType": "string",
              "name": "endingTime",
              "type": "string"
            },
            {
              "internalType": "uint256",
              "name": "totalVotes",
              "type": "uint256"
            }
          ],
          "internalType": "struct election.electionInfo",
          "name": "",
          "type": "tuple"
        }
      ],
      "stateMutability": "view",
      "type": "function",
      "constant": true
    }
  ],
  "bytecode": "0x608060405260006004553480156200001657600080fd5b50620000a76040518060200160405280600081525060405180602001604052806000815250604051806020016040528060008152506040518060200160405280600081525060405180602001604052806000815250604051806020016040528060008152506040518060200160405280600081525060405180602001604052806000815250620001ad60201b60201c565b620001476040518060200160405280600081525060405180602001604052806000815250604051806020016040528060008152506040518060200160405280600081525060405180602001604052806000815250604051806020016040528060008152506040518060200160405280600081525060405180602001604052806000815250604051806020016040528060008152506200037860201b60201c565b620001a760405180602001604052806000815250604051806020016040528060008152506040518060200160405280600081525060405180602001604052806000815250604051806020016040528060008152506200055260201b60201c565b6200097a565b60006040518061012001604052808a8152602001898152602001888152602001878152602001868152602001858152602001848152602001838152602001600015158152509080600181540180825580915050600190039060005260206000209060090201600090919091909150600082015181600001908051906020019062000239929190620006f9565b50602082015181600101908051906020019062000258929190620006f9565b50604082015181600201908051906020019062000277929190620006f9565b50606082015181600301908051906020019062000296929190620006f9565b506080820151816004019080519060200190620002b5929190620006f9565b5060a0820151816005019080519060200190620002d4929190620006f9565b5060c0820151816006019080519060200190620002f3929190620006f9565b5060e082015181600701908051906020019062000312929190620006f9565b506101008201518160080160006101000a81548160ff021916908315150217905550505060016000805490506200034a9190620007e2565b6001896040516200035c9190620008a0565b9081526020016040518091039020819055505050505050505050565b60026040518061014001604052808b81526020018a8152602001898152602001888152602001878152602001868152602001858152602001848152602001838152602001600081525090806001815401808255809150506001900390600052602060002090600a0201600090919091909150600082015181600001908051906020019062000408929190620006f9565b50602082015181600101908051906020019062000427929190620006f9565b50604082015181600201908051906020019062000446929190620006f9565b50606082015181600301908051906020019062000465929190620006f9565b50608082015181600401908051906020019062000484929190620006f9565b5060a0820151816005019080519060200190620004a3929190620006f9565b5060c0820151816006019080519060200190620004c2929190620006f9565b5060e0820151816007019080519060200190620004e1929190620006f9565b5061010082015181600801908051906020019062000501929190620006f9565b50610120820151816009015550506001600280549050620005239190620007e2565b60038a604051620005359190620008a0565b908152602001604051809103902081905550505050505050505050565b60056040518060e00160405280600454815260200187815260200186815260200185815260200184815260200183815260200160008152509080600181540180825580915050600190039060005260206000209060070201600090919091909150600082015181600001556020820151816001019080519060200190620005db929190620006f9565b506040820151816002019080519060200190620005fa929190620006f9565b50606082015181600301908051906020019062000619929190620006f9565b50608082015181600401908051906020019062000638929190620006f9565b5060a082015181600501908051906020019062000657929190620006f9565b5060c0820151816006015550506001600580549050620006789190620007e2565b600660006004548152602001908152602001600020819055506001600580549050620006a59190620007e2565b600785604051620006b79190620008a0565b908152602001604051809103902081905550620006d9620006e060201b60201c565b5050505050565b6001600454620006f19190620008b9565b600481905550565b828054620007079062000945565b90600052602060002090601f0160209004810192826200072b576000855562000777565b82601f106200074657805160ff191683800117855562000777565b8280016001018555821562000777579182015b828111156200077657825182559160200191906001019062000759565b5b5090506200078691906200078a565b5090565b5b80821115620007a55760008160009055506001016200078b565b5090565b6000819050919050565b7f4e487b7100000000000000000000000000000000000000000000000000000000600052601160045260246000fd5b6000620007ef82620007a9565b9150620007fc83620007a9565b925082821015620008125762000811620007b3565b5b828203905092915050565b600081519050919050565b600081905092915050565b60005b838110156200085357808201518184015260208101905062000836565b8381111562000863576000848401525b50505050565b600062000876826200081d565b62000882818562000828565b93506200089481856020860162000833565b80840191505092915050565b6000620008ae828462000869565b915081905092915050565b6000620008c682620007a9565b9150620008d383620007a9565b9250827fffffffffffffffffffffffffffffffffffffffffffffffffffffffffffffffff038211156200090b576200090a620007b3565b5b828201905092915050565b7f4e487b7100000000000000000000000000000000000000000000000000000000600052602260045260246000fd5b600060028204905060018216806200095e57607f821691505b60208210810362000974576200097362000916565b5b50919050565b6133d2806200098a6000396000f3fe608060405234801561001057600080fd5b506004361061012c5760003560e01c806358f3816b116100ad57806368aaf76a1161007157806368aaf76a1461037d57806370d7e811146103995780637fa1ca74146103c9578063cb9dfaa5146103e7578063e69906ac146104035761012c565b806358f3816b146102d95780635a7bc869146102f55780635ba961fb146103255780635f5300ff1461032f57806363900bd21461034d5761012c565b806324d69dcd116100f457806324d69dcd1461020f5780633866965c1461023f57806350efbc751461025d578063529102411461027957806358ba9aad146102a95761012c565b8063041a50101461013157806310430374146101615780631c75cfb4146101915780631ccba2dd146101af5780631f5fb391146101df575b600080fd5b61014b600480360381019061014691906127e0565b61041f565b60405161015891906129b7565b60405180910390f35b61017b60048036038101906101769190612b0e565b610907565b6040516101889190612c78565b60405180910390f35b610199610e8e565b6040516101a69190612ca9565b60405180910390f35b6101c960048036038101906101c491906127e0565b610e94565b6040516101d69190612d7c565b60405180910390f35b6101f960048036038101906101f49190612b0e565b6111d1565b6040516102069190612ca9565b60405180910390f35b61022960048036038101906102249190612b0e565b6111ff565b60405161023691906129b7565b60405180910390f35b610247611705565b6040516102549190612ca9565b60405180910390f35b61027760048036038101906102729190612d9e565b611712565b005b610293600480360381019061028e9190612b0e565b611888565b6040516102a09190612ca9565b60405180910390f35b6102c360048036038101906102be91906127e0565b6118b6565b6040516102d09190612c78565b60405180910390f35b6102f360048036038101906102ee9190612b0e565b611e1f565b005b61030f600480360381019061030a9190612b0e565b611e7e565b60405161031c9190612d7c565b60405180910390f35b61032d6121c6565b005b6103376121dd565b6040516103449190612ca9565b60405180910390f35b61036760048036038101906103629190612b0e565b6121e9565b6040516103749190612ca9565b60405180910390f35b61039760048036038101906103929190612b0e565b612217565b005b6103b360048036038101906103ae91906127e0565b612275565b6040516103c09190612ca9565b60405180910390f35b6103d161228d565b6040516103de9190612ca9565b60405180910390f35b61040160048036038101906103fc9190612ea5565b61229a565b005b61041d6004803603810190610418919061303b565b612451565b005b610427612615565b6000828154811061043b5761043a613201565b5b9060005260206000209060090201604051806101200160405290816000820180546104659061325f565b80601f01602080910402602001604051908101604052809291908181526020018280546104919061325f565b80156104de5780601f106104b3576101008083540402835291602001916104de565b820191906000526020600020905b8154815290600101906020018083116104c157829003601f168201915b505050505081526020016001820180546104f79061325f565b80601f01602080910402602001604051908101604052809291908181526020018280546105239061325f565b80156105705780601f1061054557610100808354040283529160200191610570565b820191906000526020600020905b81548152906001019060200180831161055357829003601f168201915b505050505081526020016002820180546105899061325f565b80601f01602080910402602001604051908101604052809291908181526020018280546105b59061325f565b80156106025780601f106105d757610100808354040283529160200191610602565b820191906000526020600020905b8154815290600101906020018083116105e557829003601f168201915b5050505050815260200160038201805461061b9061325f565b80601f01602080910402602001604051908101604052809291908181526020018280546106479061325f565b80156106945780601f1061066957610100808354040283529160200191610694565b820191906000526020600020905b81548152906001019060200180831161067757829003601f168201915b505050505081526020016004820180546106ad9061325f565b80601f01602080910402602001604051908101604052809291908181526020018280546106d99061325f565b80156107265780601f106106fb57610100808354040283529160200191610726565b820191906000526020600020905b81548152906001019060200180831161070957829003601f168201915b5050505050815260200160058201805461073f9061325f565b80601f016020809104026020016040519081016040528092919081815260200182805461076b9061325f565b80156107b85780601f1061078d576101008083540402835291602001916107b8565b820191906000526020600020905b81548152906001019060200180831161079b57829003601f168201915b505050505081526020016006820180546107d19061325f565b80601f01602080910402602001604051908101604052809291908181526020018280546107fd9061325f565b801561084a5780601f1061081f5761010080835404028352916020019161084a565b820191906000526020600020905b81548152906001019060200180831161082d57829003601f168201915b505050505081526020016007820180546108639061325f565b80601f016020809104026020016040519081016040528092919081815260200182805461088f9061325f565b80156108dc5780601f106108b1576101008083540402835291602001916108dc565b820191906000526020600020905b8154815290600101906020018083116108bf57829003601f168201915b505050505081526020016008820160009054906101000a900460ff1615151515815250509050919050565b61090f612663565b600260038360405161092191906132cc565b9081526020016040518091039020548154811061094157610940613201565b5b90600052602060002090600a02016040518061014001604052908160008201805461096b9061325f565b80601f01602080910402602001604051908101604052809291908181526020018280546109979061325f565b80156109e45780601f106109b9576101008083540402835291602001916109e4565b820191906000526020600020905b8154815290600101906020018083116109c757829003601f168201915b505050505081526020016001820180546109fd9061325f565b80601f0160208091040260200160405190810160405280929190818152602001828054610a299061325f565b8015610a765780601f10610a4b57610100808354040283529160200191610a76565b820191906000526020600020905b815481529060010190602001808311610a5957829003601f168201915b50505050508152602001600282018054610a8f9061325f565b80601f0160208091040260200160405190810160405280929190818152602001828054610abb9061325f565b8015610b085780601f10610add57610100808354040283529160200191610b08565b820191906000526020600020905b815481529060010190602001808311610aeb57829003601f168201915b50505050508152602001600382018054610b219061325f565b80601f0160208091040260200160405190810160405280929190818152602001828054610b4d9061325f565b8015610b9a5780601f10610b6f57610100808354040283529160200191610b9a565b820191906000526020600020905b815481529060010190602001808311610b7d57829003601f168201915b50505050508152602001600482018054610bb39061325f565b80601f0160208091040260200160405190810160405280929190818152602001828054610bdf9061325f565b8015610c2c5780601f10610c0157610100808354040283529160200191610c2c565b820191906000526020600020905b815481529060010190602001808311610c0f57829003601f168201915b50505050508152602001600582018054610c459061325f565b80601f0160208091040260200160405190810160405280929190818152602001828054610c719061325f565b8015610cbe5780601f10610c9357610100808354040283529160200191610cbe565b820191906000526020600020905b815481529060010190602001808311610ca157829003601f168201915b50505050508152602001600682018054610cd79061325f565b80601f0160208091040260200160405190810160405280929190818152602001828054610d039061325f565b8015610d505780601f10610d2557610100808354040283529160200191610d50565b820191906000526020600020905b815481529060010190602001808311610d3357829003601f168201915b50505050508152602001600782018054610d699061325f565b80601f0160208091040260200160405190810160405280929190818152602001828054610d959061325f565b8015610de25780601f10610db757610100808354040283529160200191610de2565b820191906000526020600020905b815481529060010190602001808311610dc557829003601f168201915b50505050508152602001600882018054610dfb9061325f565b80601f0160208091040260200160405190810160405280929190818152602001828054610e279061325f565b8015610e745780601f10610e4957610100808354040283529160200191610e74565b820191906000526020600020905b815481529060010190602001808311610e5757829003601f168201915b505050505081526020016009820154815250509050919050565b60045481565b610e9c6126b6565b6005600660008481526020019081526020016000205481548110610ec357610ec2613201565b5b90600052602060002090600702016040518060e001604052908160008201548152602001600182018054610ef69061325f565b80601f0160208091040260200160405190810160405280929190818152602001828054610f229061325f565b8015610f6f5780601f10610f4457610100808354040283529160200191610f6f565b820191906000526020600020905b815481529060010190602001808311610f5257829003601f168201915b50505050508152602001600282018054610f889061325f565b80601f0160208091040260200160405190810160405280929190818152602001828054610fb49061325f565b80156110015780601f10610fd657610100808354040283529160200191611001565b820191906000526020600020905b815481529060010190602001808311610fe457829003601f168201915b5050505050815260200160038201805461101a9061325f565b80601f01602080910402602001604051908101604052809291908181526020018280546110469061325f565b80156110935780601f1061106857610100808354040283529160200191611093565b820191906000526020600020905b81548152906001019060200180831161107657829003601f168201915b505050505081526020016004820180546110ac9061325f565b80601f01602080910402602001604051908101604052809291908181526020018280546110d89061325f565b80156111255780601f106110fa57610100808354040283529160200191611125565b820191906000526020600020905b81548152906001019060200180831161110857829003601f168201915b5050505050815260200160058201805461113e9061325f565b80601f016020809104026020016040519081016040528092919081815260200182805461116a9061325f565b80156111b75780601f1061118c576101008083540402835291602001916111b7565b820191906000526020600020905b81548152906001019060200180831161119a57829003601f168201915b505050505081526020016006820154815250509050919050565b6001818051602081018201805184825260208301602085012081835280955050505050506000915090505481565b611207612615565b600060018360405161121991906132cc565b9081526020016040518091039020548154811061123957611238613201565b5b9060005260206000209060090201604051806101200160405290816000820180546112639061325f565b80601f016020809104026020016040519081016040528092919081815260200182805461128f9061325f565b80156112dc5780601f106112b1576101008083540402835291602001916112dc565b820191906000526020600020905b8154815290600101906020018083116112bf57829003601f168201915b505050505081526020016001820180546112f59061325f565b80601f01602080910402602001604051908101604052809291908181526020018280546113219061325f565b801561136e5780601f106113435761010080835404028352916020019161136e565b820191906000526020600020905b81548152906001019060200180831161135157829003601f168201915b505050505081526020016002820180546113879061325f565b80601f01602080910402602001604051908101604052809291908181526020018280546113b39061325f565b80156114005780601f106113d557610100808354040283529160200191611400565b820191906000526020600020905b8154815290600101906020018083116113e357829003601f168201915b505050505081526020016003820180546114199061325f565b80601f01602080910402602001604051908101604052809291908181526020018280546114459061325f565b80156114925780601f1061146757610100808354040283529160200191611492565b820191906000526020600020905b81548152906001019060200180831161147557829003601f168201915b505050505081526020016004820180546114ab9061325f565b80601f01602080910402602001604051908101604052809291908181526020018280546114d79061325f565b80156115245780601f106114f957610100808354040283529160200191611524565b820191906000526020600020905b81548152906001019060200180831161150757829003601f168201915b5050505050815260200160058201805461153d9061325f565b80601f01602080910402602001604051908101604052809291908181526020018280546115699061325f565b80156115b65780601f1061158b576101008083540402835291602001916115b6565b820191906000526020600020905b81548152906001019060200180831161159957829003601f168201915b505050505081526020016006820180546115cf9061325f565b80601f01602080910402602001604051908101604052809291908181526020018280546115fb9061325f565b80156116485780601f1061161d57610100808354040283529160200191611648565b820191906000526020600020905b81548152906001019060200180831161162b57829003601f168201915b505050505081526020016007820180546116619061325f565b80601f016020809104026020016040519081016040528092919081815260200182805461168d9061325f565b80156116da5780601f106116af576101008083540402835291602001916116da565b820191906000526020600020905b8154815290600101906020018083116116bd57829003601f168201915b505050505081526020016008820160009054906101000a900460ff1615151515815250509050919050565b6000600280549050905090565b60056040518060e001604052806004548152602001878152602001868152602001858152602001848152602001838152602001600081525090806001815401808255809150506001900390600052602060002090600702016000909190919091506000820151816000015560208201518160010190805190602001906117999291906126f3565b5060408201518160020190805190602001906117b69291906126f3565b5060608201518160030190805190602001906117d39291906126f3565b5060808201518160040190805190602001906117f09291906126f3565b5060a082015181600501908051906020019061180d9291906126f3565b5060c082015181600601555050600160058054905061182c9190613312565b6006600060045481526020019081526020016000208190555060016005805490506118579190613312565b60078560405161186791906132cc565b9081526020016040518091039020819055506118816121c6565b5050505050565b6003818051602081018201805184825260208301602085012081835280955050505050506000915090505481565b6118be612663565b600282815481106118d2576118d1613201565b5b90600052602060002090600a0201604051806101400160405290816000820180546118fc9061325f565b80601f01602080910402602001604051908101604052809291908181526020018280546119289061325f565b80156119755780601f1061194a57610100808354040283529160200191611975565b820191906000526020600020905b81548152906001019060200180831161195857829003601f168201915b5050505050815260200160018201805461198e9061325f565b80601f01602080910402602001604051908101604052809291908181526020018280546119ba9061325f565b8015611a075780601f106119dc57610100808354040283529160200191611a07565b820191906000526020600020905b8154815290600101906020018083116119ea57829003601f168201915b50505050508152602001600282018054611a209061325f565b80601f0160208091040260200160405190810160405280929190818152602001828054611a4c9061325f565b8015611a995780601f10611a6e57610100808354040283529160200191611a99565b820191906000526020600020905b815481529060010190602001808311611a7c57829003601f168201915b50505050508152602001600382018054611ab29061325f565b80601f0160208091040260200160405190810160405280929190818152602001828054611ade9061325f565b8015611b2b5780601f10611b0057610100808354040283529160200191611b2b565b820191906000526020600020905b815481529060010190602001808311611b0e57829003601f168201915b50505050508152602001600482018054611b449061325f565b80601f0160208091040260200160405190810160405280929190818152602001828054611b709061325f565b8015611bbd5780601f10611b9257610100808354040283529160200191611bbd565b820191906000526020600020905b815481529060010190602001808311611ba057829003601f168201915b50505050508152602001600582018054611bd69061325f565b80601f0160208091040260200160405190810160405280929190818152602001828054611c029061325f565b8015611c4f5780601f10611c2457610100808354040283529160200191611c4f565b820191906000526020600020905b815481529060010190602001808311611c3257829003601f168201915b50505050508152602001600682018054611c689061325f565b80601f0160208091040260200160405190810160405280929190818152602001828054611c949061325f565b8015611ce15780601f10611cb657610100808354040283529160200191611ce1565b820191906000526020600020905b815481529060010190602001808311611cc457829003601f168201915b50505050508152602001600782018054611cfa9061325f565b80601f0160208091040260200160405190810160405280929190818152602001828054611d269061325f565b8015611d735780601f10611d4857610100808354040283529160200191611d73565b820191906000526020600020905b815481529060010190602001808311611d5657829003601f168201915b50505050508152602001600882018054611d8c9061325f565b80601f0160208091040260200160405190810160405280929190818152602001828054611db89061325f565b8015611e055780601f10611dda57610100808354040283529160200191611e05565b820191906000526020600020905b815481529060010190602001808311611de857829003601f168201915b505050505081526020016009820154815250509050919050565b60016000600183604051611e3391906132cc565b90815260200160405180910390205481548110611e5357611e52613201565b5b906000526020600020906009020160080160006101000a81548160ff02191690831515021790555050565b611e866126b6565b6005600783604051611e9891906132cc565b90815260200160405180910390205481548110611eb857611eb7613201565b5b90600052602060002090600702016040518060e001604052908160008201548152602001600182018054611eeb9061325f565b80601f0160208091040260200160405190810160405280929190818152602001828054611f179061325f565b8015611f645780601f10611f3957610100808354040283529160200191611f64565b820191906000526020600020905b815481529060010190602001808311611f4757829003601f168201915b50505050508152602001600282018054611f7d9061325f565b80601f0160208091040260200160405190810160405280929190818152602001828054611fa99061325f565b8015611ff65780601f10611fcb57610100808354040283529160200191611ff6565b820191906000526020600020905b815481529060010190602001808311611fd957829003601f168201915b5050505050815260200160038201805461200f9061325f565b80601f016020809104026020016040519081016040528092919081815260200182805461203b9061325f565b80156120885780601f1061205d57610100808354040283529160200191612088565b820191906000526020600020905b81548152906001019060200180831161206b57829003601f168201915b505050505081526020016004820180546120a19061325f565b80601f01602080910402602001604051908101604052809291908181526020018280546120cd9061325f565b801561211a5780601f106120ef5761010080835404028352916020019161211a565b820191906000526020600020905b8154815290600101906020018083116120fd57829003601f168201915b505050505081526020016005820180546121339061325f565b80601f016020809104026020016040519081016040528092919081815260200182805461215f9061325f565b80156121ac5780601f10612181576101008083540402835291602001916121ac565b820191906000526020600020905b81548152906001019060200180831161218f57829003601f168201915b505050505081526020016006820154815250509050919050565b60016004546121d59190613346565b600481905550565b60008080549050905090565b6007818051602081018201805184825260208301602085012081835280955050505050506000915090505481565b6001600260038360405161222b91906132cc565b9081526020016040518091039020548154811061224b5761224a613201565b5b90600052602060002090600a0201600901600082825461226b9190613346565b9250508190555050565b60066020528060005260406000206000915090505481565b6000600580549050905090565b60006040518061012001604052808a815260200189815260200188815260200187815260200186815260200185815260200184815260200183815260200160001515815250908060018154018082558091505060019003906000526020600020906009020160009091909190915060008201518160000190805190602001906123249291906126f3565b5060208201518160010190805190602001906123419291906126f3565b50604082015181600201908051906020019061235e9291906126f3565b50606082015181600301908051906020019061237b9291906126f3565b5060808201518160040190805190602001906123989291906126f3565b5060a08201518160050190805190602001906123b59291906126f3565b5060c08201518160060190805190602001906123d29291906126f3565b5060e08201518160070190805190602001906123ef9291906126f3565b506101008201518160080160006101000a81548160ff021916908315150217905550505060016000805490506124259190613312565b60018960405161243591906132cc565b9081526020016040518091039020819055505050505050505050565b60026040518061014001604052808b81526020018a8152602001898152602001888152602001878152602001868152602001858152602001848152602001838152602001600081525090806001815401808255809150506001900390600052602060002090600a020160009091909190915060008201518160000190805190602001906124df9291906126f3565b5060208201518160010190805190602001906124fc9291906126f3565b5060408201518160020190805190602001906125199291906126f3565b5060608201518160030190805190602001906125369291906126f3565b5060808201518160040190805190602001906125539291906126f3565b5060a08201518160050190805190602001906125709291906126f3565b5060c082015181600601908051906020019061258d9291906126f3565b5060e08201518160070190805190602001906125aa9291906126f3565b506101008201518160080190805190602001906125c89291906126f3565b506101208201518160090155505060016002805490506125e89190613312565b60038a6040516125f891906132cc565b908152602001604051809103902081905550505050505050505050565b60405180610120016040528060608152602001606081526020016060815260200160608152602001606081526020016060815260200160608152602001606081526020016000151581525090565b604051806101400160405280606081526020016060815260200160608152602001606081526020016060815260200160608152602001606081526020016060815260200160608152602001600081525090565b6040518060e00160405280600081526020016060815260200160608152602001606081526020016060815260200160608152602001600081525090565b8280546126ff9061325f565b90600052602060002090601f0160209004810192826127215760008555612768565b82601f1061273a57805160ff1916838001178555612768565b82800160010185558215612768579182015b8281111561276757825182559160200191906001019061274c565b5b5090506127759190612779565b5090565b5b8082111561279257600081600090555060010161277a565b5090565b6000604051905090565b600080fd5b600080fd5b6000819050919050565b6127bd816127aa565b81146127c857600080fd5b50565b6000813590506127da816127b4565b92915050565b6000602082840312156127f6576127f56127a0565b5b6000612804848285016127cb565b91505092915050565b600081519050919050565b600082825260208201905092915050565b60005b8381101561284757808201518184015260208101905061282c565b83811115612856576000848401525b50505050565b6000601f19601f8301169050919050565b60006128788261280d565b6128828185612818565b9350612892818560208601612829565b61289b8161285c565b840191505092915050565b60008115159050919050565b6128bb816128a6565b82525050565b60006101208301600083015184820360008601526128df828261286d565b915050602083015184820360208601526128f9828261286d565b91505060408301518482036040860152612913828261286d565b9150506060830151848203606086015261292d828261286d565b91505060808301518482036080860152612947828261286d565b91505060a083015184820360a0860152612961828261286d565b91505060c083015184820360c086015261297b828261286d565b91505060e083015184820360e0860152612995828261286d565b9150506101008301516129ac6101008601826128b2565b508091505092915050565b600060208201905081810360008301526129d181846128c1565b905092915050565b600080fd5b600080fd5b7f4e487b7100000000000000000000000000000000000000000000000000000000600052604160045260246000fd5b612a1b8261285c565b810181811067ffffffffffffffff82111715612a3a57612a396129e3565b5b80604052505050565b6000612a4d612796565b9050612a598282612a12565b919050565b600067ffffffffffffffff821115612a7957612a786129e3565b5b612a828261285c565b9050602081019050919050565b82818337600083830152505050565b6000612ab1612aac84612a5e565b612a43565b905082815260208101848484011115612acd57612acc6129de565b5b612ad8848285612a8f565b509392505050565b600082601f830112612af557612af46129d9565b5b8135612b05848260208601612a9e565b91505092915050565b600060208284031215612b2457612b236127a0565b5b600082013567ffffffffffffffff811115612b4257612b416127a5565b5b612b4e84828501612ae0565b91505092915050565b612b60816127aa565b82525050565b6000610140830160008301518482036000860152612b84828261286d565b91505060208301518482036020860152612b9e828261286d565b91505060408301518482036040860152612bb8828261286d565b91505060608301518482036060860152612bd2828261286d565b91505060808301518482036080860152612bec828261286d565b91505060a083015184820360a0860152612c06828261286d565b91505060c083015184820360c0860152612c20828261286d565b91505060e083015184820360e0860152612c3a828261286d565b915050610100830151848203610100860152612c56828261286d565b915050610120830151612c6d610120860182612b57565b508091505092915050565b60006020820190508181036000830152612c928184612b66565b905092915050565b612ca3816127aa565b82525050565b6000602082019050612cbe6000830184612c9a565b92915050565b600060e083016000830151612cdc6000860182612b57565b5060208301518482036020860152612cf4828261286d565b91505060408301518482036040860152612d0e828261286d565b91505060608301518482036060860152612d28828261286d565b91505060808301518482036080860152612d42828261286d565b91505060a083015184820360a0860152612d5c828261286d565b91505060c0830151612d7160c0860182612b57565b508091505092915050565b60006020820190508181036000830152612d968184612cc4565b905092915050565b600080600080600060a08688031215612dba57612db96127a0565b5b600086013567ffffffffffffffff811115612dd857612dd76127a5565b5b612de488828901612ae0565b955050602086013567ffffffffffffffff811115612e0557612e046127a5565b5b612e1188828901612ae0565b945050604086013567ffffffffffffffff811115612e3257612e316127a5565b5b612e3e88828901612ae0565b935050606086013567ffffffffffffffff811115612e5f57612e5e6127a5565b5b612e6b88828901612ae0565b925050608086013567ffffffffffffffff811115612e8c57612e8b6127a5565b5b612e9888828901612ae0565b9150509295509295909350565b600080600080600080600080610100898b031215612ec657612ec56127a0565b5b600089013567ffffffffffffffff811115612ee457612ee36127a5565b5b612ef08b828c01612ae0565b985050602089013567ffffffffffffffff811115612f1157612f106127a5565b5b612f1d8b828c01612ae0565b975050604089013567ffffffffffffffff811115612f3e57612f3d6127a5565b5b612f4a8b828c01612ae0565b965050606089013567ffffffffffffffff811115612f6b57612f6a6127a5565b5b612f778b828c01612ae0565b955050608089013567ffffffffffffffff811115612f9857612f976127a5565b5b612fa48b828c01612ae0565b94505060a089013567ffffffffffffffff811115612fc557612fc46127a5565b5b612fd18b828c01612ae0565b93505060c089013567ffffffffffffffff811115612ff257612ff16127a5565b5b612ffe8b828c01612ae0565b92505060e089013567ffffffffffffffff81111561301f5761301e6127a5565b5b61302b8b828c01612ae0565b9150509295985092959890939650565b60008060008060008060008060006101208a8c03121561305e5761305d6127a0565b5b60008a013567ffffffffffffffff81111561307c5761307b6127a5565b5b6130888c828d01612ae0565b99505060208a013567ffffffffffffffff8111156130a9576130a86127a5565b5b6130b58c828d01612ae0565b98505060408a013567ffffffffffffffff8111156130d6576130d56127a5565b5b6130e28c828d01612ae0565b97505060608a013567ffffffffffffffff811115613103576131026127a5565b5b61310f8c828d01612ae0565b96505060808a013567ffffffffffffffff8111156131305761312f6127a5565b5b61313c8c828d01612ae0565b95505060a08a013567ffffffffffffffff81111561315d5761315c6127a5565b5b6131698c828d01612ae0565b94505060c08a013567ffffffffffffffff81111561318a576131896127a5565b5b6131968c828d01612ae0565b93505060e08a013567ffffffffffffffff8111156131b7576131b66127a5565b5b6131c38c828d01612ae0565b9250506101008a013567ffffffffffffffff8111156131e5576131e46127a5565b5b6131f18c828d01612ae0565b9150509295985092959850929598565b7f4e487b7100000000000000000000000000000000000000000000000000000000600052603260045260246000fd5b7f4e487b7100000000000000000000000000000000000000000000000000000000600052602260045260246000fd5b6000600282049050600182168061327757607f821691505b60208210810361328a57613289613230565b5b50919050565b600081905092915050565b60006132a68261280d565b6132b08185613290565b93506132c0818560208601612829565b80840191505092915050565b60006132d8828461329b565b915081905092915050565b7f4e487b7100000000000000000000000000000000000000000000000000000000600052601160045260246000fd5b600061331d826127aa565b9150613328836127aa565b92508282101561333b5761333a6132e3565b5b828203905092915050565b6000613351826127aa565b915061335c836127aa565b9250827fffffffffffffffffffffffffffffffffffffffffffffffffffffffffffffffff03821115613391576133906132e3565b5b82820190509291505056fea264697066735822122081ed1e4e215e1ea832c4ac762af17cc0eaac3f5e408a8f2db34544dc82daf62a64736f6c634300080e0033",
  "immutableReferences": {},
  "source": "//SPDX-License-Identifier: MIT\npragma solidity ^0.8.0;\n\ncontract election {\n    // voter info structure\n    struct voterInfo {\n        string epic;\n        string voterName;\n        string voterFatherName;\n        string voterEmail;\n        string voterMobile;\n        string voterDOB;\n        string voterDistrict;\n        string voterGender;\n        bool isVoted;\n    }\n\n    voterInfo[] allVoters;\n    mapping(string => uint256) public voterSearch; // epic => index\n\n    // stores voter info on blockchain\n    function registerVoter(\n        string memory _epic,\n        string memory _voterName,\n        string memory _voterFatherName,\n        string memory _voterEmail,\n        string memory _voterMobile,\n        string memory _voterDOB,\n        string memory _voterDistrict,\n        string memory _voterGender\n    ) public {\n        allVoters.push(\n            voterInfo(\n                _epic,\n                _voterName,\n                _voterFatherName,\n                _voterEmail,\n                _voterMobile,\n                _voterDOB,\n                _voterDistrict,\n                _voterGender,\n                false\n            )\n        );\n        voterSearch[_epic] = allVoters.length - 1;\n    }\n\n    // reterive voter info from blockchain\n    function showVoterInfo(string memory _epic)\n        public\n        view\n        returns (voterInfo memory)\n    {\n        return allVoters[voterSearch[_epic]];\n    }\n\n    // count total voters\n    function totalVoters() public view returns (uint256) {\n        return allVoters.length;\n    }\n\n    function fetchVoterByIndex(uint256 _index)\n        public\n        view\n        returns (voterInfo memory)\n    {\n        return allVoters[_index];\n    }\n\n    // candidate info structure\n    struct candidateInfo {\n        string id;\n        string candidateName;\n        string partyName;\n        string candidateEmail;\n        string candidateFatherName;\n        string candidateMobile;\n        string candidateDistrict;\n        string candidateDOB;\n        string candidateGender;\n        uint256 totalVotes;\n    }\n\n    candidateInfo[] allCandidates;\n    mapping(string => uint256) public candidateSearch; // id => index\n\n    // stores candidate info on blockchain\n    function registerCandidate(\n        string memory _id,\n        string memory _candidateName,\n        string memory _party,\n        string memory __candidateEmail,\n        string memory _candidateFatherName,\n        string memory _candidateMobile,\n        string memory _candidateDistrict,\n        string memory _candidateDOB,\n        string memory _candidateGender\n    ) public {\n        allCandidates.push(\n            candidateInfo(\n                _id,\n                _candidateName,\n                _party,\n                __candidateEmail,\n                _candidateFatherName,\n                _candidateMobile,\n                _candidateDistrict,\n                _candidateDOB,\n                _candidateGender,\n                0\n            )\n        );\n        candidateSearch[_id] = allCandidates.length - 1;\n    }\n\n    // reterive candidate info from blockchain\n    function showCandidateInfo(string memory _id)\n        public\n        view\n        returns (candidateInfo memory)\n    {\n        return allCandidates[candidateSearch[_id]];\n    }\n\n    // count total candidates\n    function totalCandidates() public view returns (uint256) {\n        return allCandidates.length;\n    }\n\n    function fetchCandidateByIndex(uint256 _index)\n        public\n        view\n        returns (candidateInfo memory)\n    {\n        return allCandidates[_index];\n    }\n\n    function voterVoted(string memory _epic) public \n    {\n        allVoters[voterSearch[_epic]].isVoted=true;\n    }\n\n    function increaseVote(string memory _id) public {\n        allCandidates[candidateSearch[_id]].totalVotes += 1;\n    }\n\n    // election info structure\n    struct electionInfo {\n        uint256 id;\n        string electionName;\n        string electionDistrict;\n        string electionDate;\n        string startingTime;\n        string endingTime;\n        uint256 totalVotes;\n    }\n    uint256 public currentID = 0;\n\n    function incrementCurrentID() public {\n        currentID = currentID + 1;\n    }\n\n    electionInfo[] allElections;\n    mapping(uint256 => uint256) public electionSearch; // id => index\n    mapping(string => uint256) public electionSearchDistrict; // district => index\n\n    function createElection(\n        string memory _electionName,\n        string memory _electionDistrict,\n        string memory _electionDate,\n        string memory _electionStartingTime,\n        string memory _electionEndingTime\n    ) public {\n        allElections.push(\n            electionInfo(\n                currentID,\n                _electionName,\n                _electionDistrict,\n                _electionDate,\n                _electionStartingTime,\n                _electionEndingTime,\n                0\n            )\n        );\n        electionSearch[currentID] = allElections.length - 1;\n        electionSearchDistrict[_electionDistrict] = allElections.length - 1;\n        incrementCurrentID();\n    }\n\n    function showElectionInfo(uint256 _id)\n        public\n        view\n        returns (electionInfo memory)\n    {\n        return allElections[electionSearch[_id]];\n    }\n\n    function totalElections() public view returns (uint256) {\n        return allElections.length;\n    }\n\n    function showElectionInfoByDistrict(string memory _district)\n        public\n        view\n        returns (electionInfo memory)\n    {\n        return allElections[electionSearchDistrict[_district]];\n    }\n\n    constructor() {\n        registerVoter(\"\", \"\", \"\", \"\", \"\", \"\", \"\", \"\");\n        registerCandidate(\"\", \"\", \"\", \"\", \"\", \"\", \"\", \"\", \"\");\n        createElection(\"\", \"\", \"\", \"\", \"\");\n    }\n}\n",
  "sourcePath": "/home/abhi/blockchain-voting/truffle/contracts/election.sol",
  "compiler": {
    "name": "solc",
    "version": "0.8.14+commit.80d49f37.Emscripten.clang"
  },
  "schemaVersion": "3.4.10",
  "updatedAt": "2022-11-28T04:35:55.922Z",
  "networkType": "ethereum",
  "devdoc": {
    "kind": "dev",
    "methods": {},
    "version": 1
  },
  "userdoc": {
    "kind": "user",
    "methods": {},
    "version": 1
  }
}